:020000040000fa
:080000000002040000000000f2
:020000040000fa
:04000800f2030000ff
:020000040000fa
:04000c0034040000b8
:020000040000fa
:040010007404000074
:020000040000fa
:0400140012040000d2
:020000040000fa
:04001800540400008c
:020000040000fa
:04001c00c00400001c
:020000040000fa
:040020009404000044
:020000040000fa
:04002400c004000014
:020000040000fa
:04002800c004000010
:020000040000fa
:04002c00c00400000c
:020000040000fa
:04003000c004000008
:020000040000fa
:0400340002030000c3
:020000040000fa
:04003800c004000000
:020000040000fa
:04003c00c0040000fc
:020000040000fa
:04004000c0040000f8
:020000040000fa
:04004400c0040000f4
:020000040000fa
:04004800fa020000b8
:020000040000fa
:04004c00c0040000ec
:020000040000fa
:04005000c0040000e8
:020000040000fa
:04005400ae030000f7
:020000040000fa
:04005800840300001d
:020000040000fa
:04005c00600300003d
:020000040000fa
:04006000c0040000d8
:020000040000fa
:04006400c0040000d4
:020000040000fa
:04006800c0040000d0
:020000040000fa
:04006c00c0040000cc
:020000040000fa
:04007000c0040000c8
:020000040000fa
:04007400c0040000c4
:020000040000fa
:04007800c0040000c0
:020000040000fa
:04007c00c0040000bc
:020000040000fa
:04008000c0040000b8
:020000040000fa
:04008400c0040000b4
:020000040000fa
:04008800c0040000b0
:020000040000fa
:04008c00c0040000ac
:020000040000fa
:04009000c0040000a8
:020000040000fa
:04009400480300001d
:020000040000fa
:04009800c0040000a0
:020000040000fa
:04009c00c00400009c
:020000040000fa
:0400a000c004000098
:020000040000fa
:0400a400c004000094
:020000040000fa
:0400a800c004000090
:020000040000fa
:0400ac00c00400008c
:020000040000fa
:0400b000c004000088
:020000040000fa
:0400b400c004000084
:020000040000fa
:0400b800c004000080
:020000040000fa
:0400bc00c00400007c
:020000040000fa
:0400c000c004000078
:020000040000fa
:0400c400c004000074
:020000040000fa
:0400c800c004000070
:020000040000fa
:0400cc00c00400006c
:020000040000fa
:0400d000c004000068
:020000040000fa
:0400d400c004000064
:020000040000fa
:0400d800c004000060
:020000040000fa
:0400dc00c00400005c
:020000040000fa
:0400e000c004000058
:020000040000fa
:0400e400c004000054
:020000040000fa
:0400e800c004000050
:020000040000fa
:0400ec00c00400004c
:020000040000fa
:0400f000c004000048
:020000040000fa
:0400f400c004000044
:020000040000fa
:0400f800c004000040
:020000040000fa
:0400fc00c00400003c
:020000040000fa
:04010000c004000037
:020000040000fa
:04010400c004000033
:020000040000fa
:04010800c00400002f
:020000040000fa
:04010c00c00400002b
:020000040000fa
:04011000c004000027
:020000040000fa
:04011400c004000023
:020000040000fa
:04011800c00400001f
:020000040000fa
:04011c00c00400001b
:020000040000fa
:04012000c004000017
:020000040000fa
:04012400c004000013
:020000040000fa
:04012800c00400000f
:020000040000fa
:04012c00c00400000b
:020000040000fa
:04013000c004000007
:020000040000fa
:04013400c004000003
:020000040000fa
:04013800c0040000ff
:020000040000fa
:04013c00c0040000fb
:020000040000fa
:04014000c0040000f7
:020000040000fa
:04014400c0040000f3
:020000040000fa
:04014800c0040000ef
:020000040000fa
:04014c00c0040000eb
:020000040000fa
:04015000c0040000e7
:020000040000fa
:04015400c0040000e3
:020000040000fa
:04015800c0040000df
:020000040000fa
:04015c00c0040000db
:020000040000fa
:04016000c0040000d7
:020000040000fa
:04016400c0040000d3
:020000040000fa
:04016800c0040000cf
:020000040000fa
:04016c00c0040000cb
:020000040000fa
:04017000c0040000c7
:020000040000fa
:04017400c0040000c3
:020000040000fa
:04017800c0040000bf
:020000040000fa
:04017c00c0040000bb
:020000040000fa
:04018000c0040000b7
:020000040000fa
:04018400c0040000b3
:020000040000fa
:04018800c0040000af
:020000040000fa
:04018c00c0040000ab
:020000040000fa
:04019000c0040000a7
:020000040000fa
:04019400c0040000a3
:020000040000fa
:04019800c00400009f
:020000040000fa
:04019c00c00400009b
:020000040000fa
:0401a000c004000097
:020000040000fa
:0401a400c004000093
:020000040000fa
:0401a800c00400008f
:020000040000fa
:0401ac00c00400008b
:020000040000fa
:0401b000c004000087
:020000040000fa
:0401b400c004000083
:020000040000fa
:0401b800c00400007f
:020000040000fa
:0401bc00c00400007b
:020000040000fa
:0401c000c004000077
:020000040000fa
:0401c400c004000073
:020000040000fa
:0401c800c00400006f
:020000040000fa
:0401cc00c00400006b
:020000040000fa
:0401d000c004000067
:020000040000fa
:0401d400c004000063
:020000040000fa
:0401d800c00400005f
:020000040000fa
:0401dc00c00400005b
:020000040000fa
:0401e000c004000057
:020000040000fa
:0401e400c004000053
:020000040000fa
:0401e800c00400004f
:020000040000fa
:0401ec00c00400004b
:020000040000fa
:0401f000c004000047
:020000040000fa
:0401f400c004000043
:020000040000fa
:0401f800c00400003f
:020000040000fa
:0401fc00c00400003b
:020000040000fa
:04020000c004000036
:020000040000fa
:04020400c004000032
:020000040000fa
:04020800c00400002e
:020000040000fa
:04020c00c00400002a
:020000040000fa
:04021000c004000026
:020000040000fa
:04021400c004000022
:020000040000fa
:04021800c00400001e
:020000040000fa
:04021c00c00400001a
:020000040000fa
:04022000c004000016
:020000040000fa
:04022400c004000012
:020000040000fa
:04022800c00400000e
:020000040000fa
:04022c00c00400000a
:020000040000fa
:04023000c004000006
:020000040000fa
:04023400c004000002
:020000040000fa
:04023800c0040000fe
:020000040000fa
:04023c00c0040000fa
:020000040000fa
:04024000c0040000f6
:020000040000fa
:04024400c0040000f2
:020000040000fa
:04024800c0040000ee
:020000040000fa
:04024c00c0040000ea
:020000040000fa
:04025000c0040000e6
:020000040000fa
:04025400c0040000e2
:020000040000fa
:04025800c0040000de
:020000040000fa
:04025c00c0040000da
:020000040000fa
:04026000c0040000d6
:020000040000fa
:04026400c0040000d2
:020000040000fa
:04026800c0040000ce
:020000040000fa
:04026c00c0040000ca
:020000040000fa
:04027000c0040000c6
:020000040000fa
:04027400c0040000c2
:020000040000fa
:04027800c0040000be
:020000040000fa
:04027c00c0040000ba
:020000040000fa
:04028000c0040000b6
:020000040000fa
:10040000cf6121000eff27000e01880000000000d0
:10041000000020000000e000020032000001200087
:100420002002880014000700570107000000e000c8
:1004300003003a00a058230001002000020037000a
:100440000000200001002000810f70000100320038
:100450000f000700000020000000e0000200320052
:100460000000020000000000961e020000000000d4
:100470000040da000000fe00800120000000e000e3
:1004800002003200002020009001880000000600d9
:10049000a1028800800478000000eb001f003700f4
:1004a000e284440054a0b4009905ba00e2844400f8
:1004b00054a0b4009906ba00e284440054a0b400e9
:1004c0000006eb00476fde00fd07b200ae018800ba
:1004d000636ce10003003a000ad801000000eb0061
:1004e0000e003700606ce10008003a00004deb00a0
:1004f0000a05e800020039003420ec000af0a000f0
:100500008b05e900f9ff3e00040037006168e10057
:10051000010032000086eb000b00070019c7ba008b
:100520000e04e0001905ba0003003a000a00e000da
:10053000dbff3a0000000600fe07b200ae028800b2
:100540008a047800f5ff37000cd0a300e20f4d00bd
:100550001c003b0089027800354dba000a05e8000e
:10056000020039003420ec000af0a0008b05e900fd
:100570000f003200254dba000a05e80002003900dc
:100580003420ec000af0a0008b05e90008003200de
:100590000c00e0000600320015cdba000a05e800a4
:1005a000020039003420ec000af0a0008b05e900bd
:1005b0008984e80054a0b4000b00e000e2ff3a0098
:1005c000000006009902ba00055d78008b05e9007d
:1005d000f7ff3200c82ade00055d78008b05e900d0
:1005e000f3ff32000c00e000f1ff320019ddba0029
:1005f000eeff37000000fa000108a9000080fa00b1
:10060000004006003600f800809fbe00829fbe00ba
:10061000849fbe00869fbe000000fa000068a9000b
:10062000881607002b19070045150700d0808000a9
:100630000000e000010032006d13070030818000ef
:100640000000e8003081880030818000f90f500000
:1006500008003a00201607008000eb00e049210066
:100660002514070011002000604d2100221407000e
:100670002630ef000080fa004f03be004f02be009c
:100680004f01be004f00be003600f90000400600da
:10069000809fbe000000fa000368a900108180005e
:1006a0002181800061004000e080480010818800c6
:1006b000218188000080fa004f00be000040060043
:1006c000801f78000000fa0001a8a900001880002f
:1006d00080b088001018800090b08800201880003a
:1006e000a0b0880030188000b0b0880040188000aa
:1006f000c0b0880010c0b30041f0b7000080fa001d
:100700004f007800004006003600f800809fbe00d1
:10071000829fbe00849fbe00869fbe000000fa003c
:100720000188a900a181800090818000808f500005
:100730000200320031180700010037003670ef0068
:100740000080fa004f03be004f02be004f01be0002
:100750004f00be003600f900004006003600f800e9
:10076000809fbe00829fbe00849fbe00869fbe0009
:100770000000fa000168a900101180006400600008
:100780000000e000010032002242a90010118000a8
:10079000620060000000e000060032002222a90092
:1007a0000500370030118000004078003518070040
:1007b000010037000000000010118000610060009f
:1007c0000000e000f7ff3a000080fa004f03be008f
:1007d0004f02be004f01be004f00be003600f900c0
:1007e000004006003600f800809fbe00829fbe00d9
:1007f000849fbe00869fbe000000fa00c028a900aa
:100800000000eb00ad1907000080fa004f03be00a6
:100810004f02be004f01be004f00be003600f9007f
:10082000004006003600f800809fbe00829fbe0098
:10083000849fbe00869fbe000000fa00a419070036
:10084000c048a900100020009c1907000080fa0091
:100850004f03be004f02be004f01be004f00be005e
:100860003600f900004006003600f800809fbe0008
:10087000829fbe00849fbe00869fbe000000fa00db
:10088000c068a900200020008c1907000080fa0031
:100890004f03be004f02be004f01be004f00be001e
:1008a0003600f900004006003600f800809fbe00c8
:1008b000829fbe00849fbe00869fbe000000fa009b
:1008c000c088a900300020007c1907000080fa00d1
:1008d0004f03be004f02be004f01be004f00be00de
:1008e0003600f900004006003600f800809fbe0088
:1008f000829fbe00849fbe00869fbe000000fa005b
:10090000c608a900700020006c1907000080fa00da
:100910004f03be004f02be004f01be004f00be009d
:100920003600f900004006003600f800809fbe0047
:10093000829fbe00849fbe00869fbe000000fa001a
:100940002146800000022000008060000000e000de
:1009500003003200c4a8a900900020005719070026
:1009600020468000700060000000e00003003200bc
:10097000c488a900a000200050190700ffff37001d
:100980000040da000000fe00000005001400200016
:10099000ad033700f4ff2f00ab0337000001be00aa
:1009a0003f0007000470a70003f0a1006509b10033
:1009b000160032000d0035006828e1000600350001
:1009c000f0ff2f00f1ff27000300e00013003b00c1
:1009d0000100280000000500000040008180480060
:1009e0008502e900fcff3a0008003700f88f42005a
:1009f00002003c008000eb00000005008100d100f7
:100a00000080d3008502e800fcff3a000300e0000c
:100a100002003b0060001000e080180000000600ab
:100a20000001be001e0007000470a70003f0a10033
:100a300003f8a30013003a006509b100100032006a
:100a4000090035006928e100020035000100280096
:100a50000000050000004000818048008502e90098
:100a6000fcff3a0000000600f88f42000500350048
:100a70008100d1000080d3008502e800fcff3a002d
:100a8000000006008000eb00000005004f89de003a
:100a900082017800870337006011b80095033700a2
:100aa000c70ade00f107b200f50fb20008003200fd
:100ab000e1cf4200020032000170a00024000500d6
:100ac000810f700001003200040805004400050099
:100ad000810f700002003a00140005008502e90051
:100ae0000000400081c04800fcff3b000170a000f6
:100af0002400050007f82700078361000638e1009d
:100b000004003a00f7072000878361008703710023
:100b100001003a0003f0a200889fbe008a9fbe0039
:100b20008c9fbe00470ade000480a100c71ade00c9
:100b30000580a10007002800078560008785610007
:100b4000f70f20000720e1009e0032000728e10097
:100b50009c003200010678000400e000b40032007e
:100b6000f7072000878060000170a0000500e0000a
:100b7000c0003200f7072000878161000370a000e9
:100b8000050652000f003a000b50e1000b00320046
:100b90000308e10002003a000200e1007e0032009a
:100ba0000204500083845800040031000001fd005d
:100bb0008101fd008402fd008a05fd006044b8004b
:100bc000210037000520e10005003d000001fd0087
:100bd0008101fd008402fd008a05fd00050652002a
:100be0007a60e100050035000170a1004722dd00b8
:100bf000848070008a807000630037006044b80011
:100c0000ef02660007ff2f00070666000500e00000
:100c100006003400f08312008714dd000511de00a9
:100c2000071bdd00060171008519de007060e10020
:100c3000050035000904780082047800030178007b
:100c40008001eb00700656000b50e10003003a00f3
:100c50000200400083804800040037006004140054
:100c6000e0841c0002005800838058000188a30023
:100c7000060032008100d1000080d3008984d300b7
:100c80000884d3000402e800270037000178a3009d
:100c900025003a000100e000030032008186cf0009
:100ca000698656000a0037008c0020000000e00032
:100cb00004003a0009007800880478000004eb0082
:100cc000700252008086cf000d0646000c06e90037
:100cd0007060e100060035008000780009007800af
:100ce000880478000004eb00700656007002520081
:100cf0000c00e0000c0034008c08dd00f00316004e
:100d00000703de00868070000c00dd00074bde006c
:100d1000060070008c4cdd000743de008684740002
:100d20000c44dd000c0252006120e100200035007f
:100d3000610160000700280087816400f7ff270039
:100d400087836400070374000300e000060032009c
:100d500082037300040032000000e800e0804800d5
:100d60000188a3000e003a00f70f20000720e100e1
:100d70004a003d000170a1004722dd0081007200a1
:100d80008a8070000000be004f06be004f05be0006
:100d90004f04be00000006006000b800faff3700f4
:100da0008100d1000080d3000402e800eeff37008c
:100db0000401780089017400a10107008a80700095
:100dc000f1ff3700f7010700070278000001fd007e
:100dd0008101fd00f301070087027800850372009e
:100de0000778a300040032000001fd008101fd002e
:100df00006020700e4ff3700850362000768a300ce
:100e0000080032000b50e10003003200f0ff2f0019
:100e1000f1ff2700dcff37000001fd008101fd002c
:100e2000d9ff37000468a300d7ff3200faff37006c
:100e3000f8ff2700888360000b003a000000e00004
:100e400009003a00830364008283730002003200c9
:100e50000200be00ccff37000b50e100ceff3a008d
:100e60000200be00c8ff37001400200081006400ab
:100e70003eff3700f8ff27008883610004003a0036
:100e80000200e00002003a008c007800beff37004c
:100e9000150020008301640039ff370001f82700a6
:100ea0000000200081007500b7ff3700889fbe005a
:100eb0008a9fbe008c9fbe001b0020000202be0065
:100ec0000586680006002800060666004709de0061
:100ed000f20fb200820032000243e80080003200cc
:100ee000c729de00f30fb2007d0032000343e800a3
:100ef0007b003200f107b2000170a000f507b200dc
:100f00000570a000c708dd004903de008680700080
:100f10004700dd00c72add004923de00868272001b
:100f20004722dd000305510004035000858358006b
:100f30000300310000004000818048000a05e900fc
:100f40008c1f78008a9fbe000400500085805800e6
:100f50000402420085824a0000004000818048006f
:100f60000005eb000004be006033b8000406be00bc
:100f70000d48e10056003100110009004dccd800a9
:100f80000c01b8000d02b8008481410060824a0063
:100f90008283530003045c0084845c0060055d0070
:100fa0000a00e00025003a00800578000d40e100cd
:100fb000490031008800780007007800110009001e
:100fc0004d88d8000c01b8000d02b80084814100a2
:100fd00060824a006003110083835b0004045c00ac
:100fe000e0845c000900e00021003a004f01be00ef
:100ff0000300e0002b003200e301600007067300ed
:101000008c81710001003200640070004200de003b
:101010004e5edd000c007000c258de0001e0a00052
:1010200083010700cf017800818071004f06be0068
:101030004f05be004f04be00000006008c83430035
:101040000d044c00e0844c0060054d000000e900f8
:101050000a00e000d4ff32008c8343000d044c00f2
:10106000e0844c0060054d000000e900ceff370031
:101070000c0343008d834b0060044c00e0844c0063
:101080000000e9000900e000d8ff32000c03430033
:101090008d834b0060044c00e0844c000000e900ac
:1010a000d2ff37004200de004e5edd000c00700013
:1010b000c258de0001e0a000cf0178000300e0008c
:1010c000daff320060001000e0801800d7ff370020
:1010d000f0ff2f00aaff3700f0ff2f00b9ff370005
:1010e0000404be002f010700870678000004fd00fd
:1010f0008104fd002b010700078366000678a3002a
:10110000030032000960a7000800be002c00370071
:101110000d78a300020032000800be00280037004e
:101120000778a30026003a0001f0a10009f0a10011
:101130000668a30003003200f1ff2700f0ff2f0034
:10114000baff37000d68a300030032000800be009c
:101150008c807000b5ff37000768a30007003a00d5
:101160000648a30003003200f1ff2700f0ff2f0024
:10117000aeff37000d48a300030032006000b80046
:101180008c807000a9ff37000748a30004003200dc
:1011900001f82700000020008c807000a3ff3700ba
:1011a000760107000004fd008104fd0002057800bf
:1011b000720107000802be008a01780059ff37005b
:1011c0000160a000120220002282880097ff3700f1
:1011d0000100e000120032000500e00010003200c3
:1011e000889fbe008a9fbe008c9fbe000006eb0059
:1011f00001f8a3000300320060001000e080180036
:101200000cf0a00005f8a3000300320060021200f9
:10121000e0821a000cf0a2008005eb0041ff3700cd
:101220006000b80002000500038368000700280082
:1012300007036300470ade000480a100c71ade002e
:101240000580a100f70f20000720e10042003200d6
:101250000728e10040003200889fbe008a9fbe0040
:101260008c1f7800f107b200f307b2000400e00021
:10127000640032000170a0000500e0006800320048
:101280000370a00085054200eb07b1000204b8001e
:101290000302b8008484440060854a00020ab80052
:1012a000848444000a854a00030ab8000405450006
:1012b000040033000804d0008984d2000a85d200db
:1012c0008b05e9006158e1003d0035000210200067
:1012d000090161000308200089816100f7072000ef
:1012e0008783640008867300c84cde00c853dd00a5
:1012f000878474004855de000300e00006003200d9
:1013000082037600040032008904e80060054d0085
:101310000a88a3000c003a00f70f20000758e100ec
:1013200044003d000a70a100c75ddd000a8575001c
:101330008a007300090078004f0678004f05be0050
:101340004f04be00000006000a05d1008984d300c6
:101350008b05e800f0ff3700881f7800060478004e
:1013600090000700070278000001fd008101fd00e8
:101370008c00070087027800850372000778a300bd
:10138000050032000001fd008101fd009f00070003
:101390004f04780000000600850372000748a30090
:1013a00003003200f0ff2f00f1ff2700f8ff3700a5
:1013b0000000200001f8270088807000f4ff37004b
:1013c000880178004848dd00808171004848de00cf
:1013d000c850dd0001007000c850de00060478002f
:1013e0000b0178001600070088807000d2ff3700dc
:1013f0000500e00005003200170020003a00070059
:101400009dff370081037000f9ff3a0086007800e5
:101410004f0678004f05be004f04be0000000500d7
:1014200083037100f9ff3200270020002e0007001f
:1014300094ff370001f8270086807000f4ff370022
:101440000100e00026003200610111007810e10087
:1014500023003c006022b8007010e1000400350059
:1014600080027800010078008000eb0070015100dc
:101470000200e0000900340070031100062add00bc
:10148000822ade008603dd00878272000200de0011
:10149000860bdd00070070008208de008481710089
:1014a000f4ff270004826200848171000400280098
:1014b000848262006102600005f0a6000000060060
:1014c00004827100070032000000e800e08048005c
:1014d000000006000002be006000b800efff370009
:1014e0006000b80000000600889fbe000004eb000a
:1014f0006138e10016003a000100e00008003a00ff
:10150000c800de004800dd00880020000100e00087
:1015100003003a00c800de004800dd006804440013
:101520008184cf00e9845400060034008908dd007e
:10153000f08314008703de00878070000900dd005f
:1015400009044400610214004f04be0000000600bc
:101550000300e00008003a00c811de004811dd0079
:10156000880020000300e00003003a00c811de00fc
:101570004811dd00680444008384cf00e9845400ee
:10158000060034008919dd00f08314008713de00a3
:10159000878171000911dd0009044400e102140093
:1015a000e9ff37002700200001f0a7001700200006
:1015b000470bde00f60fb200040032000643e800dd
:1015c0000a0032004702b300000006000103780061
:1015d000f607b2000603700002003a000703b300ea
:1015e000000006008702b300000006000103780037
:1015f000f607b20006037000020032000770a00078
:10160000000006000760a000000006000478a300a8
:10161000040032000578a300030032000168a30033
:1016200001003a000200be000160a00000000600b8
:1016300081017000270032008002eb0001f8a30056
:101640000300320060001000e08018001500200048
:10165000f40720000202420020003400f7032000bb
:1016600087036000060420000003630002082000d6
:10167000000161004700de00c909dd000080710043
:10168000c708de000600e000080032008703710092
:10169000060032001000b0000180b0000188a300f5
:1016a00002003200c108de000402e800f107b200c7
:1016b000f30f20000320e10003003d004722dd007e
:1016c000810072002900370001f827000000eb00bc
:1016d000260037006000b800000006006802120013
:1016e0007f20e100020034006000b8001f003700d6
:1016f0006011b8007020e10004003500800178001e
:10170000010078008000eb00700252000400e0004d
:1017100009003400f00312000719dd008419de000f
:101720000703dd00868171000400de00070bdd0089
:10173000060070008408de00f7ff27008383630043
:1017400087037100060028000303630007003200ce
:101750000700e00003003a006101600002817300ad
:10176000020032001000b0000180b0000500a600a9
:101770000000060001f0a000000006004f0ade0095
:101780004709de00f107b200f20fb2000b00320091
:10179000f207b1000170a000c708dd00c901de003a
:1017a000838070004700dd000400a60000000600f2
:1017b00060001000e080180000000600810f70003b
:1017c00001003a00000006008182cf000500e00021
:1017d00010003e008082cf00ee8242007028e100bf
:1017e0000400390007003e00800078000000eb0094
:1017f0000e003700708312008600de000500dd0059
:101800000a003700708352008600dd000000eb0004
:1018100006003700e28252008508dd007083120066
:101820000603de00868070000500dd007507b0004d
:101830000501ea000400a600000006006000100098
:10184000e080180000000600889fbe008a9fbe004e
:10185000841f78007c0007004f00780011003300df
:10186000f0ff2f00838f6c0006003b00040565002d
:101870000a00a7000800370009f0a60010002000a9
:1018800008003700820f5400838f5c00030039008a
:101890001000200001003e000000200009f0a70019
:1018a0000000ea004f05be004f04be000000e0004b
:1018b00000000600881f7800030478000300e000a1
:1018c00007003d0060001000e08018006001190072
:1018d000e081190002003b0001f02d0003003700f9
:1018e0000400070008f0a70001f0a0004f047800f2
:1018f00000000600889fbe008a9fbe000082700024
:101900000402710004827100260032000004be004f
:101910000200be006011b8006b0920009502200093
:101920000182cf000a0039000541b1000082cf00da
:10193000070039000541b1000982cf0004003900d9
:101940000541b1000882cf00010039000541b10016
:1019500005425200120032000a003b0082817100f1
:10196000610164008100d1000080d3008984d3002c
:101970000884d3008b05e8000442e800f7ff3a0032
:10198000070037000804440089844c000000480028
:10199000818048008b05e9000442e900f9ff3a0024
:1019a000030007004f05be004f04be000000060004
:1019b00081002000618055000b003d000b002000dd
:1019c00061fe2f000100e1001d00340082817100e2
:1019d000610164008904d1000884d3000000e8009c
:1019e000faff3a00710020006100640003007000fb
:1019f000020060000900320061044400e0844c00f1
:101a00000988a500050032008b05e8006808e100a0
:101a100002003a008904d1000884d300f20f2000ac
:101a20000258e10005003d00c75ddd00f907b20086
:101a30008980750008007800000006000bf8270078
:101a40008b007800000005000004be0014fc0700b5
:101a50000003be000405be000200be0010fc07002b
:101a6000844f750000000600000006000800fa0020
:101a7000889fbe008a9fbe008c9fbe000004be00ef
:101a80000200be00e2b79f00f3b79f00f6ff070019
:101a90008102780005f0a100000278000c0020000f
:101aa0000df827006fb19700ffb197008c0f52001f
:101ab0008d8f5a000a003e000800be00eaff0700b2
:101ac0008102780005f0a100000278006fb1970054
:101ad000ffb197008c0f52008d8f5a000300360023
:101ae0000800be000cfc0700980037000203be008f
:101af0000000200001f82300800f5300818f5b005d
:101b000003003a000800be00980007008f0037006d
:101b10000802be004e3dde000b0020006000b80051
:101b2000620065004f4dde000b0020000a057000ca
:101b30008b8570008500780001f0a1000800780016
:101b4000e00f5000e08f580007003a00e20f550008
:101b5000e08f5d0033003200e30f5500e08f5d0041
:101b60007b003a00320037008702780005f0a100c0
:101b700006027800e00f5200e08f5a003b0032006e
:101b80008c0f52008d8f5a002c003a00840f5000a9
:101b9000858f580018003a00e20f5500e08f5d0075
:101ba00009003200e30f5500e08f5d0009003200ac
:101bb000e10f5500e08f5d005b003200b8fd2000b2
:101bc00099f423006200370002002000030424007f
:101bd000020037000200200003042c00b0fd2000aa
:101be0009104240090fd07000200200003e8230078
:101bf0008dfd070055003700e20f5500e08f5d00b6
:101c000008003200e30f5500e08f5d00080032004d
:101c10006044b800e10f5500e08f5d004c003a00d1
:101c200044003700b8fd2000990424004800370024
:101c3000b8fd200099042c00450037000600200064
:101c400007d020000403430085834b0086bf9f001c
:101c500097bf9f00800f5300818f5b000300390006
:101c60008c0f50008d8f580005003a000a08a30021
:101c700033003200b8fd200099fc2b0034003700ff
:101c80006033b80062036500e00f5300e08f5b0033
:101c9000080032000c0020000dd020000003460098
:101ca00081834e006000b800840f5300858f5b0075
:101cb000040039000800be007cfc07007c0107001e
:101cc0002a000700e10f5500e08f5d00050032009b
:101cd0001e003900e20f5500e08f5d000b003a0056
:101ce000030037000004be0009f0a200180037000e
:101cf000e2d22b00b33b230087fb07000001be00ac
:101d0000b0fd20009104240005003700e2d22b0032
:101d1000b33b230080fb0700b2fd200093042400a6
:101d200074fb070009003700b8fd200099f42b0070
:101d300007003700080020000900280004003700d1
:101d4000b8fd200099fc2300010037000004be000c
:101d50000800be004f06be004f05be004f04be0087
:101d60000080fa0000000600000006000c00fa00e7
:101d7000889fbe008a9fbe008c9fbe000004be00ec
:101d80004f09de0003002000e2b79f00f3b79f0079
:101d9000810678000df0a10000067800f0ff2f000a
:101da000f1c72400800f5600818f5e0010003600be
:101db0000800be00ecff07008101780003f0a100dd
:101dc000000178000000200001f82700800f51007a
:101dd000818f5900b7003e00020020000338200028
:101de000a0fd200091fc23004bfb0700a80037005a
:101df000f0ff2f00f1ed2300800f5600818f5e0071
:101e000011003e000085eb00f0ff2f00f19723004a
:101e1000800f5600818f5e0055003e00f0ff2f00be
:101e2000f1072000800f5600818f5e00a1003e0068
:101e30000801be000800be00fbfc0700c0b79f0001
:101e4000d1b79f009b0037000800be0018010700b3
:101e50000004be00f0ff2f0071f92300800f560030
:101e6000818f5e0025003e00f0ff2f00f1f223007d
:101e7000800f5600818f5e0011003e000801be00f9
:101e80000800be0024fb07000200200003f8230026
:101e900018fb07000005be0002002000030024001c
:101ea0000800be001cfb07000001be000a00be00c7
:101eb000fefb07000004be000005eb002c0037000d
:101ec0000200200003f823000800be0009fb070001
:101ed0000005be000200200003f823000800be0039
:101ee0000dfb07000001be000a00be00effb07006b
:101ef0000004be001a0020001d003700f0ff2f0074
:101f0000b1012400800f5600818f5e0012003e0058
:101f10000200200003fc23000800be00f5fa0700c1
:101f20000005be000200200003fc23000800be00e4
:101f3000bdfc07000200200003f82300f6fa0700aa
:101f40000001be000a00be00d8fb07000004be006e
:101f50002a002000060037000801be000000200013
:101f600001f82b00d1fb07000004be003a0020005e
:101f70000801be000800be00abfc07000002be0066
:101f80000001be0084bf9f0095bf9f00a6fc070014
:101f90000006be0052c22a00c3d72300a2fc0700dd
:101fa000d2502f0013e12300dbfa07000001be002e
:101fb0000c00be009cfc070092aa2a00a3ea2300a2
:101fc000d5fa07000001be000fba97009fba97002c
:101fd0000400be0094fc07000002be007224210031
:101fe000a3dd2b000c00be0084bf9f0095bf9f00a7
:101ff0008dfc070082a92c00c3e42300bdfa070072
:102000000001be000c00be0087fc07000001be00fe
:102010000fba97009fba9700e10f450009003a00f8
:102020000400be00bcfa07000001be000800be00ac
:102030007dfc07000001be000800be00adfa0700ed
:102040001b0037004255dd000c5f21000a064600e8
:102050000400be00b0fa07000001be000800be0088
:1020600071fc0700026021000a0541001a01780096
:102070009a0190009ffa07000801be009dfa070030
:102080000001be001c0078009c00900099fa070037
:102090006fb19700ffb19700e00f5100e08f59003a
:1020a000030032000004be0009f0a2000100370066
:1020b0000004be000800be004f06be004f05be0073
:1020c0004f04be000080fa00000006000800fa007d
:1020d0000002be008501780003f0a1000001780035
:1020e000a6fd200097f42300860f5100878f59002a
:1020f0000d003e00f4ff2f00f5972300840f5100e0
:10210000858f59005a003e000200200003b82700c6
:1021100081fa0700e0bf9f00f1bf9f000000200090
:1021200001f82300600037004f0ade0005002000a0
:10213000163d2500b7072400860f5100878f5900f0
:1021400019003e0036be2c0067012400860f5100a6
:10215000878f59000a0036000400e00004003200b6
:10216000b2fd2000930424006bfa070048003700fa
:10217000b2fd2000930424005efa070044003700fb
:102180000400e00004003200b2fd200093fc2300b4
:1021900061fa0700430037000001be00b0fd2000d7
:1021a00091fc230019003700561d2300270e240040
:1021b000860f5100878f590016003e00f6dd2e0075
:1021c000f70a2400860f5100878f59000a00360055
:1021d0000400e00004003200b2fd2000930c240053
:1021e0004dfa070022003700b2fd2000930c2400b6
:1021f00040fa07001e0037000400e0000100320032
:1022000001f0a20042be2c006309240039fa070045
:1022100024003700f4ff2f00f5f72700840f51004a
:10222000858f5900030036000001be0031fa070017
:102230001d00370068815700cf0207006011b80009
:1022400063016000e10f5100e08f59000a00320085
:10225000e20f5100e08f59000b003200e00f5100f7
:10226000e08f59000d003a004fb89700dfb8970093
:10227000930207000c0037004fb89700dfb89700b3
:1022800001f0a200070037004fb89700dfb89700b1
:102290008b02070001f0a200030037004fb897003f
:1022a000dfb897000d0307000080fa000000060069
:1022b0000001be008300780001f0a1000200780058
:1022c00000000600000006000400fa00889fbe001f
:1022d0008a9fbe008c9fbe000005be000204be00a7
:1022e000f8ff07000006be008d00780001f0a10095
:1022f0000c0078000200200003f82700820f500035
:10230000838f58001d003e000800be0082bf9f0062
:1023100093bf9f00ebff07008102780005f0a1004a
:10232000000278000fb997009fb99700820f520002
:10233000838f5a0010003e004feade0084027800ce
:102340004f89de0082017800820f5200838f5a008d
:1023500004003200e00f5600e08f5e0006003d00f2
:10236000060037000801be000a00be0087f907001a
:102370000000e000010035000a04be000800be00b5
:102380004f06be004f05be004f04be000080fa009d
:1023900000000600000006000400fa00889fbe004e
:1023a0008a9fbe008c9fbe000005be000204be00d6
:1023b000f8ff07000006be008d00780001f0a100c4
:1023c0000c0078000200200003f82700820f500064
:1023d000838f58001d003e000800be0082bf9f0092
:1023e00093bf9f00ebff07008102780005f0a1007a
:1023f000000278000fb997009fb99700820f520032
:10240000838f5a0010003e004feade0084027800fd
:102410004f89de0082017800820f5200838f5a00bc
:1024200004003200e00f5600e08f5e0007003d0020
:10243000050037000801be000a00be0053f907007e
:102440000000e00001003d000a04be000800be00dc
:102450004f06be004f05be004f04be000080fa00cc
:1024600000000600000006000400fa00889fbe007d
:102470008a9fbe008c9fbe000004be000205be0005
:102480000206410083864900e00f5600e08f5e009f
:10249000140032000200be0082bf9f0093bf9f0065
:1024a000f0ff07008102780005f0a100000278002b
:1024b0000000200001f827000fb997009fb997008e
:1024c000800f5200818f5a0006003e000802be00b5
:1024d000474bde00070020000680fb00e14f430071
:1024e00005003a000800be004ffb07000001be00d7
:1024f0006efa0700090037000801440089814c008a
:102500008c0f51008d8f590006003e0074003a0078
:102510006011b8000800be0043fb07000004be00c5
:102520006f0037000000e00013003a004949dd0069
:10253000c741de00830171004941dd00030037001f
:102540000000e9000201410083814900e00f5100d1
:10255000e08f5900faff3d00e10010000401be00c9
:102560008100e9000300330002014100838149003a
:10257000fbff37000400370085017800f307b20045
:10258000080178000370a000475bde000700200010
:1025900086007800f10fb20012003a00495bdd00be
:1025a000c753de00870373004953dd000300370083
:1025b0008100e9000603430087834b00e00f5300ce
:1025c000e08f5b00faff3d00618310000603e90025
:1025d000030033000a0545008b854d00fbff3700e3
:1025e000100037008b037800f707b2000a03780069
:1025f0000605be000b70a0000a003700e00f530074
:10260000e08f5b0004003500e00f5300e08f5b00bb
:10261000bfff32000601be00020141008381490074
:102620000000e9000a0351008b835900810f50001c
:10263000f2ff3c00e00f5300e08f5b0003003d0021
:10264000090037000601be0007003700e00f530005
:10265000e08f5b00fbff3a00adff37000201410055
:10266000838149000000e900471bde0007002000cd
:10267000e00f5300e08f5b00f8ff32000000e00045
:102680000a0034000600200007f82f000201430072
:1026900083814b00cf80de00c700dd0000002000fa
:1026a0000201700083817000060037006100100095
:1026b0000000e900030033008301d1000281d30050
:1026c000fbff370000002000010028008583600028
:1026d0000003780006017100878171000204be00ca
:1026e0000800be004f06be004f05be004f04be00ee
:1026f0000080fa00000006000400fa00889fbe0077
:102700008a9fbe008c9fbe000004be004708de000a
:10271000f00fb20051092000810f500041003c0031
:102720000806be00e00f5400e08f5c0003003d008f
:102730000805be000bf0a200010037000805be002e
:10274000d1072000810f50000a003c000200200049
:1027500003b024000a00be00eff8070080bf9f000e
:1027600091bf9f006011b8000800be00aefa0700dc
:102770002b0037000200200003b024000a00be0036
:10278000e5f807000200200003b02400d9f8070094
:102790000a01be00d7f807000004be0002002000b6
:1027a00003f023007bf807000000e000070034007e
:1027b0000a01be000800be00d7f807000200200092
:1027c00003f82300cbf807000f00370002002000b9
:1027d00003f02b000800be006cf807000000e000ca
:1027e00006003c000a01be000800be00caf807004f
:1027f0000200200003f82300020037000a01be0097
:102800000800be00c4f80700e00f5600e08f5e002d
:1028100003003d000004be0009f0a20001003700e3
:102820000004be000800be004f06be004f05be00fb
:102830004f04be000080fa00000006000800fa0005
:10284000889fbe000004be000001be008300780027
:1028500001f0a10008007800a4fd200095f42300f9
:10286000840f5000858f580018003e00f2ff2f00a3
:10287000f3972300820f5000838f580011003e0011
:10288000f2ff2f00f3072000820f5000838f5800c3
:1028900005003e0002002000033820000800be00b2
:1028a00061fa0700040037000200200003b8270087
:1028b0000800be0098f80700c0bf9f00d1bf9f006e
:1028c000710037000800be00680037004f49de0085
:1028d00003002000143d2500b5072400840f50009c
:1028e000858f58001f003e0034be2c006501240077
:1028f000840f5000858f58000e003e000200e0005b
:1029000005003200b2fd200093fc23000800be0049
:1029100081f8070059003700b2fd200093fc230026
:102920000800be0073f80700e50007000004be00c1
:10293000550037000200e00005003200b2fd200023
:10294000930424000800be0073f807004600370017
:10295000b2fd2000930424000800be0065f80700c3
:1029600041003700541d2300250e2400840f500021
:10297000858f58001d003e00f4dd2e00f50a24006e
:10298000840f5000858f58000c003e000200e000cc
:102990000500320042be2c00630924000800be007e
:1029a0005df80700e0ff370042be2c0063092400f9
:1029b0000800be004ff80700300037000200e000ba
:1029c00005003200b2fd2000930c24000800be0078
:1029d00051f8070025003700b2fd2000930c2400b9
:1029e0000800be0043f8070020003700f2ff2f0068
:1029f000f3f72700820f5000838f58000400360041
:102a00000801be000800be003af80700c7ff370003
:102a10006c8157000800be00d70007006011b800a5
:102a200063016000e10f5100e08f5900090032009e
:102a3000e20f5100e08f590009003200e00f510011
:102a4000e08f59000b003a002fb89700bfb89700ed
:102a5000060037002fb89700bfb89700b2ff3700c5
:102a60002fb89700bfb8970001f0a2001b01070024
:102a7000aeff37002fb89700bfb89700900007004f
:102a80000004be0009f0a2000800be004f04be0012
:102a90000080fa0000000600889fbe008a9fbe00ea
:102aa0008c9fbe000004be000400200005f8270033
:102ab0008583600004037800840f5300858f5b00da
:102ac00007003a000801be000800be00d6f9070062
:102ad0000001be000800be000ff80700100037001c
:102ae000e00f5000e08f58000f003c00810178009b
:102af00003f0a10000017800e00f5100e08f5900c1
:102b00006a00320010022000d0b088000801be0028
:102b10000800be00f7f707000001be00e3f8070059
:102b20000004be0061003700478cde00cf8cde0061
:102b3000e00f5400e08f5c000f003a006044b800e2
:102b40000400370000004000818048006104440018
:102b5000e0844c0004002000050820008181620010
:102b600004017800e00f5100e08f5900f5ff3200ba
:102b700061041400e0841c00f807b1000980b10072
:102b800081017800f307b200000178000200be0066
:102b90000170a0000808a3000200320000004000fd
:102ba000818048008984d1000884d300000040005f
:102bb00081804800940120000200200003102000c2
:102bc0006055b8006066b8000c0341008d83490071
:102bd000800f5300818f5b0006003c000606410019
:102be0008786490006005000878058000a0541008a
:102bf0008b85490000004000818048008301d1009e
:102c00000281d3000402e900efff3a00e00f500018
:102c1000e08f58001b0032000226240023da200037
:102c20000000200001f82300b2f707000200200096
:102c300003f8230057f707000000e00011003500fb
:102c40000226240023da20000000200001f82300df
:102c5000b1f707000200200003f823004df707003a
:102c60000000e0000300340062054500e0854d00ef
:102c7000040037006000b8006100650000054500f1
:102c800081854d00c744dd000800200000002000c1
:102c900001f0230008044000898448008b85d1009e
:102ca0000a85d3000804450089844d000800be0051
:102cb0004f06be004f05be004f04be0000000600d8
:102cc000889fbe008a9fbe008c9fbe000001be0090
:102cd00055f907000004be000001be0052f90700cc
:102ce0000005be000200200003f02b000800be001b
:102cf0004df907000200200003f8230086f70700c3
:102d00000006be00f2a92a00a3d223000a00be00da
:102d100045f907000001be000c00be007ef7070069
:102d20000006be000801be000a00be003ef9070012
:102d30000005be0072a12900c37c23000800be006c
:102d400039f90700f243200063ab230069f707005d
:102d50000001be000a00be0033f907000001be00fa
:102d60000c00be006cf707004f06be004f05be000a
:102d70004f04be00000006000800fa00889fbe0055
:102d80008a9fbe008c9fbe000005be000204780032
:102d90000001be008300780001f0a1000a00780065
:102da000a2fd200093dc2400820f5000838f580086
:102db0001d003e0032982f0023f223000a00be00bf
:102dc00019f907000200200003b4240052f707009d
:102dd0000200200003b4240046f707000006be00ee
:102de000eef6070080047800a2fd200093fc23008b
:102df0000c00be000cf907000001be000a00be0076
:102e00003cf707000005be00325a28008328230043
:102e10000c00be0004f907000001be000a00be005d
:102e200034f7070026003700f2ff2f00f3f72700e2
:102e3000820f5000838f5800060036000a01be0042
:102e40000a00be002bf70700008cbe008004eb00d8
:102e50001c0037000a00be00500007000005be003d
:102e600032982f0023f22300eff807000200200021
:102e700003f0230028f70700660007000203be00e6
:102e80000002be00e4b79f00f5b79f0086bf9f0019
:102e900097bf9f0087fa070032982f0023f2230084
:102ea00002f807000001be000a00be0011f707008b
:102eb0006000b8002004980031049800efb4970037
:102ec000008cbe00090078004f06be004f05be0012
:102ed0004f04be000080fa0000000600889fbe007c
:102ee0008a9fbe008c9fbe000005be000001be0090
:102ef000cdf807000004be000a01be00caf80700b2
:102f00000006be004288280083c023000800be00df
:102f1000c5f80700b2aa2a00a3e22300f5f60700cd
:102f20000001be000c00be00bff807000001be009b
:102f30000a00be00f8f607000005be000801be004a
:102f40000800be00b8f807000001be000c00be007b
:102f5000b5f807000006be00c2c326006363230065
:102f60000800be00b0f80700f27c200003952300a3
:102f7000e0f607000001be000c00be00aaf8070042
:102f80000001be000a00be00e3f607004f06be00c7
:102f90004f05be004f04be00000006006022b800ce
:102fa0006033b8000002be00f0ff2f00f1ff2f00d9
:102fb000f2ff2f00f3ff2700000062008180620013
:102fc0000201630083816300000006008001780035
:102fd00002003700b15978000201e9000200e00068
:102fe000fcff3a0000000600810178000002780032
:102ff00030417800b14f510002003a000204e00075
:10300000f9ff3a009480fb001380fb000080500021
:10301000000006000003be00a1f607006011b80022
:103020000470a70007f0a1006509b1001b00320081
:1030300012003500860220000628e1000800350055
:10304000f3ff2700f2ff2f006110b9000700e00036
:1030500018003b00030028006000b80002000500d3
:10306000000040008180480002014900838149003e
:103070008502e900faff3a0008003700f88f4200a5
:1030800002003c008000eb00000005008100d10040
:103090000080d3008502e800fcff3a000700e00052
:1030a00004003b0060001000e0801800600119007f
:0830b000e08119000000060098
:020000040000fa
:1030b80061730000736500007276000044690000c7
:1030c80073610000626c000065640000005300003a
:1030d800544f000050000000474f0000000000005f
:020000040000fa
:1030e8000e00fa0030079800410798005207980030
:1030f800630798003e019000ce0190005e009000aa
:10310800ee00900079f60700b2fd2000930c240031
:1031180064f7070076fd07001ef60700000f780029
:103128001e00780000004000cf80de0055f6070042
:10313800b2fd20009304240039f807000001be0006
:103148005e009000ee00900068f6070010079800f7
:10315800210798001e009000ae0090000080fa0041
:10316800000006000000fa006000b800d0ac88003b
:10317800e1ac88006000b800f0ac880001ad8800c0
:103188006000b80010ad880021ad88006000b8006c
:1031980050ad880061ad88006000b80030ad88008f
:1031a80041ad88000000eb0010ae88006000b80058
:1031b80020ae880031ae88006000b80040ae8800bc
:1031c80051ae88006000b80060ae880071ae88001b
:1031d8000080fa00000006002800fa00889fbe0060
:1031e800600f9800710f9800021798001317980045
:1031f8002417980035179800d0ac8000e1ac800007
:103208000001be006e089000fe08900037f6070027
:10321800008fbe00f0ac800001ad80000001be0050
:103228000e1090009e10900030f6070020079800be
:10323800310798001e0178009e0190001e0078005a
:103248009e009000f6f707000004be002e019000d3
:10325800be0190002e009000be009000f0f707001d
:103268000001be000800be0029f6070008fe07009e
:103278004007980051079800000020000100240032
:1032880060079800710798000200200003f02300ef
:103298006e009000fe009000e1f707006e019000bc
:1032a800fe019000def7070002002000030824005a
:1032b800fcf60700000f9800110f980018c0b30023
:1032c8000e0990009e0990004e009000de009000cc
:1032d800acf507000000e000010034000044eb00fa
:1032e8000804e000100032000200200003f0230070
:1032f8004e009000de009000eaf60700e4fd0700ab
:10330800200f9800310f98000200200003f02300de
:103318002e089000be089000c1f7070050ad880045
:1033280061ad88000b0037000e0990009e099000df
:103338004e009000de009000ecf50700400f98006a
:10334800510f98000000200001f0230050ad8800c4
:1033580061ad88004f04be000080fa00000006003e
:103368000800fa00889fbe008a9fbe001081800076
:1033780021818000c6f50700008fbe00e081800033
:10338800f1818000c2f507000001be001e00780030
:103398009e009000d5f50700200798003107980097
:1033a800d8ac8000e9ac80005aad80006bad8000dd
:1033b80010ad800021ad800042fb07000001be0077
:1033c8000a00be0096f707002e019000be0190008b
:1033d80093f707000001be000800be00ccf5070007
:1033e800d0ac8800e1ac8800f8ac800009ad800062
:1033f8005aad80006bad800010ad800021ad80001b
:103408000cfd07000001be000a00be0084f707009b
:103418002e019000be01900081f707000001be0058
:103428000800be00baf50700f0ac880001ad8800be
:103438001e0078009e00900077f50700e081880064
:10344800f18188004f05be004f04be000080fa00dd
:10345800000006000400fa00008fbe0010ae8000d5
:10346800e10f500005003200e10f50000c00390058
:10347800e20f5000050032000a0037001e007800f5
:103488009e00900009000700060037001e00780023
:103498009e009000a3010700000000000100370013
:1034a800000000000080fa00000006001800fa0082
:1034b800889fbe00200f9800310f9800e08180009f
:1034c800f181800072f507000001be002e0890000f
:1034d800be08900085f5070010079800210798009e
:1034e80024ae800035ae8000d0ac8000e1ac800016
:1034f8000001be000400be007cf507000004be0009
:1035080044ae800055ae8000f0ac800001ad800074
:103518000001be000400be0074f507000801be00eb
:1035280050f90700300798004107980010ad800057
:1035380021ad80000001be003e009000ce0090004a
:10354800e7fe07000001be003e009000ce0090009c
:1035580066f50700500798006107980030ad8000b5
:1035680041ad80000001be002df7070002002000d9
:10357800030024004bf6070070079800010f98001d
:103588000000eb00000f7800180020006011b80060
:103598005e009000ee009000fcf407000000e000e0
:1035a80001003c000004eb00180f98005e0090003a
:1035b800ee00900001f0a10018c0b300d2cc2c009e
:1035c800c3d42300eff407000000e0000100350039
:1035d8000044eb000804e000060032002000200050
:1035e80010ae88006000b80030ad880041ad88009a
:1035f800a40037001e0890000000e0001b00320005
:1036080030ad800041ad800018c0b300020020003a
:1036180003f82300dbf407000000e0000100350098
:103628000044eb000804e0000d00320018c0b300ad
:103638007e0190008e0990005e009000ee009000e0
:10364800d2f407000000e00001003c000044eb0059
:103658000804e000020032001000200001003700da
:103668000000eb00000f78001b00370030ad800031
:1036780041ad800018c0b3000200200003f82b0001
:10368800c2f407000000e00001003c000044eb0029
:103698000804e0000e0032005e009000ee0090008a
:1036a80001f0a10018c0b3007e0190008e099000bf
:1036b800b6f407000000e00001003c000044eb0005
:1036c8000804e0000200320010002000010037006a
:1036d8000000eb00000f78001e0078000000e000fa
:1036e8001300320038ad800049ad80001e089000fc
:1036f8000000e000030032000000200001f8230071
:10370800020037000000200001f82b001e01900085
:10371800ae019000c2f607000001be000800be001e
:10372800fbf4070030ad880041ad88003800370051
:103738005e009000ee00900001f0a10018c0b300f8
:103748007e0190008e0990008ef407000000e000d2
:10375800010034000044eb000804e0001a003a00bd
:103768001e0890000000e0000a003a0030ad80001a
:1037780041ad800018c0b3006011b80083f40700a1
:103788000000e00001003c000044eb000804e000f9
:103798000d003a001e0890000000e0001c003200f6
:1037a80030ad800041ad800018c0b3006011b80092
:1037b80074f407000000e000010035000044eb004d
:1037c8000804e0001200320038ad800049ad8000e6
:1037d8001e0890000000e0000300320000002000f6
:1037e80001f82300020037000000200001f82b0038
:1037f8001e019000ae01900089f607000001be008e
:103808000800be00b9f4070030ad880041ad88005b
:1038180030ad800041ad80000200200003f82b008d
:10382800a7fa07000200200003f82300d8fa0700cf
:1038380030ad880041ad880018ad800029ad80000a
:1038480030ad800041ad80001e019000ae019000b7
:1038580073f607000001be000800be00acf40700c4
:1038680010ad880021ad880010ad800021ad80002a
:103878000001be006000b80019fe070010ad880006
:1038880021ad88004f04be000080fa000000060049
:103898003c00fa00889fbe006017980071179800d6
:1038a800021f9800131f9800241f9800351f9800c6
:1038b800461f9800571f98002e199000be199000b7
:1038c8006e109000fe10900088f4070040079800e2
:1038d800510798004e199000de1990000e189000bc
:1038e8009e18900081f407006007980071079800ff
:1038f8002e199000be1990003eb89700ceb89700d8
:103908007af40700000f9800110f98004e199000e4
:10391800de1990001eb89700aeb8970073f4070040
:10392800200f9800310f98000e0990009e09900012
:103938004e009000de00900039f607000004be003b
:103948002e099000be0990006e009000fe009000c5
:1039580033f607000001be000800be006cf4070043
:10396800400f9800510f98000e0990009e09900092
:103978000e0890009e08900029f607000004be007b
:103988002e099000be0990002e089000be089000f5
:1039980023f607000001be000800be005cf4070023
:1039a800600f9800710f98006e099000fe09900052
:1039b8004e089000de0890003af5070000179800be
:1039c8001117980018c0b3006011b8000e109000cd
:1039d8009e109000ebf307000000e00001003500a6
:1039e8000044eb000804e000080032002e199000a3
:1039f800be199000028fbe004e199000de1990008b
:103a080022079800330798002600370018c0b30033
:103a18000200200003f823000e1090009e10900072
:103a2800daf307000000e00001003c000044eb006e
:103a38000804e000080032003eb99700ceb99700ac
:103a4800028fbe001eb99700aeb9970022079800f2
:103a580033079800130037000e0990009e09900064
:103a68000e1090009e109000edf507002e199000a2
:103a7800be19900026f40700008fbe002e099000a2
:103a8800be0990000e1090009e109000e4f507000b
:103a98004e199000de1990001df4070020079800c9
:103aa800310798001e0178009e0190006e1090006a
:103ab800fe1090000df407002017980031179800a9
:103ac8002e019000be0190000e1890009e189000e4
:103ad80006f4070040179800511798002e1190001f
:103ae800be1190002e109000be109000ccf507007b
:103af8000004be004e119000de1190004e109000a0
:103b0800de109000c6f507000001be000800be00e8
:103b1800fff30700defb07004f04be000080fa0039
:103b2800000006001400fa00889fbe008a9fbe00ad
:103b3800000f9800110f9800e0818000f18180004b
:103b4800d3f307000001be000e0890009e08900005
:103b5800e6f30700008fbe00d8ac8000e9ac800017
:103b680010ad800021ad800056f907000001be00ad
:103b78000800be00e6f30700200798003107980008
:103b8800f8ac800009ad800010ad800021ad800048
:103b980028fb07000001be000800be00dcf3070098
:103ba8004007980051079800f4ac800005ad8000ec
:103bb800d2ac8000e3ac800040ae800051ae800003
:103bc80028ae800039ae80004e039000de039000de
:103bd800869fbe002e039000be039000869fbe0005
:103be8000403be000202be000001be000800be00c1
:103bf80027ff0700e88757006007980071079800bb
:103c080018c0b300a2702d0033c223006e009000cc
:103c1800fe0090005bf307000000e00001003500a3
:103c28000044eb000804e000060032000000eb004e
:103c380010ae88006000b80050ad880061ad880003
:103c4800340037001e0178009e0190006e0090003d
:103c5800fe00900093f407000001be000000200061
:103c680001f02300caf9070050ad880061ad880053
:103c7800d8ac8000e9ac80005aad80006bad800004
:103c880010ad800021ad80000ef907000001be00d4
:103c98000a00be0062f507001e0178009e01900030
:103ca8005ff507000001be000800be0098f307009a
:103cb800d0ac8800e1ac8800f8ac800009ad800089
:103cc8005aad80006bad800010ad800021ad800042
:103cd800d8fa07000001be000a00be0050f5070030
:103ce8001e0178009e0190004df507000001be00fe
:103cf8000800be0086f30700f0ac880001ad88001c
:103d08000e0890009e08900043f30700e0818800a9
:103d1800f18188004f05be004f04be000080fa0004
:103d2800000006001c00fa00889fbe008a9fbe00a3
:103d38008c1f7800340c0700ba0b070048060700f0
:103d480060060700eb0607008c080700250b070034
:103d5800f90b0700660707006e0707000000200040
:103d680001002400b0a28800c1a288000000eb0076
:103d7800b0a8880010002000c0a888000000eb0050
:103d8800000f780005003700e00a0700404f980050
:103d98004e489000440307001e0fe800f80a070089
:103da8009e0f5000f8ff3c00b0a880000000e00023
:103db800070032000041eb006000b8008b080700e4
:103dc80012c0b3006000b80088080700ebff370096
:103dd800c0a88000e10f500030023a00470b0700ee
:103de8003e0b0700700798007e00900068004000b6
:103df800100078008000eb0025f307003233230021
:103e08003305240006f507000200200003582400ab
:103e180024f40700d2cc2c00c304240000f50700ca
:103e2800000f9800110f98000e0990009e0990004d
:103e380000002000812024001af40700020020005e
:103e4800030a240029f3070010a3880021a388008f
:103e58007e00900064004000100078008000eb00b5
:103e68000bf307003233230033052400ecf407007a
:103e780002002000035824000af40700d2cc2c00ca
:103e8800c3042400e6f40700000f9800110f9800ff
:103e98000e0990009e099000000020008120240057
:103ea80000f4070002002000030a24000ff30700b3
:103eb800f0a2880001a388007e0090000080e8003e
:103ec800100078008000eb00f1f207003233230085
:103ed80033052400d2f40700020020000358240010
:103ee800f0f30700d2cc2c00c3042400ccf4070064
:103ef800000f9800110f98000e0990009e0990007d
:103f08000000200081202400e6f3070002002000c2
:103f1800030a2400f5f20700d0a28800e1a2880075
:103f28007e00900066004000100078008000eb00e2
:103f3800d7f207003233230033052400b8f4070012
:103f48000200200003582400d6f30700d2cc2c002e
:103f5800c3042400b2f40700000f9800110f980062
:103f68000e0990009e099000000020008120240086
:103f7800ccf3070002002000030a2400dbf207004c
:103f880050a3880061a388007e009000100078008c
:103f98008000eb00bef20700323323003305240013
:103fa8009ff407000200200003582400bdf3070017
:103fb800d2cc2c00c304240099f40700000f980009
:103fc800110f98000e0990009e0990000000200033
:103fd80081202400b3f3070002002000030a240014
:103fe800c2f2070030a3880041a3880030a38000f4
:103ff80041a3800088f2070080457800d0a28000a5
:10400800e1a2800084f2070000457800f0a2800059
:1040180001a3800080f207008044780010a380008c
:1040280021a380007cf207000044780050a38000a0
:1040380061a3800078f20700004078004b57980091
:104048005a5798006957980078579800005f980069
:10405800d08080000000e0000400320064cea80098
:1040680064eea900254ea8008001370064cea9009f
:1040780064eea800254ea90000002000011f2400be
:10408800100798002107980000002000011f240055
:10409800300798004107980010002000500798004a
:1040a80030a3800041a3800018c0b30002002000a4
:1040b8004323240033f207000000e000010034002d
:1040c8000044eb000804e000460032000000eb006a
:1040d8005007980030a3800041a3800018c0b300a7
:1040e800020020000312240026f207000000e0006e
:1040f800010034000044eb000804e0001d00320019
:1041080030a3800041a38000d2d5260053ee2b00b7
:1041180043f4070052842d00b31124007cf20700f9
:104128000001be001e009000ae00900078f207006b
:10413800100798002107980030a3800041a3800051
:10414800d2d5260053ee2b0035f4070052842d00fb
:10415800b31124006ef207000001be003e0090007b
:10416800ce00900061f207003007980041079800e0
:104178001c00370030a3800041a38000e27a2400ad
:1041880013d62b0026f4070002002000030a24009f
:104198005ff207000001be001e009000ae00900014
:1041a8005bf20700100798002107980030a38000f1
:1041b80041a38000e27a240013d62b0018f40700ec
:1041c80002002000030a240051f207000001be008b
:1041d8003e009000ce00900044f20700300798009f
:1041e80041079800d0a28000e1a2800018c0b30067
:1041f8000200200043232400e2f107000000e00051
:10420800010034000044eb000804e0001e00320006
:104218000000eb0050079800d0a28000e1a28000c7
:10422800a299290093d92b00fdf307000200200072
:10423800030a240036f207000001be001e009000a9
:10424800ae00900032f2070010079800210798008e
:10425800d0a28000e1a28000a299290093d92b0066
:10426800eff3070002002000030a240028f20700e9
:104278000001be003e009000ce0090001bf2070037
:104288003007980041079800f0a2800001a3800041
:1042980018c0b3000200200003222400b9f107006f
:1042a8000000e000010034000044eb000804e000d6
:1042b800600032000000eb0050079800f0a2800078
:1042c80001a380000200200003fa2b00d4f30700aa
:1042d80002002000a32224000df207000004be0003
:1042e80034a3800045a38000d0a28000e1a2800012
:1042f8000001be000400be0005f207000005be0074
:1043080054a3800065a3800010a3800021a380002f
:104318000001be000400be00fdf107001cc0b30090
:104328000001be000a00be0098f107000000e0008e
:1043380001003c000046eb000c04e00003003200e2
:1043480000002000011224000200370000002000b5
:1043580001122c000001be000800be00ecf10700ad
:104368000001be001e009000ae009000dff10700c3
:104378001007980021079800f0a2800001a3800090
:104388000200200003fa2b00a5f30700020020001a
:10439800a3222400def107000004be0034a380003d
:1043a80045a38000d0a28000e1a280000001be00e9
:1043b8000400be00d6f107000005be0054a380002b
:1043c80065a3800010a3800021a380000001be0027
:1043d8000400be00cef107001cc0b3000001be00ff
:1043e8000a00be0069f107000000e00001003c007f
:1043f8000046eb000c04e00003003200000020003f
:1044080001122c00020037000000200001122400d5
:104418000001be000800be00bdf107000001be009b
:104428003e009000ce009000b0f1070030079800e1
:104438004107980010a3800021a3800018c0b30092
:1044480002002000432324004ef107000000e00092
:10445800010034000044eb000804e0001e003200b4
:104468000000eb005007980010a3800021a38000f3
:10447800a299290093d92b0069f3070002002000b4
:10448800030a2400a2f107000001be001e009000ec
:10449800ae00900095f107001007980021079800da
:1044a80010a3800021a38000a299290093d92b0092
:1044b8005bf3070002002000030a240094f10700c0
:1044c8000001be003e009000ce00900090f1070071
:1044d800300798004107980050a3800061a380002e
:1044e80018c0b300020020004323240025f1070070
:1044f8000000e000010034000044eb000804e00084
:10450800460032000000eb005007980050a38000de
:1045180061a3800018c0b300020020000312240029
:1045280018f107000000e000010034000044eb002f
:104538000804e0001d00320050a3800061a3800041
:10454800d2d5260053ee2b0035f3070052842d00f8
:10455800b31124006ef107000001be001e00900098
:10456800ae00900061f1070010079800210798003d
:1045780050a3800061a38000d2d5260053ee2b0003
:1045880027f3070052842d00b311240060f10700bf
:104598000001be003e009000ce0090005cf10700d4
:1045a80030079800410798001c00370050a380008e
:1045b80061a38000e27a240013d62b0018f30700c9
:1045c80002002000030a240051f107000001be0088
:1045d8001e009000ae00900044f1070010079800fc
:1045e8002107980050a3800061a38000e27a24008c
:1045f80013d62b000af3070002002000030a240048
:1046080043f107000001be003e009000ce0090007c
:104618003ff1070030079800410798005e009000be
:104628000000e000090032000041eb00000020001b
:10463800011c24006d06070012c0b3000000200012
:10464800011c240069060700080037000041eb0040
:104658001e009000ae0090006406070012c0b30070
:104668003e009000ce0090006006070030a2800057
:1046780041a28000c7f0070000407800004478009d
:1046880070a2800081a28000c2f00700004078007c
:10469800185f9800205f9800b8fd370018d0bf0059
:1046a8000080fb00ea0f500070003200ea0f500053
:1046b80005003c00e20f500048003200e80f5000af
:1046c8005e00320075003700ec0f50000300320026
:1046d800ee0f50004d003200700037000041eb0033
:1046e8006000b8004106070012c0b3006000b800bf
:1046f8003e0607001281800023818000e080800050
:10470800f18080000001510081815900b012200021
:1047180001002000800f5100818f59002e003600c3
:104728001081800021818000e0808800f18088006d
:1047380000818000e10f50000e003200e10f5000b0
:1047480003003c000000e0000600320015003700be
:10475800e20f50000b003200e30f50000d00320052
:104768001000370064cea80064eea900254ea90009
:104778000e00370064cea90064eea800254ea900fb
:104788000a00370064cea90064eea900254ea800ef
:104798000600370064cea90064eea800254ea900e3
:1047a800020037002030ef00000000000081800088
:1047b8008000e80030002800008060000000e00071
:1047c80004003d000000e900c1ff2f0000807000d8
:1047d8000000e800008188003300370012c0b300f1
:1047e80000002000011a2400000607000041eb0029
:1047f80000002000011a2400fc05070064cea80070
:1048080064eea800254ea8002700370012c0b300a8
:1048180000002000011a2c00f40507000041eb00fd
:1048280000002000011a2c00f005070064cea90042
:1048380064eea900254ea9001b00370012c0b30082
:104848000000200001172400e80507000041eb00e4
:104858000000200001172c00e405070064cea80022
:1048680064eea900254ea9000f00370012c0b3005e
:104878000000200001172c00dc0507000041eb00b8
:104888000000200001172400d805070064cea90005
:1048980064eea900254ea80003003700c0c0b3008d
:1048a80018f0b7000000000034fd37000a00fa00d5
:1048b800200798003107980042079800e0cfb3001e
:1048c800004f78002e0090004880de0000407800fd
:1048d8001e4f68002e009000004078001e4f6800b0
:1048e8003e0090004880de00004078001e4f6800bf
:1048f8003e009000004078001e4f68000000eb006a
:1049080010079800080037001e009000ce009000a5
:1049180000804000104078001e4f68001e00900084
:104928000000e800100798009e0090003e009000ec
:10493800808f5000f4ff35001e4078000080fa0098
:10494800000006000e00fa00889fbe00400798008d
:1049580051079800620798000f0478000f0078004c
:10496800800478005e009000660040008000e90046
:10497800210798000000e8000000e8000000d100ce
:10498800800040000f007800818747000000e800a1
:104998000000d10000004000300798000000eb0044
:1049a800000f78003e0090001e004000e1cfb300e9
:1049b800014878001e0fe8004e0090004880de0095
:1049c800804078003e0090001e00400001487800ba
:1049d8001e0fe8004e009000804078003e009000d6
:1049e8001e004000014878001e0fe8005e0090009d
:1049f8004880de00804078003e0090001e004000a5
:104a0800014878001e0fe8005e00900080407800a2
:104a18003e0090001e004000014878001e0fe8008c
:104a28000000eb00100798000b0037001e009000f4
:104a3800ee00900000804000904078003e0090001a
:104a48001e004000014878001e0fe8001e0090007c
:104a58000000e800100798009e0090005e0090009b
:104a6800808f5000f1ff35006e019000de0090004d
:104a78004e0090008dff0700be0090009e80400011
:104a8800804878001e0fe8003e0090009e007800e5
:104a98001e07070089077800880778004f04be00c2
:104aa8000080fa00000006000200fa00004f7800bb
:104ab80080818000e30f500026003200e30f500091
:104ac80007003c00e10f500015003200e10f5000d4
:104ad80019003c000000e0000800320043003700e5
:104ae800e50f500028003200e50f50001f00350088
:104af800e60f5000310032003c0037001e407800bd
:104b0800e24f400002003a00100020008081880037
:104b18002c30ef002e30ef002a30ef00370037003e
:104b28001e80fb004800dd00508188002000200026
:104b380080818800310037009e80fb005081800012
:104b480001007000508188003000200080818800ba
:104b58002a0037001e80fb004800dd0060818800c5
:104b68004000200080818800240037009e80fb00e0
:104b78006081800001007000608188005000200082
:104b8800808188001d00370070818000a1512100bc
:104b9800808040009e4878000000e800708188000e
:104ba8007181800060818000808f500012003a007f
:104bb800600020008081880010003700618180003b
:104bc80050818000a251210038ff07009e4f5000fd
:104bd80004003a006181800050818000a2512100c8
:104be800080007003030ef00040037003030ef00d5
:104bf8000000000001003700000000000080fa00fb
:104c0800000006000600fa00889fbe008a9fbe00ca
:104c1800000f780011079800220798001e007800fe
:104c280041072000810f5000830032004107200017
:104c3800810f50000a003c0011052000810f500030
:104c48004100320021052000810f5000420032004f
:104c580001022000810f50000b00320000013700d4
:104c680061072000810f50006e00320061072000ac
:104c7800810f50006600350001082000810f5000a8
:104c880047003200f60037002e00900010407800f0
:104c98000004e0000c003a002e0090000000e8003c
:104ca80010407800614060000080fb0061006000f7
:104cb8004600dd00217380000160a1000100700042
:104cc80020738800e60037002e009000104078001e
:104cd800e14f50000c003a002e0090000000e80060
:104ce80010407800614060000080fb0061006000b7
:104cf8004700dd00217380000170a10001007000f1
:104d080020738800d60037002e00900010407800ed
:104d1800e24f5000c9003a002e0090000000e80061
:104d280010407800614060000080fb006100600076
:104d38004a00dd002171800001a0a100010070007f
:104d480020718800c60037002e00900010407800bf
:104d580018f0b700c20037002e009000104078000d
:104d68000080fb00c0a888002e009000104078004a
:104d7800e14f500003003a0010002000c0a888004e
:104d8800b70037002e009000104078000004e000c3
:104d9800ac003a000000eb00c0a88800b000370063
:104da8001e009000ae009000008040008040eb00a4
:104db800014878002e009000c185290088f8070076
:104dc8000000e00002003a001a30ef00a4003700ab
:104dd8002e009000b186290081f807000000e0004d
:104de80003003a0010002000b0a888009c0037009b
:104df8002e0090000187290079f807000000e000e4
:104e080092003a000000eb00b0a888009400370038
:104e180042002000ae0090006049210069f80700b8
:104e28008f00370042002000ae009000a04921000a
:104e380064f807008a0037001e009000f90f500040
:104e480084003a0010002000d08088002e009000d6
:104e5800104078000004e0003a003a002e0090006c
:104e68000000e8004200200080007800e0492100ae
:104e780054f807002e009000650040004200200012
:104e880080007800204a21004ef807002e0090008c
:104e9800690040004200200080007800604a21003c
:104ea80048f807002e0090006d00400042002000e6
:104eb80080007800e04b210042f807002e009000a7
:104ec800710040004200200080007800204c210042
:104ed8003cf807002e0090007500400042002000ba
:104ee80080007800604c210036f807003aa6800060
:104ef8004ba6800018a6800029a68000f6a5800091
:104f080007a6800034a5800045a5800012a5800072
:104f180023a58000f0a4800001a580008a9fbe0020
:104f2800889fbe00869fbe000403be000202be002a
:104f38000001be00e04921004d000700ec87570042
:104f4800470037002e00900010407800e14f5000d5
:104f580042003a002e0090000000e80042002000c5
:104f680080007800604d210016f807002e009000a0
:104f7800650040004200200080007800a04d21001c
:104f880010f807002e009000690040004200200041
:104f980080007800e04d21000af807002e009000fc
:104fa8006d0040004200200080007800604f210022
:104fb80004f807002e009000710040004200200015
:104fc80080007800a04f2100fef707002e00900017
:104fd800750040004200200080007800e04f21006a
:104fe800f8f70700faa780000ba88000d8a7800070
:104ff800e9a78000b6a78000c7a78000f4a68000b4
:1050080005a78000d2a68000e3a68000b0a6800095
:10501800c1a680008a9fbe00889fbe00869fbe00f2
:105028000403be000202be000001be00604d210064
:105038000f000700ec875700090037000000000048
:1050480007003700000000000500370000000000de
:1050580003003700000000000100370000000000d6
:105068004f05be004f04be000080fa000000060095
:105078000e00fa00000f7800120798002307980026
:105088003407980045079800560798006707980066
:105098001e0078001e019000ae0190000288be003c
:1050a8001e0078003eb99700ceb99700021098000c
:1050b800131098001e0078003e019000ce01900069
:1050c80022009800330098001e0078001eb997004f
:1050d800aeb9970022109800331098001e0078008f
:1050e8005e019000ee019000420098005300980085
:1050f8001e0078007eb197008eb997004210980084
:10510800531098000080fa00000006000a00fa0018
:10511800889fbe0020079800320798004307980030
:105128002e0090003e019000ce0190006200980091
:10513800730098002e0090000012900090129000ca
:105148002e00900090009000100078000001be0032
:105158000400be0053ef07000004be002e009000bc
:1051680090109000001090000002be0005f0a20010
:105178002e00900090009000100078000001be0002
:105188000400be0047ef07000802be000001be0091
:105198003e009000ce009000b60407002e0190005b
:1051a80020099800310998002e009000100278001c
:1051b800900290002e009000b00890002008900007
:1051c8000001be000400be0015f007002e0190008b
:1051d80060119800711198002e009000400c90000a
:1051e800d00c900002002000a33724003e0090005d
:1051f800ce0090002bef07000001be000800be00a3
:1052080043ee07002e0190004009980051099800cc
:105218002e00900020129000b01290002e009000f6
:10522800b0009000200090000001be000400be0005
:105238001cef07000004be002e009000b010900084
:10524800201090000002be0005f0a2002e00900081
:10525800b0009000200090000001be000400be00d5
:1052680010ef07002e019000420b9000d20b900027
:105278000802be000001be000600be007d04070053
:105288002e01900040099800510998002e009000c6
:1052980020029000b00290002e009000d0089000ec
:1052a800400890000001be000400be00dcef0700cb
:1052b8002e01900000199800111998002e009000f6
:1052c80090089000000890000001be003e00900089
:1052d800ce00900005ee070002002000a33724004e
:1052e800cfef07002e01900060099800710998001f
:1052f8002e00900040129000d01290002e009000d6
:10530800d0009000400090000001be000400be00e4
:10531800e4ee07000004be002e009000d0109000bc
:10532800401090000002be0005f0a2002e00900080
:10533800d0009000400090000001be000400be00b4
:10534800d8ee07002e019000620b9000f20b90003f
:105358000802be000001be000600be0045040700aa
:10536800008fbe002e0090003e019000ce019000fc
:1053780002089800130898002e009000d0009000b2
:10538800400090001e0178009e019000a4ef0700e5
:105398002e01900020199800311998002e009000d5
:1053a80060129000f01290002e009000901890006b
:1053b800001890000001be000400be00d4ed0700f4
:1053c8000002be002e009000b01890002018900037
:1053d8000001be000400be00cded07004f04be0072
:1053e8000080fa00000006000000fa00b4a4800063
:1053f800c5a48000b0a38000c1a380000001be0046
:105408000400be00b9ed070050a5880061a588001a
:10541800d4a48000e5a48000d0a38000e1a380008c
:105428000001be000400be00b0ed070010a7880010
:1054380021a7880050a5800061a580000001be005a
:10544800e049210031ff070070a8880081a8880082
:1054580010a7800021a780000001be00604d210038
:105468002aff070090a88800a1a8880090a88000bb
:10547800a1a8800074a8800085a880000001be0053
:105488000400be008e0307000080fa00000006003a
:105498002600fa001017980041679800ce60900027
:1054a800014f7800b0a48000c1a480000001be00b4
:1054b800110020000e00780048040700d0a48000e6
:1054c800e1a480000001be00510020000e00780019
:1054d800420407001e109000f00090006000900049
:1054e8000001be00910020000e0078003b04070078
:1054f8001e109000f0109000601090000001be0097
:10550800d10020000e007800340407001e1090001f
:1055180090189000001890000001be0011012000b2
:105528000e0078002d0407001e109000b01890009f
:10553800201890000001be00510120000e007800e4
:105548002604070070a8800081a880000001be0022
:10555800910120000e0078002004070090a8800028
:10556800a1a880000001be00d10120000e00780033
:105578001a0407000e01780011022000000720001d
:10558800f0fc07000080fa00000006001e00fa0088
:10559800500f9800415f9800ce589000014f780056
:1055a8005e08900090009000100078000001be0096
:1055b800110020000e007800080407005e08900023
:1055c800b0009000200090000001be0051002000b3
:1055d8000e007800010407005e089000d0009000db
:1055e800400090000001be00910020000e007800ed
:1055f800fa0307005e0890009010900000109000d9
:105608000001be00d10020000e007800f30307005f
:105618005e089000b0109000201090000001be00bd
:10562800110120000e007800ec0307005e089000ce
:10563800d0109000401090000001be0051012000e1
:105648000e007800e50307000e01780091012000a4
:1056580020072000bbfc07000080fa0000000600bd
:105668000000fa0013e1a90011e1a9001061a800e7
:105678001021a90081088000f0fc2f000080600044
:10568800800888000a21ef000621ef00202620006c
