:020000040000fa
:080000000002040000000000f2
:020000040000fa
:0400080002040000ee
:020000040000fa
:04000c0002040000ea
:020000040000fa
:0400100002040000e6
:020000040000fa
:0400140002040000e2
:020000040000fa
:0400180002040000de
:020000040000fa
:04001c0002040000da
:020000040000fa
:0400200002040000d6
:020000040000fa
:0400240002040000d2
:020000040000fa
:0400280002040000ce
:020000040000fa
:04002c0002040000ca
:020000040000fa
:0400300002040000c6
:020000040000fa
:0400340002030000c3
:020000040000fa
:0400380002040000be
:020000040000fa
:04003c0002040000ba
:020000040000fa
:0400400002040000b6
:020000040000fa
:0400440002040000b2
:020000040000fa
:04004800fa020000b8
:020000040000fa
:04004c0002040000aa
:020000040000fa
:0400500002040000a6
:020000040000fa
:04005400be030000e7
:020000040000fa
:04005800940300000d
:020000040000fa
:04005c005e0300003f
:020000040000fa
:040060000204000096
:020000040000fa
:040064000204000092
:020000040000fa
:04006800020400008e
:020000040000fa
:04006c00020400008a
:020000040000fa
:040070000204000086
:020000040000fa
:040074000204000082
:020000040000fa
:04007800020400007e
:020000040000fa
:04007c00020400007a
:020000040000fa
:040080000204000076
:020000040000fa
:040084000204000072
:020000040000fa
:04008800020400006e
:020000040000fa
:04008c00020400006a
:020000040000fa
:040090000204000066
:020000040000fa
:040094003203000033
:020000040000fa
:04009800020400005e
:020000040000fa
:04009c00020400005a
:020000040000fa
:0400a0000204000056
:020000040000fa
:0400a4000204000052
:020000040000fa
:0400a800020400004e
:020000040000fa
:0400ac00020400004a
:020000040000fa
:0400b0000204000046
:020000040000fa
:0400b4000204000042
:020000040000fa
:0400b800020400003e
:020000040000fa
:0400bc00020400003a
:020000040000fa
:0400c0000204000036
:020000040000fa
:0400c4000204000032
:020000040000fa
:0400c800020400002e
:020000040000fa
:0400cc00020400002a
:020000040000fa
:0400d0000204000026
:020000040000fa
:0400d4000204000022
:020000040000fa
:0400d800020400001e
:020000040000fa
:0400dc00020400001a
:020000040000fa
:0400e0000204000016
:020000040000fa
:0400e4000204000012
:020000040000fa
:0400e800020400000e
:020000040000fa
:0400ec00020400000a
:020000040000fa
:0400f0000204000006
:020000040000fa
:0400f4000204000002
:020000040000fa
:0400f80002040000fe
:020000040000fa
:0400fc0002040000fa
:020000040000fa
:0401000002040000f5
:020000040000fa
:0401040002040000f1
:020000040000fa
:0401080002040000ed
:020000040000fa
:04010c0002040000e9
:020000040000fa
:0401100002040000e5
:020000040000fa
:0401140002040000e1
:020000040000fa
:0401180002040000dd
:020000040000fa
:04011c0002040000d9
:020000040000fa
:0401200002040000d5
:020000040000fa
:0401240002040000d1
:020000040000fa
:0401280002040000cd
:020000040000fa
:04012c0002040000c9
:020000040000fa
:0401300002040000c5
:020000040000fa
:0401340002040000c1
:020000040000fa
:0401380002040000bd
:020000040000fa
:04013c0002040000b9
:020000040000fa
:0401400002040000b5
:020000040000fa
:0401440002040000b1
:020000040000fa
:0401480002040000ad
:020000040000fa
:04014c0002040000a9
:020000040000fa
:0401500002040000a5
:020000040000fa
:0401540002040000a1
:020000040000fa
:04015800020400009d
:020000040000fa
:04015c000204000099
:020000040000fa
:040160000204000095
:020000040000fa
:040164000204000091
:020000040000fa
:04016800020400008d
:020000040000fa
:04016c000204000089
:020000040000fa
:040170000204000085
:020000040000fa
:040174000204000081
:020000040000fa
:04017800020400007d
:020000040000fa
:04017c000204000079
:020000040000fa
:040180000204000075
:020000040000fa
:040184000204000071
:020000040000fa
:04018800020400006d
:020000040000fa
:04018c000204000069
:020000040000fa
:040190000204000065
:020000040000fa
:040194000204000061
:020000040000fa
:04019800020400005d
:020000040000fa
:04019c000204000059
:020000040000fa
:0401a0000204000055
:020000040000fa
:0401a4000204000051
:020000040000fa
:0401a800020400004d
:020000040000fa
:0401ac000204000049
:020000040000fa
:0401b0000204000045
:020000040000fa
:0401b4000204000041
:020000040000fa
:0401b800020400003d
:020000040000fa
:0401bc000204000039
:020000040000fa
:0401c0000204000035
:020000040000fa
:0401c4000204000031
:020000040000fa
:0401c800020400002d
:020000040000fa
:0401cc000204000029
:020000040000fa
:0401d0000204000025
:020000040000fa
:0401d4000204000021
:020000040000fa
:0401d800020400001d
:020000040000fa
:0401dc000204000019
:020000040000fa
:0401e0000204000015
:020000040000fa
:0401e4000204000011
:020000040000fa
:0401e800020400000d
:020000040000fa
:0401ec000204000009
:020000040000fa
:0401f0000204000005
:020000040000fa
:0401f4000204000001
:020000040000fa
:0401f80002040000fd
:020000040000fa
:0401fc0002040000f9
:020000040000fa
:0402000002040000f4
:020000040000fa
:0402040002040000f0
:020000040000fa
:0402080002040000ec
:020000040000fa
:04020c0002040000e8
:020000040000fa
:0402100002040000e4
:020000040000fa
:0402140002040000e0
:020000040000fa
:0402180002040000dc
:020000040000fa
:04021c0002040000d8
:020000040000fa
:0402200002040000d4
:020000040000fa
:0402240002040000d0
:020000040000fa
:0402280002040000cc
:020000040000fa
:04022c0002040000c8
:020000040000fa
:0402300002040000c4
:020000040000fa
:0402340002040000c0
:020000040000fa
:0402380002040000bc
:020000040000fa
:04023c0002040000b8
:020000040000fa
:0402400002040000b4
:020000040000fa
:0402440002040000b0
:020000040000fa
:0402480002040000ac
:020000040000fa
:04024c0002040000a8
:020000040000fa
:0402500002040000a4
:020000040000fa
:0402540002040000a0
:020000040000fa
:04025800020400009c
:020000040000fa
:04025c000204000098
:020000040000fa
:040260000204000094
:020000040000fa
:040264000204000090
:020000040000fa
:04026800020400008c
:020000040000fa
:04026c000204000088
:020000040000fa
:040270000204000084
:020000040000fa
:040274000204000080
:020000040000fa
:04027800020400007c
:020000040000fa
:04027c000204000078
:020000040000fa
:040280000204000074
:020000040000fa
:100400002f3421000eff2c000e0188000000000098
:10041000000020000000e000020032000001200087
:100420002002880014000700f80007000000e00028
:1004300003003a00a09e22000100200002003700c5
:100440000000200001002000810f70000100320038
:100450000f000700000020000000e0000200320052
:1004600000000200000000008028020000000000e0
:100470000040da000000fe00200020000000e00044
:1004800002003200100020009001880000000600e9
:10049000a1028800800478000000eb001f003700f4
:1004a000e284440054a0b4009905ba00e2844400f8
:1004b00054a0b4009906ba00e284440054a0b400e9
:1004c0000006eb00476fde00fd07b200ae018800ba
:1004d000636ce10003003a000ad801000000eb0061
:1004e0000e003700606ce10008003a00004deb00a0
:1004f0000a05e800020039003420ec000af0a000f0
:100500008b05e900f9ff3e00040037006168e10057
:10051000010032000086eb000b00070019c7ba008b
:100520000e04e0001905ba0003003a000a00e000da
:10053000dbff3a0000000600fe07b200ae028800b2
:100540008a047800f5ff37000cd0a300e20f4d00bd
:100550001c003b0089027800354dba000a05e8000e
:10056000020039003420ec000af0a0008b05e900fd
:100570000f003200254dba000a05e80002003900dc
:100580003420ec000af0a0008b05e90008003200de
:100590000c00e0000600320015cdba000a05e800a4
:1005a000020039003420ec000af0a0008b05e900bd
:1005b0008984e80054a0b4000b00e000e2ff3a0098
:1005c000000006009902ba00055d78008b05e9007d
:1005d000f7ff3200c82ade00055d78008b05e900d0
:1005e000f3ff32000c00e000f1ff320019ddba0029
:1005f000eeff37000000fa000108a9000080fa00b1
:10060000004006003600f800809fbe00829fbe00ba
:10061000849fbe00869fbe000000fa000068a9000b
:1006200099140700508180000000e8005081880084
:1006300050818000f90f500002003a007e0f070041
:100640002a30ef00940e07000080fa004f03be002e
:100650004f02be004f01be004f00be003600f90041
:10066000004006003600f800809fbe00829fbe005a
:10067000849fbe00869fbe000000fa000368a900a8
:10068000f41107003c0b070030818000418180009d
:1006900061004000e080480030818800418188008e
:1006a0000080fa004f03be004f02be004f01be00a3
:1006b0004f00be003600f90000400600809fbe00db
:1006c0000000fa0001a8a90001188000a001210083
:1006d0000108780011188000a00121000080e800c6
:1006e0000108780021188000a0012100640040006a
:1006f0000108780041188000a00121006600400038
:100700000108780031188000a00121006800400035
:100710000108780010c0b30022f0b7000080fa0092
:100720004f00be00004006003600f800809fbe006b
:10073000829fbe00849fbe00869fbe000000fa001c
:100740000188a900f1818000e0818000808f500045
:1007500002003200f0130700010037004070ef0084
:100760000080fa004f03be004f02be004f01be00e2
:100770004f00be003600f900004006003600f800c9
:10078000809fbe00829fbe00849fbe00869fbe00e9
:100790000000fa000168a9001011800064006000e8
:1007a0000000e000010032002242a9001011800088
:1007b000620060000000e000060032002222a90072
:1007c00005003700301180000040780083140700d6
:1007d000010037000000000010118000610060007f
:1007e0000000e000f7ff3a000080fa004f03be006f
:1007f0004f02be004f01be004f00be003600f900a0
:10080000004006000040da000000fe000000050085
:1008100014002000ad033700f4ff2f00ab033700b6
:100820000001be003f0007000470a70003f0a10014
:100830006509b100160032000d0035006828e1009e
:1008400006003500f0ff2f00f1ff27000300e00055
:1008500013003b00010028000000050000004000dc
:10086000818048008502e900fcff3a00080037005b
:10087000f88f420002003c008000eb000000050001
:100880008100d1000080d3008502e800fcff3a001f
:100890000300e00002003b0060001000e080180050
:1008a000000006000001be001e0007000470a70043
:1008b00003f0a10003f8a30013003a006509b1009a
:1008c00010003200090035006928e10002003500ff
:1008d0000100280000000500000040008180480061
:1008e0008502e900fcff3a0000000600f88f420094
:1008f000050035008100d1000080d3008502e800aa
:10090000fcff3a00000006008000eb00000005003c
:100910004f89de0082017800870337006011b8003c
:1009200095033700c70ade00f107b200f50fb200e9
:1009300008003200e1cf4200020032000170a00046
:1009400024000500810f700001003200040805003a
:1009500044000500810f700002003a0014000500f9
:100960008502e9000000400081c04800fcff3b0018
:100970000170a0002400050007f82700078361002c
:100980000638e10004003a00f70720008783610081
:100990008703710001003a0003f0a200889fbe00a7
:1009a0008a9fbe008c9fbe00470ade000480a10023
:1009b000c71ade000580a100070028000785600037
:1009c00087856100f70f20000720e1009e003200bc
:1009d0000728e1009c003200010678000400e000d6
:1009e000b4003200f7072000878060000170a0008b
:1009f0000500e000c0003200f70720008781610099
:100a00000370a000050652000f003a000b50e100f1
:100a10000b0032000308e10002003a000200e1008e
:100a20007e0032000204500083845800040031002c
:100a30000001fd008101fd008402fd008a05fd002a
:100a40006044b800210037000520e10005003d00aa
:100a50000001fd008101fd008402fd008a05fd000a
:100a6000050652007a60e100050035000170a10022
:100a70004722dd00848070008a80700063003700a8
:100a80006044b800ef02660007ff2f00070666000b
:100a90000500e00006003400f08312008714dd003a
:100aa0000511de00071bdd00060171008519de005f
:100ab0007060e100050035000904780082047800c8
:100ac000030178008001eb00700656000b50e10036
:100ad00003003a0002004000838048000400370011
:100ae00060041400e0841c00020058008380580059
:100af0000188a300060032008100d1000080d300ed
:100b00008984d3000884d3000402e800270037005a
:100b10000178a30025003a000100e0000300320044
:100b20008186cf00698656000a0037008c002000bd
:100b30000000e00004003a00090078008804780012
:100b40000004eb00700252008086cf000d064600c4
:100b50000c06e9007060e1000600350080007800b6
:100b600009007800880478000004eb007006560045
:100b7000700252000c00e0000c0034008c08dd0014
:100b8000f00316000703de00868070000c00dd0015
:100b9000074bde00060070008c4cdd000743de00d2
:100ba000868474000c44dd000c0252006120e100d8
:100bb0002000350061016000070028008781640083
:100bc000f7ff270087836400070374000300e00039
:100bd0000600320082037300040032000000e800c7
:100be000e08048000188a3000e003a00f70f2000c3
:100bf0000720e1004a003d000170a1004722dd000e
:100c0000810072008a8070000000be004f06be00a6
:100c10004f05be004f04be00000006006000b80093
:100c2000faff37008100d1000080d3000402e80001
:100c3000eeff37000401780089017400a10107006c
:100c40008a807000f1ff3700f70107000702780083
:100c50000001fd008101fd00f3010700870278001b
:100c6000850372000778a300040032000001fd0034
:100c70008101fd0006020700e4ff370085036200e2
:100c80000768a300080032000b50e10003003200a7
:100c9000f0ff2f00f1ff2700dcff37000001fd000f
:100ca0008101fd00d9ff37000468a300d7ff32009f
:100cb000faff3700f8ff2700888360000b003a0036
:100cc0000000e00009003a0083036400828373009f
:100cd000020032000200be00ccff37000b50e100e2
:100ce000ceff3a000200be00c8ff3700140020000b
:100cf000810064003eff3700f8ff27008883610011
:100d000004003a000200e00002003a008c00780083
:100d1000beff3700150020008301640039ff370053
:100d200001f827000000200081007500b7ff3700a0
:100d3000889fbe008a9fbe008c9fbe001b002000c3
:100d40000202be000586680006002800060666004e
:100d50004709de00f20fb200820032000243e800d1
:100d600080003200c729de00f30fb2007d003200a0
:100d70000343e8007b003200f107b2000170a000dd
:100d8000f507b2000570a000c708dd004903de00ca
:100d9000868070004700dd00c72add004923de00a1
:100da000868272004722dd000305510004035000d3
:100db0008583580003003100000040008180480016
:100dc0000a05e9008c1f78008a9fbe0004005000cd
:100dd000858058000402420085824a0000004000dd
:100de000818048000005eb000004be006033b800bd
:100df0000406be000d48e100560031001100090054
:100e00004dccd8000c01b8000d02b800848141001f
:100e100060824a008283530003045c0084845c0087
:100e200060055d000a00e00025003a0080057800ba
:100e30000d40e1004900310088007800070078008b
:100e4000110009004d88d8000c01b8000d02b8004f
:100e50008481410060824a006003110083835b004b
:100e600004045c00e0845c000900e00021003a001a
:100e70004f01be000300e0002b003200e3016000e0
:100e8000070673008c81710001003200640070005d
:100e90004200de004e5edd000c007000c258de0035
:100ea00001e0a00083010700cf017800818071007c
:100eb0004f06be004f05be004f04be0000000600f6
:100ec0008c8343000d044c00e0844c0060054d0011
:100ed0000000e9000a00e000d4ff32008c834300e8
:100ee0000d044c00e0844c0060054d000000e9005a
:100ef000ceff37000c0343008d834b0060044c0091
:100f0000e0844c000000e9000900e000d8ff320056
:100f10000c0343008d834b0060044c00e0844c00c4
:100f20000000e900d2ff37004200de004e5edd0027
:100f30000c007000c258de0001e0a000cf01780074
:100f40000300e000daff320060001000e0801800cb
:100f5000d7ff3700f0ff2f00aaff3700f0ff2f0068
:100f6000b9ff37000404be002f0107008706780090
:100f70000004fd008104fd002b01070007836600cb
:100f80000678a300030032000960a7000800be0035
:100f90002c0037000d78a300020032000800be00cc
:100fa000280037000778a30026003a0001f0a100ce
:100fb00009f0a1000668a30003003200f1ff27003a
:100fc000f0ff2f00baff37000d68a30003003200c6
:100fd0000800be008c807000b5ff37000768a300d2
:100fe00007003a000648a30003003200f1ff270083
:100ff000f0ff2f00aeff37000d48a30003003200c2
:101000006000b8008c807000a9ff37000748a3007b
:101010000400320001f82700000020008c807000de
:10102000a3ff3700760107000004fd008104fd00e6
:1010300002057800720107000802be008a017800ec
:1010400059ff37000160a000120220004282880090
:1010500097ff37000100e000120032000500e000b9
:1010600010003200889fbe008a9fbe008c9fbe0089
:101070000006eb0001f8a30003003200600010003e
:10108000e08018000cf0a00005f8a3000300320077
:1010900060021200e0821a000cf0a2008005eb0052
:1010a00041ff37006000b8000200050003836800bc
:1010b0000700280007036300470ade000480a10040
:1010c000c71ade000580a100f70f20000720e1000d
:1010d000420032000728e10040003200889fbe0035
:1010e0008a9fbe008c1f7800f107b200f307b200a0
:1010f0000400e000640032000170a0000500e00080
:10110000680032000370a00085054200eb07b100c3
:101110000204b8000302b8008484440060854a00d9
:10112000020ab800848444000a854a00030ab80011
:1011300004054500040033000804d0008984d2006f
:101140000a85d2008b05e9006158e1003d003500b9
:10115000021020000901610003082000898161005c
:10116000f70720008783640008867300c84cde0000
:10117000c853dd00878474004855de000300e0009a
:101180000600320082037600040032008904e80081
:1011900060054d000a88a3000c003a00f70f2000fc
:1011a0000758e10044003d000a70a100c75ddd0062
:1011b0000a8575008a007300090078004f067800e0
:1011c0004f05be004f04be00000006000a05d10016
:1011d0008984d3008b05e800f0ff3700881f780072
:1011e0000604780090000700070278000001fd0067
:1011f0008101fd008c0007008702780085037200e2
:101200000778a300050032000001fd008101fd0008
:101210009f0007004f04780000000600850372005d
:101220000748a30003003200f0ff2f00f1ff270062
:10123000f8ff37000000200001f8270088807000c8
:10124000f4ff3700880178004848dd008081710094
:101250004848de00c850dd0001007000c850de00c4
:10126000060478000b0178001600070088807000e3
:10127000d2ff37000500e000050032001700200013
:101280003a0007009dff370081037000f9ff3a0024
:10129000860078004f0678004f05be004f04be0060
:1012a0000000050083037100f9ff320027002000d1
:1012b0002e00070094ff370001f827008680700099
:1012c000f4ff37000100e000260032006101110048
:1012d0007810e10023003c006022b8007010e100ab
:1012e0000400350080027800010078008000eb00e7
:1012f000700151000200e000090034007003110089
:10130000062add00822ade008603dd008782720065
:101310000200de00860bdd00070070008208de00a0
:1013200084817100f4ff27000482620084817100cf
:1013300004002800848262006102600005f0a600bb
:101340000000060004827100070032000000e8007f
:10135000e0804800000006000002be006000b80007
:10136000efff37006000b80000000600889fbe0055
:101370000004eb006138e10016003a000100e000d3
:1013800008003a00c800de004800dd0088002000a8
:101390000100e00003003a00c800de004800dd0064
:1013a000680444008184cf00e984540006003400be
:1013b0008908dd00f08314008703de008780700059
:1013c0000900dd0009044400610214004f04be005e
:1013d000000006000300e00008003a00c811de002b
:1013e0004811dd00880020000300e00003003a00ff
:1013f000c811de004811dd00680444008384cf007a
:10140000e9845400060034008919dd00f0831400db
:101410008713de00878171000911dd000904440093
:10142000e1021400e9ff37002700200001f0a700c7
:1014300017002000470bde00f60fb2000400320058
:101440000643e8000a0032004702b300000006002d
:1014500001037800f607b2000603700002003a00ac
:101460000703b300000006008702b3000000060077
:1014700001037800f607b200060370000200320094
:101480000770a000000006000760a0000000060032
:101490000478a300040032000578a30003003200a2
:1014a0000168a30001003a000200be000160a00034
:1014b0000000060081017000270032008002eb006e
:1014c00001f8a3000300320060001000e080180063
:1014d00015002000f4072000020242002000340022
:1014e000f703200087036000060420000003630068
:1014f00002082000000161004700de00c909dd008c
:1015000000807100c708de000600e000080032001d
:1015100087037100060032001000b0000180b000a7
:101520000188a30002003200c108de000402e800c6
:10153000f107b200f30f20000320e10003003d009b
:101540004722dd00810072002900370001f82700e2
:101550000000eb00260037006000b8000000060025
:10156000680212007f20e100020034006000b80031
:101570001f0037006011b8007020e1000400350042
:1015800080017800010078008000eb0070025200ba
:101590000400e00009003400f00312000719dd0028
:1015a0008419de000703dd00868171000400de007f
:1015b000070bdd00060070008408de00f7ff27003f
:1015c0008383630087037100060028000303630020
:1015d000070032000700e00003003a0061016000ec
:1015e00002817300020032001000b0000180b000e0
:1015f0000500a6000000060001f0a00000000600a3
:101600004f0ade004709de00f107b200f20fb20018
:101610000b003200f207b1000170a000c708dd0026
:10162000c901de00838070004700dd000400a600d1
:101630000000060060001000e080180000000600b6
:10164000810f700001003a00000006008182cf0087
:101650000500e00010003e008082cf00ee824200d4
:101660007028e1000400390007003e008000780087
:101670000000eb000e003700708312008600de00d1
:101680000500dd000a003700708352008600dd008f
:101690000000eb0006003700e28252008508dd0002
:1016a000708312000603de00868070000500dd00f6
:1016b0007507b0000501ea000400a600000006005e
:1016c00060001000e080180000000600889fbe0047
:1016d0008a9fbe00841f78007c0007004f007800be
:1016e00011003300f0ff2f00838f6c0006003b00d9
:1016f000040565000a00a7000800370009f0a600ed
:101700001000200008003700820f5400838f5c0017
:10171000030039001000200001003e0000002000fe
:1017200009f0a7000000ea004f05be004f04be000c
:101730000000e00000000600881f78000304780025
:101740000300e00007003d0060001000e08018008a
:1017500060011900e081190002003b0001f02d003a
:10176000030037000400070008f0a70001f0a00004
:101770004f04780000000600889fbe008a9fbe00cc
:1017800000827000040271000482710026003200a1
:101790000004be000200be006011b8006b0920000a
:1017a000950220000182cf000a0039000541b100f6
:1017b0000082cf00070039000541b1000982cf0047
:1017c000040039000541b1000882cf000100390052
:1017d0000541b10005425200120032000a003b00f0
:1017e00082817100610164008100d1000080d3001a
:1017f0008984d3000884d3008b05e8000442e80004
:10180000f7ff3a00070037000804440089844c00c1
:1018100000004800818048008b05e9000442e9008f
:10182000f9ff3a00030007004f05be004f04be0059
:101830000000060081002000618055000b003d0083
:101840000b00200061fe2f000100e1001d003400ac
:1018500082817100610164008904d1000884d30091
:101860000000e800faff3a00710020006100640007
:1018700003007000020060000900320061044400af
:10188000e0844c000988a500050032008b05e800c3
:101890006808e10002003a008904d1000884d300fe
:1018a000f20f20000258e10005003d00c75ddd0099
:1018b000f907b20089807500080078000000060072
:1018c0000bf827008b007800000005000004be0024
:1018d00014fc07000003be000405be000200be00a9
:1018e00010fc0700844f7500000006000800fa0095
:1018f0000002be008501780003f0a100000178001d
:10190000a6fd200097f42300860f5100878f590011
:1019100008003e00f4ff2f00f5972300840f5100cc
:10192000858f590055003e000000200001f823007b
:10193000600037004f0ade0005002000163d25003c
:10194000b7072400860f5100878f590019003e0009
:1019500036be2c0067012400860f5100878f590086
:101960000a0036000400e00004003200b2fd20004e
:101970009304240009fc070048003700b2fd200052
:1019800093042400fcfb0700440037000400e0003f
:1019900004003200b2fd200093fc2300fffb07008f
:1019a000430037000001be00b0fd200091fc230081
:1019b00019003700561d2300270e2400860f510002
:1019c000878f590016003e00f6dd2e00f70a24002e
:1019d000860f5100878f59000a0036000400e0008e
:1019e00004003200b2fd2000930c2400ebfb070042
:1019f00022003700b2fd2000930c2400defb07001c
:101a00001e0037000400e0000100320001f0a200d7
:101a100042be2c0063092400d7fb070024003700d6
:101a2000f4ff2f00f5f72700840f5100858f590030
:101a3000030036000001be00cffb07001d00370089
:101a400068815700650107006011b80063016000fc
:101a5000e10f5100e08f59000a003200e20f5100ff
:101a6000e08f59000b003200e00f5100e08f590069
:101a70000d003a004fb89700dfb897002901070022
:101a80000c0037004fb89700dfb8970001f0a200b4
:101a9000070037004fb89700dfb897002101070013
:101aa00001f0a200030037004fb89700dfb897009d
:101ab000a60107000080fa000000060000000600f2
:101ac0000400fa00889fbe008a9fbe008c9fbe0063
:101ad0000004be000205be000206410083864900e4
:101ae000e00f5600e08f5e00140032000200be00de
:101af00082bf9f0093bf9f00f0ff07008102780024
:101b000005f0a100000278000000200001f8270085
:101b10000fb997009fb99700800f5200818f5a002c
:101b200006003e000802be00474bde000700200012
:101b30000680fb00e14f430005003a000800be00ac
:101b40005afd07000001be0079fc070009003700bc
:101b50000801440089814c008c0f51008d8f590081
:101b600006003e0074003a006011b8000800be0094
:101b70004efd07000004be006f0037000000e000cb
:101b800013003a004949dd00c741de0083017100be
:101b90004941dd00030037000000e9000201410077
:101ba00083814900e00f5100e08f5900faff3d00aa
:101bb000e10010000401be008100e90003003300d1
:101bc0000201410083814900fbff37000400370018
:101bd00085017800f307b200080178000370a000c7
:101be000475bde000700200086007800f10fb2009e
:101bf00012003a00495bdd00c753de008703730023
:101c00004953dd00030037008100e900060343006b
:101c100087834b00e00f5300e08f5b00faff3d002d
:101c2000618310000603e900030033000a05450044
:101c30008b854d00fbff3700100037008b037800c9
:101c4000f707b2000a0378000605be000b70a0007b
:101c50000a003700e00f5300e08f5b0004003500fe
:101c6000e00f5300e08f5b00bfff32000601be00b3
:101c700002014100838149000000e9000a0351008c
:101c80008b835900810f5000f2ff3c00e00f53009e
:101c9000e08f5b0003003d00090037000601be0035
:101ca00007003700e00f5300e08f5b00fbff3a00b6
:101cb000adff370002014100838149000000e900c7
:101cc000471bde0007002000e00f5300e08f5b00a1
:101cd000f8ff32000000e0000a0034000600200097
:101ce00007f82f000201430083814b00cf80de0004
:101cf000c700dd0000002000020170008381700039
:101d000006003700610010000000e9000300330006
:101d10008301d1000281d300fbff370000002000c7
:101d2000010028008583600000037800060171002f
:101d3000878171000204be000800be004f06be008d
:101d40004f05be004f04be000080fa0000000600f0
:101d50000800fa000002be008501780003f0a1002f
:101d600000017800a6fd200097f42300860f5100a3
:101d7000878f590006003e00f4ff2f00f5972300df
:101d8000840f5100858f5900640036005d003700d4
:101d90004f0ade0005002000163d2500b70724008d
:101da000860f5100878f590019003e0036be2c0067
:101db00067012400860f5100878f59000a003e00fa
:101dc0000400e00004003200b2fd200093fc230078
:101dd000f2fa07004f003700b2fd200093fc230009
:101de000e5fa0700420037000400e000040032007a
:101df000b2fd200093042400e8fa070040003700f9
:101e0000b2fd200093042400dbfa07003c003700f9
:101e1000561d2300270e2400860f5100878f59007e
:101e200019003e00f6dd2e00f70a2400860f51004f
:101e3000878f59000a003e000400e00004003200d1
:101e400042be2c0063092400d4fa070028003700a2
:101e500042be2c0063092400c7fa07002d0037009a
:101e60000400e00004003200b2fd2000930c2400c6
:101e7000cafa070023003700b2fd2000930c2400ab
:101e8000bdfa07001f003700f4ff2f00f5f7270009
:101e9000840f5100858f5900030036000001be00f9
:101ea000b5fa07001d003700688157004b00070096
:101eb0006011b80063016000e10f5100e08f59002c
:101ec00009003200e20f5100e08f59000a00320091
:101ed000e00f5100e08f59000c003a004fb8970016
:101ee000dfb89700070037004fb89700dfb89700ba
:101ef0000c000700090037004fb89700dfb89700c3
:101f000001f0a20091000700040037004fb89700cd
:101f1000dfb897000300070001f0a2000080fa007c
:101f200000000600889fbe008a9fbe008c9fbe00f6
:101f30000001be005dfc07000004be000001be0001
:101f40005afc07000005be000200200003f02b0031
:101f50000800be0055fc07000200200003f8230023
:101f60008efa07000006be00f2a92a00a3d22300c1
:101f70000a00be004dfc07000001be000c00be00c0
:101f800086fa07000006be000801be000a00be0077
:101f900046fc07000005be0072a12900c37c230097
:101fa0000800be0041fc0700f243200063ab2300a1
:101fb00071fa07000001be000a00be003bfc0700ea
:101fc0000001be000c00be0074fa07004f06be0000
:101fd0004f05be004f04be0000000600ea87470020
:101fe000889fbe008a9fbe008c9fbe008e1f780017
:101ff0000006be00020478000005be008b017800d8
:1020000003f0a10000017800a0fd200091dc240075
:10201000800f5100818f59001e003e0032982f0022
:1020200023f223000c00be0020fc07000200200069
:1020300003b4240059fa07000200200003b424006e
:102040004dfa07000005be00f5f90700800478008e
:10205000a2fd200093fc23000a00be0013fc070031
:102060000001be000c00be0043fa07000006be00df
:10207000325a2800832823000a00be000bfc070008
:102080000001be000c00be003bfa0700008cbe0041
:1020900027003700f0ff2f00f1f72700800f5100d5
:1020a000818f5900060036000c01be000c00be00f6
:1020b00031fa0700008cbe008004eb001c003700e2
:1020c0004718de00010020006009b1000180b10066
:1020d000c702dd0004002000040151008581590081
:1020e00076875700029fbe000002eb00130020001d
:1020f000000178008e0078007680570043000700ca
:1021000080047800e00f5600e08f5e0006003d007e
:102110001e0078009e00900001f0a200008cbe001e
:102120008904ea00020037003e1c78002e14780073
:10213000090078004f0778004f06be004f05be002b
:102140004f04be00af00b10000000600889fbe0033
:102150008a9fbe008c9fbe000005be000001be002d
:10216000d2fb07000004be000a01be00cffb07003f
:102170000006be004288280083c023000800be007d
:10218000cafb0700b2aa2a00a3e22300faf907005b
:102190000001be000c00be00c4fb07000001be0031
:1021a0000a00be00fdf907000005be000801be00e0
:1021b0000800be00bdfb07000001be000c00be0011
:1021c000bafb07000006be00c2c3260063632300fb
:1021d0000800be00b5fb0700f27c20000395230039
:1021e000e5f907000001be000c00be00affb0700d0
:1021f0000001be000a00be00e8f907004f06be005d
:102200004f05be004f04be0000000600af17b0002f
:10221000889fbe008a9fbe008c9fbe008e1f7800e4
:10222000b0a79f0081af9f000204780003057800eb
:10223000f4a79f0004004200a10421000080400098
:10224000100078006101b900b2af9f00c3af9f00da
:102250000a00e9006102b90094af9f00a5af9f009a
:102260006300540082012000110009000200d80020
:102270006103b900d6a79f00e7a79f00e00f5300b6
:10228000e08f5b0003003d006000b800d0a79f0016
:10229000e1a79f005fa19700efa197000280ea00ed
:1022a0008380ea0082012000030020002c04070044
:1022b000cfc1de0000044400818449005fa2970082
:1022c000efa297001fab9700afab97000606520036
:1022d00087865a003fa89700cfa8970000024300c6
:1022e00081824b006eec2f000f074700c265dd00b6
:1022f00020052100808545006011b8000803be005c
:102300000a04be000205be00150037006000b800d8
:10231000e00f5600e08f5e000b00350019007800da
:1023200099009000d4b79f00e5b79f00f6b79f00d3
:1023300087bf9f0076f907008fbb97007fb3970098
:10234000efb297005fb2970000afbe006105450095
:10235000e0854d0061064600e0864e00e4844400be
:10236000840f5500858f5d00e8ff34000805780074
:1023700064f62f000f0242006011b800b2b79f0050
:10238000c3b79f0084067800210037003c00780026
:10239000bc007800e48555001b0178009b0190008b
:1023a000d4b79f00e5b79f00f6b79f0087bf9f0097
:1023b0003efb07000001be000800be0077f90700e1
:1023c0000004be005fb29700efb2970061024200c6
:1023d000e0824a008fbb97007fb397001fa8970049
:1023e000afa89700800f5200818f5a00e7ff34009a
:1023f00088aebe003fb19700cfb1970061014100a8
:10240000e0814900b2b79f00c3b79f000a05e8000a
:102410003fb29700cfb297003fa89700cfa8970090
:10242000800f5200818f5a0008003c003fa69700a1
:10243000c255dd00a1ec2f008f8040008b8540004d
:102440006044b8006022b800e4ff37003fa997005d
:10245000cfa99700b2b79f00c3b79f0096b79f0060
:10246000a7b79f00bfb297004228dd00a6e72f0064
:102470000f0343000000430000bc900090bc90009c
:102480006de72f008f8646003fb09700cfb09700d2
:1024900061005000e0805800f0af9f0081b79f00be
:1024a000c205dd00a1f62f008f8040008b85400023
:1024b0000d0578003fb39700cfb397000d07780064
:1024c0001b00370002002000033823000800be0074
:1024d000f6b79f0087bf9f00f4fa0700d0f8070007
:1024e0000bf907000006be000200200003b824001c
:1024f000eefa07000001be000800be001ef907004a
:10250000c7f8070000adbe009b0090001b007800dc
:10251000e48555000c01be0020f907000004be0050
:102520007fb397008fbb970061035300e0835b008c
:10253000e00f5300e08f5b00e2ff3c008e06780066
:102540001fb697000c0178000800be005a03070070
:102550000004be000200200003e02300d3fa0700bd
:10256000f60207000200200003102400cffa070043
:102570000001be000800be00fff807000005be0015
:10258000a7f807000004be00e1f807000001be0044
:102590000a00be00f8f807000005be001fb1970052
:1025a000afb19700e00f5100e08f590023003400d5
:1025b000ffa997004218dd00a4e72f000f02420098
:1025c000000042001002780090029000f80016000f
:1025d0000401be00010378000603e9000300330094
:1025e0008381d1000281d300fbff37000804410042
:1025f000898449008100e9000300330002014100a1
:1026000083814900fbff37000201520083815a0099
:102610000288be00770016000202be000000e9003a
:10262000030033008582d1000482d300fbff370012
:10263000d4af9f00e5af9f001e0037001fb3970087
:10264000afb39700e00f5300e08f5b000c003a003f
:10265000ffab97004238dd00a1e72f008f804000dc
:102660000080400090009000100078004789de0054
:10267000d2af9f00cf89de00e3af9f000d0037008f
:102680000200200003f0230063f80700240020006c
:1026900005002000d4af9f00e5af9f000000e000e0
:1026a00009003d006033b800d6af9f00e7af9f0040
:1026b000660037005fa89700efa89700e00f500072
:1026c000e08f58006100340061044400e0844c0055
:1026d0006000b8006022b80014003700e4864600ad
:1026e0001d0178009d019000e00f5200e08f5a001c
:1026f00006003a00e00f5100e08f59000900320057
:10270000040020000510200002003700f4ff2f0015
:10271000f50f2000821e520083965a0014002000fc
:102720000500200061004000e08048003fb19700b4
:10273000cfb19700820f5000838f5800e7ff35001c
:102740001fb39700afb39700e00f5300e08f5b001b
:1027500025003400e10f5300e08f5b0004003200dd
:10276000e20f5300e08f5b001f003a000f003700bc
:10277000ffab97004238dd00a1e72f008f804000bb
:102780000080400010017800900190000303780061
:10279000f607b200a6a79f008203780097a79f00c4
:1027a0001fa19700afa197000e003700ffa9970067
:1027b0004218dd00a6e72f000f034300000043008e
:1027c000100178009001900083037800f703b200b5
:1027d00087a79f0082007800f19f9f007f99970054
:1027e0008fa197000288be005fab9700efab970008
:1027f000e20f5300e08f5b0014003a000a01be00b4
:102800000000200001f82300d4b79f00e5b79f0027
:1028100059f807000005be005fb29700efb29700bd
:10282000e00f5200e08f5a00080032000c017800df
:102830000000200001f823009f0207000001be00f5
:102840000a00be004cf807000005be006011b80089
:102850000a00be00eef707000000e0008a003a0020
:102860003fb09700cfb09700ffab9700423add0032
:10287000a2e72f000f014100040241006011b800df
:10288000050037009403900014037800640252009e
:10289000060171008781710061005000e0805800de
:1028a0003fab9700cfab9700860f5000878f580043
:1028b000f4ff3d00e00f5100e08f590080003a0026
:1028c00061005300e0805b004200dd00a7e72f00bd
:1028d0008f8343000080430012002000030020008b
:1028e000f2af9f0083b79f0012002000030020007a
:1028f0000200370061014100e08149009002900030
:102900001002780064005000e00f5200e08f5a007f
:10291000f8ff3200f2af9f0083b79f003fb39700ec
:10292000cfb3970061024300e0824b004226dd00f6
:10293000a7f62f008f8343000c8643005fa197000a
:10294000efa1970061004100e08049003fb397008c
:10295000cfb397000000430081804b00c204dd002c
:1029600020052100808444001fa99700afa997008b
:1029700061004100e08049000000430081804b007d
:102980004201dd00a3ec2f008f81410082814100d4
:10299000c3a79f000004e8000907780088067800b4
:1029a0000404be002c0037003e007800be00780012
:1029b000d7f707004fa29700009abe00c4a79f0058
:1029c0003fa29700c26add00a6ec2f000f03430070
:1029d000850243006033b8006055b800d89f9f005f
:1029e000e99f9f000404be00100037003800780003
:1029f000b8007800e484540019017800990190002f
:102a0000f6b79f0087bf9f00a8f907000001be002e
:102a10000a00be00e1f707000005be007fb3970083
:102a20008fbb970061034300e0834b001fa9970011
:102a3000afa99700820f5300838f5b00ebff340038
:102a40005f9c9700ef9c97000a9ebe0061044400c3
:102a5000e0844c008d06e8007faa97008fb29700b3
:102a60003fb39700cfb397000400430085804b002d
:102a7000800f5400818f5c00cbff3400b0b79f0003
:102a8000c1b79f0077fe370098af9f00a9af9f00a6
:102a90001fb49700afb497000c01ea000a00be0013
:102aa000050207000005be000200200003b8240054
:102ab00059f707000000e00022003d004500370004
:102ac00098af9f00a9af9f001fb49700afb49700c5
:102ad0003fb09700cfb0970061005000e0805800f1
:102ae000b0b79f00c1b79f0078045400e0845c0039
:102af000bfb097004208dd00a2e72f000f014100a0
:102b0000000041003fb19700cfb1970004003700ab
:102b100061015100e081590078045400e0845c00b8
:102b2000900290001002780064005000e00f520004
:102b3000e08f5a00f6ff3200b2b79f00c3b79f0084
:102b40002c00370002002000033823000a00be00da
:102b500056f9070032f707006df707000006be00c0
:102b6000bfb29700422fdd00a6e72f000f034300fe
:102b70000e0743000200200003b824004bf90700b1
:102b80000001be000a00be007bf7070024f7070023
:102b9000008fbe003fb09700cfb0970061004000ab
:102ba000e0804800b0b79f00c1b79f0078044400a0
:102bb000e0844c004205dd00a1e72f008f8040003b
:102bc0000a8540000c00be0015f70700008dbe000e
:102bd000080037003fb197004216dd00a3e72f0041
:102be0008f8141000c8641000a00be000cf70700ef
:102bf000008ebe00080178000000200001f82300cc
:102c0000ad0107000004be003fb29700f4af9f0083
:102c10008402e80095b79f00c22ddd00a6e72f00d3
:102c20000f0343000b054300a7f62f008f834300db
:102c30008b8543003fb69700cfb697000f00370053
:102c4000640555001a0078009a00900030f70700dc
:102c50000001be000800be0014f9070080a5be00f8
:102c600002002000033823000800be000ff907000f
:102c70000004be0061065600e0865e00e00f5600cc
:102c8000e08f5e00eeff3d006df12f008f86460065
:102c90003fb59700cfb59700200037006406460087
:102ca0001c0178009c019000640747001e0078001a
:102cb0009e009000d4b79f00e5b79f00fbf8070087
:102cc0000001be000800be0034f707000004be008b
:102cd00061054500e0854d00efb297005fb29700b7
:102ce0003fa89700cfa89700800f5500818f5d0007
:102cf00007003c003fb19700cfb19700040051009e
:102d000085805900800f5500818f5d00e3ff3400fe
:102d100088aebe0061055200e0855a00e00f550004
:102d2000e08f5d000b0035006e1521000a06e900fa
:102d30004266dd00a3f62f008f8141000c86410022
:102d40006044b8006000b8000a02be000005be0082
:102d5000e3ff37007fa29700e20f520005003c001e
:102d6000e10f520010003d000400e00017003200a7
:102d7000ea003700ffa29700e38f5200e7003a0015
:102d80003fb397004232dd00a7f12f008f8343004d
:102d900004824300040778003fb39700cfb3970045
:102da000b4af9f007a0037001fb097004205dd00e6
:102db000a1f12f008f8040000a8540003fb49700aa
:102dc000cfb497006000b800210037001fb1970012
:102dd0004214dd00a3f12f008f81410008844100df
:102de0003fb59700cfb597006000b80006003700e8
:102df000640454001801780098019000e7f6070079
:102e000061055500e0855d00e00f5500e08f5d0035
:102e1000f7ff3d005faa9700efaa9700e00f52006e
:102e2000e08f5a000100320001f0a2008faa970043
:102e3000808abe00b9003700640555001a01780089
:102e40009a019000d5f6070061045400e0845c000c
:102e5000e00f5400e08f5c00f7ff3d000001be0072
:102e60005fab9700efab9700e00f5300e08f5b0084
:102e70000100320001f0a2008fab9700808bbe00f2
:102e80005f089700ef089700bbf60700aaf12f0034
:102e90000f0545001800200009002000060037003b
:102ea000640545001a0178009a019000bbf60700fe
:102eb00061044400e0844c003fb19700cfb197001b
:102ec000820f5400838f5c00f5ff34008fa99700b8
:102ed000648141005faa9700efaa9700e00f5200bb
:102ee000e08f5a000100320001f0a2000089be000c
:102ef0008a003700c0ff2f00ffaa970080a8b90002
:102f0000000047003fb29700cfb297006101520026
:102f1000e0815a004211dd0082024000e48242005a
:102f200015067800950690000e02780064024200b3
:102f300014057800940590000a01be000c00be0044
:102f4000d4b79f00e5b79f00f6b79f0087bf9f00eb
:102f500092f607000004be000001be000c00be0097
:102f600085f607000001be000a00be008bf60700d0
:102f70005fb29700008abe00efb29700888abe0059
:102f80007fb397008fbb970061035300e0835b0022
:102f900064075700e00f5300e08f5b00d5ff3c0053
:102fa0003faa97003fb39700cfb39700040478007f
:102fb00027003700c0ff2f00ffaa970080a8b900a4
:102fc000000044003fb29700cfb297006101520069
:102fd000e0815a00c214dd0089044000e48444000a
:102fe00019027800990290000807780064074700ea
:102ff0001e0678009e0690000c01be000400be0074
:10300000d4b79f00e5b79f00f6b79f0087bf9f002a
:1030100062f607000005be000001be005fb2970027
:10302000efb297000400be0053f607000001be0097
:103030000c00be0059f60700008fbe008a8cbe004f
:103040007fb397008fbb970061035300e0835b0061
:1030500064045400e10f5300e08f5b00d5ff3c0097
:103060009fb29700422cdd00a6f12f000f03430012
:10307000080443003fb59700cfb597006000b80043
:10308000060037006404540018017800980190008d
:1030900042f6070061055500e0855d00e10f55002f
:1030a000e08f5d00f7ff3c005fa99700efa9970054
:1030b000e00f5100e08f59000b003a000fa9970074
:1030c0005f0a9700ef0a97000499be007f0b9700f4
:1030d0008f1397000689be008fab9700c00398003e
:1030e000d10398000d0037005f0a9700ef0a9700a0
:1030f00005f0a2000fa997000499be007f0a97006f
:103100008f12970005f0a2000489be0001f0a20012
:103110000fa9970040019800510198009fa99700be
:10312000678061004f0778004f06be004f05be0064
:103130004f04be00af17b100000006000c00fa00fb
:10314000889fbe008a9fbe008c1f78000004be00ce
:103150006000b8006011b800f0b79f0081bf9f0009
:1031600092bf9f00a3bf9f00f8b79f0089bf9f0039
:103170007fb297008fba97001fbb9700afbb970035
:10318000443ade00f07f2000000662002043200069
:10319000800f560042003c006011b8000800be00dd
:1031a0009bf507000000e0003d0032007fb0970073
:1031b0008fb897001fb99700afb99700e00f500084
:1031c000e08f5800e00f5900e08f590008003d00e3
:1031d0000200200003b024000800be00e6f507004e
:1031e0000200200003b02400ecf5070007003700c0
:1031f0000200200003b024000800be00e7f507002d
:103200000200200003b02400dbf507000801be0027
:10321000d9f507000005be00e03f2000800f5600f2
:103220000f003c00dab79f00ebb79f006044b80086
:103230007fb097008fb897001fb99700afb997007c
:10324000e00f5000e08f5800e00f5900e08f590068
:1032500013003d000800200009f82b001000370083
:103260006011b8000a00be006bf507000000e00026
:10327000070034000a01be000800be00c7f50700c1
:103280000200200003f82300bbf50700030037000d
:103290000a01be000800be00c0f507000004be0021
:1032a0000800be004f0678004f05be004f04be0068
:1032b0000080fa0000000600889fbe008a9fbe00c2
:1032c00002047800f93f2000890f54000d003400fb
:1032d0000200200003f8270074f70700f83fb10050
:1032e000890f5400150034000200200003f8270065
:1032f0006ef70700f83fb100890f54000e003c0044
:103300000e00370029c02f00890f54000b003d002c
:103310006011b80065f70700983cb000890f5400b1
:1033200006003d006011b80060f70700983cb0004f
:10333000890f540001003d0009047800f83fb000f7
:10334000cfc4de00614db9006044b8000801be0082
:1033500056f707004f05be004f04be0000000600f0
:10336000020ab900001bb9000200b8008100420047
:0833700081004300000006008b
:020000040000fa
:103378000000fa002cd0bf000080fb00cf80de00e8
:103388007201200003002000820f5000838f580034
:10339800a2003e0000060100170037002000370099
:1033a8003600370040003700410037004b00370037
:1033b8004c003700560037005700370061003700cf
:1033c800620037006c003700940037009300370024
:1033d8009200370091003700690037007500370008
:1033e8007f003700710037007f0037008900370001
:1033f800150037001f0037002630ef002830ef0097
:1034080012c0b3006000b8007a0607000041eb0064
:103418006000b8007706070010c0b3002cf0b700b2
:103428003281800043818000803e2000010020001e
:10343800800f5100818f59007b00360020c0b300f7
:103448002cf0b7007900370012c0b300000020004c
:10345800011f2400670607000041eb000000200060
:10346800011f24006306070070c1b3002cf0b700e9
:103478006e0037006f0007006c00370012c0b30001
:1034880000002000012224005a0607000041eb003a
:1034980000002000012224005606070030c0b300b7
:1034a8002cf0b70061003700620007005f003700aa
:1034b80012c0b30000002000011124004d060700cf
:1034c8000041eb000000200001082c00490607001d
:1034d80050c0b3002cf0b700540037005500070067
:1034e8005200370012c0b3000000200001082c0071
:1034f800400607000041eb000000200001112400f5
:103508003c06070070c0b3002cf0b7004700370036
:10351800480007004500370012c0b3000000200033
:1035280001172400330607000041eb0000002000cb
:1035380001172c002f06070090c0b3002cf0b7002d
:103548003a0037003b0007003800370012c0b300cc
:103558000000200001122c00260607000041eb00a5
:10356800000020000112240022060700b0c0b300aa
:103578002cf0b7002d0037002e0007002b00370075
:1035880012c0b30000002000010c2c00190607002f
:103598000041eb000000200001142400150607007c
:1035a80030c1b3002cf0b70020003700210007001d
:1035b8001e00370012c0b3000000200001142400d0
:1035c8000c0607000041eb0000002000010c2c0055
:1035d8000806070020c1b3002cf0b700130037001d
:1035e800140007001100370012c0b30000002000cb
:1035f80001122c00ff0507000041eb00000020002d
:1036080001122c00fb05070050c1b3002cf0b700d5
:103618000600370007000700040037002c70ef0091
:103628000000000001003700000000000080fa00e0
:10363800000006000200fa000040eb00004f78008e
:103648007181800070bb2000808f50000e00340014
:10365800a198800080988000808f500003003c0073
:1036680070c0b300004f7800c0003700a1988000f8
:1036780080988000808f5000bc00350060c0b30087
:10368800004f7800b900370080988000fe0f500086
:10369800100034009198800080022000808f500034
:1036a8000c003400a0988000fe0f50000900340080
:1036b800b0988000f40f500006003400c0988000d5
:1036c800f40f5000030034000040eb00004f780076
:1036d800a6003700b0988000ee0f500009003c00ab
:1036e800c0988000ee0f500006003c0090988000c3
:1036f800f40f50000300340080c0b300004f78007e
:103708009a00370080988000ee0f50000f003c00b0
:1037180090988000f40f50000c003400a0988000ae
:10372800ee0f500009003c00b0988000ee0f5000ea
:1037380006003c00c0988000ee0f500003003c00db
:1037480030c0b300004f78008800370080988000b0
:10375800f80f50000f003c0090988000f40f5000c4
:103768000c003400a0988000f80f500009003c00bd
:10377800b0988000f30f500006003c00c09880000d
:10378800f30f500003003c0080c0b300004f7800e6
:103798007600370090988000f40f50000c00340039
:1037a800b0988000f30f500009003c00c0988000da
:1037b800f40f500006003400708180000000e8001b
:1037c8007081880050c0b300004f78006700370050
:1037d80090988000f40f50000c003400b0988000de
:1037e800f40f500009003400c0988000f30f500017
:1037f80006003c00708180000000e80070818800ad
:1038080040c0b300004f78005800370090988000ff
:10381800f40f50000c00340080988000f40f500022
:1038280009003400a0988000f30f500006003c0007
:10383800708180000000e8007081880010c0b3002b
:10384800004f78004900370090988000f40f50002e
:103858000c00340080988000f30f500009003c00f1
:10386800a0988000f40f500006003400708180009a
:103878000000e8007081880020c0b300004f780085
:103888003a003700b0988000f30f50000b003c005e
:1038980090988000f30f500008003c00b198800019
:1038a800c0988000808f500004003d0060c0b300c5
:1038b800004f78002e30ef002c003700c0988000b1
:1038c800f30f500007003c0090988000f30f500061
:1038d80004003c0070c0b300004f78002e30ef00a9
:1038e8002200370080988000f80f50000b003c0041
:1038f80090988000f40f500008003400a1988000d0
:1039080080988000808f50000400350020c0b300ec
:10391800004f78002e30ef0014003700a098800088
:10392800f80f500007003c0090988000f40f5000fa
:103938000400340010c0b300004f78002e30ef00b0
:103948000a00370090988000f80f500004003c00ef
:1039580030c0b300004f78002e30ef00030037006e
:1039680080c0b300004f78002e30ef001e40780072
:103978000004e00003003a0020c0b30032f0b700b2
:10398800540037001e407800e84f500003003a000a
:1039980060c1b30032f0b7004e0037001e40780017
:1039a800e24f500003003a0040c0b30032f0b700c5
:1039b800480037001e407800e14f500003003a00ed
:1039c80060c0b30032f0b700420037001e407800f4
:1039d800e34f50000e003a000500370040c1b30025
:1039e80032f0b700808180000000e8008081880004
:1039f8008181800070252000808f5000f7ff3400ff
:103a08003030ef0080c0b30032f0b700310037002b
:103a18001e407800e44f500003003a0000c1b30094
:103a280032f0b7002b0037001e407800e54f5000f9
:103a380003003a0010c1b30032f0b7002500370088
:103a48001e407800e74f500010003a007181800056
:103a580080bb2000808f500009003a000500370025
:103a6800a0c0b30032f0b700708180000000e90008
:103a780070818800708180000000e000f8ff3c0041
:103a8800a0c0b30032f0b700120037001e40780023
:103a9800e64f50000f003a007181800080bb200083
:103aa800808f500009003a000500370080c0b3003d
:103ab80032f0b700708180000000e9007081880052
:103ac800708180000000e000f8ff3c0080c0b30077
:103ad80032f0b70032d0bf008080fb002cd0bf008e
:103ae8000080fb000000e900808f500002003200d7
:103af80032d0bf002cf0b7000080fa0000000600aa
:103b08000a00fa00e40147008009780066004700cf
:103b1800010878006800470002087800e0cfb30089
:103b2800004f780064004700100078004880de00ed
:103b3800004078001e4f68006400470010007800bd
:103b4800004078001e4f68006600470010007800ab
:103b58004880de00004078001e4f6800660047007d
:103b680010007800004078001e4f68008000eb00cd
:103b78000e80e800010878000c0037000e80e8008d
:103b880090007800680047001000780001004000ad
:103b9800104078001e4f68000e80e8001000780082
:103ba8008000e8000e80e800010878000e80e80038
:103bb800900078006600470010007800808f500061
:103bc800eeff35001e4078000080fa000000060075
:103bd8000e00fa00889fbe00e801470080097800bf
:103be8006a004700010878006c0047000208780066
:103bf8000f0478000f007800800478006a004700fe
:103c080010007800660040000001e900e400470069
:103c1800820878000000e8000000e8000000d100f9
:103c2800800040000f007800818747000000e8000e
:103c38000000d10000004000e6004700800878003e
:103c48000000eb00000f78006600470010007800c5
:103c58001e004000e1cfb300014878001e0fe800c5
:103c680068004700100078004880de008040780037
:103c780066004700100078001e00400001487800e8
:103c88001e0fe800680047001000780080407800a8
:103c980066004700100078001e00400001487800c8
:103ca8001e0fe8006a004700100078004880de0018
:103cb8008040780066004700100078001e00400031
:103cc800014878001e0fe8006a00470010007800dd
:103cd8008040780066004700100078001e00400011
:103ce800014878001e0fe8008000eb000e80e80015
:103cf80001087800100037000e80e8009000780076
:103d08006c004700100078000100400090407800e7
:103d180066004700100078001e0040000148780047
:103d28001e0fe8000e80e800100078008000e80010
:103d38000e80e800010878000e80e8009000780006
:103d48006a00470010007800808f5000eaff3500b5
:103d58006c004700100178006a0047009000780066
:103d6800680047001000780065ff0700e60047007c
:103d7800910078009e804000804878001e0fe8007f
:103d880066004700100078009e00780021060700b2
:103d980089077800880778004f04be000080fa0081
:103da800000006000200fa00004f7800d081800071
:103db800e30f500026003200e30f500007003c00dc
:103dc800e10f500015003200e10f500019003c00cf
:103dd8000000e0000800320043003700e50f500003
:103de80028003200e50f50001f003500e60f500094
:103df800310032003c0037001e407800e24f40009e
:103e080002003a0010002000d08188003630ef0010
:103e18003830ef003430ef00370037001e80fb00e9
:103e28004800dd00a081880020002000d0818800a3
:103e3800310037001e80fb00a181800000807000e7
:103e4800a081880030002000d08188002a00370037
:103e58001e80fb004800dd00b08188004000200083
:103e6800d0818800240037001e80fb00b1818000cb
:103e780000807000b081880050002000d081880048
:103e88001d003700c0818000a127210080804000ec
:103e98009e4878000000e800c0818800c181800049
:103ea800b0818000808f500012003a00600020002e
:103eb800d081880010003700b1818000a081800087
:103ec800a22721000eff07009e4f500004003a0071
:103ed800b1818000a0818000a2272100080007008e
:103ee8003a30ef00040037003a30ef0000000000dd
:103ef80001003700000000000080fa000000060002
:103f08000600fa00000f78000e80e800010878002b
:103f180064004700020878001e00780001042000b1
:103f2800810f50004100320001042000810f500031
:103f380004003c0001022000810f500005003200ff
:103f48003f00370021052000810f50003900320062
:103f58003b003700640047001000780010407800ec
:103f68000004e0000d003a006400470010007800eb
:103f78000000e80010407800614060000080fb000d
:103f8800610060004600dd00217380000160a1002f
:103f98000100700020738800290037006400470082
:103fa8001000780010407800e14f50000d003a00f2
:103fb80064004700100078000000e8001040780016
:103fc800614060000080fb00610060004700dd0088
:103fd800217380000170a100010070002073880027
:103fe8001700370064004700100078001040780080
:103ff800e24f500011003a006400470010007800ba
:104008000000e80010407800614060000080fb007c
:10401800610060004a00dd002171800001a0a1005c
:1040280001007000207188000500370000000000c2
:104038000300370000000000010037000000000006
:104048000080fa00000006000000fa00c301a80082
:104058000080eb00e00e88000080eb00f00e880086
:10406800c1e1a8000080fa00000006000000fa0084
:10407800c305a8000080eb00e02e88000080eb005c
:10408800f02e8800c1e5a8000080fa0000000600b4
:104098000800fa00889fbe008a9fbe008c9fbe0061
:1040a8002080800031808000008088001180880096
:1040b8006080800071808000408088005180880086
:1040c800300e80008000eb00008fbe00500e800094
:1040d8008000eb00c000dd00000020001e0f400043
:1040e8005e974800302e80008000eb006401470096
:1040f8000089be00502e80008000eb00c000dd006b
:10410800000020006401470092019000120178002d
:104118000200400083804800640147000089be0017
:104128001e0078009e009000f7f10700d25d2b007a
:1041380043c82300dbf30700208088003180880013
:10414800640047009000900010007800eef107002e
:10415800d25d2b0043c82b00d2f307006080880093
:104168007180880024808000358080000080800075
:10417800118080000001be000400be00fcf10700b1
:10418800a0808800b18088006480800075808000ed
:1041980040808000518080000001be000400be0005
:1041a800f3f107008080880091808800a08080005b
:1041b800b180800002002000a3372400b9f3070073
:1041c800d0988800e19888008080800091808000e5
:1041d80002002000a3372400b2f30700f0988800fb
:1041e80001998800d4988000e5988000f0988000b4
:1041f800019980000001be000400be00e5f107003f
:104208000200200003002400c7f20700109988006c
:1042180021998800d4988000e5988000f098800063
:10422800019980000001be000400be00d0f1070023
:10423800a2992900c3382400bbf2070030998800ee
:104248004199880090998000a19980007099880010
:1042580081998800d0998000e1998000b099880000
:10426800c19988005099800061998000f099880070
:10427800019a880078998000899980001a998000ad
:104288002b9980005c9980006d998000309980009e
:104298004199800002002000a3372400a2f2070001
:1042a80002002000030024009ff207000001be0066
:1042b8000c00be00b7f107008af507000001be0038
:1042c8000a00be0077f3070002002000a33724008d
:1042d80095f207000001be000800be00adf107001e
:1042e80090998800a1998800b8998000c9998000a0
:1042f8001a9980002b9980005c9980006d99800044
:10430800309980004199800002002000a3372400e2
:1043180085f20700020020000300240082f2070053
:104328000001be000c00be009af1070086f60700e7
:104338000001be000a00be005af307000200200078
:10434800a337240078f207000001be000800be0071
:1043580090f10700d0998800e1998800f8998000c9
:10436800099a80003099800041998000020020005d
:10437800a33724006cf207000001be000800be004d
:1043880084f107005099880061998800509980004d
:104398006199800018c0b300b2fd20009304240086
:1043a8001bf107000000e00001003c000044eb00a6
:1043b8000804e000070032005099800061998000ed
:1043c800b2fd2000930c240069f107005099880081
:1043d80061998800509980006199800018c0b300e5
:1043e800b2fd200093042c0007f107000000e00054
:1043f800010035000044eb000804e000070032002b
:104408005099800061998000b2fd2000930c24002f
:1044180060f1070050998800619988004f06be0036
:104428004f05be004f04be000080fa0000000600e1
:104438001800fa0030818000418180000001be0030
:104448008000eb000e0078000f02070090998000b2
:10445800a19980000001be00410020000e007800f4
:10446800ea010700d0998000e19980000001be00b0
:10447800810020000e007800e401070050998000b8
:10448800619980000001be00c10020000e00780084
:10449800de01070010998000219980000001be000c
:1044a800010120000e007800d80107003099800033
:1044b800419980000001be00410120000e007800f3
:1044c800d20107000e0178008101200010062000ab
:1044d800bffd07000080fa00000006000000fa0097
:1044e80013e1a90011e1a9001061a8001021a90099
:1044f80081088000f0fc2f000080600080088800a0
:104508000a21ef000621ef0020262000700888000d
:1045180000a02500600888002142800080ff2f004d
:10452800008060000000a000204288000108a90067
:104538002108a80011e1a8000080fa000000060088
:104548000000fa0005e1a9000421a9000068a900fb
:104558002068a80005e1a80000002000a137240079
:10456800020007000080fa00000006000400fa00bc
:10457800881f7800008fbe0021088000f0fc2f0003
:1045880000806000200888001e0178009e019000cd
:104598000068290081c12400e3f1070018c0b300b6
:1045a80002f02f00f377240099f007000000e000e4
:1045b80001003c000044eb000804e0005400320015
:1045c80021088000f0fc2f00008060000040a0005f
:1045d800200888001e0178009e01900000682900cc
:1045e80081c12400d0f1070002002000031024003c
:1045f800cdf1070018c0b30002f02f00f3772400b4
:1046080083f007000000e00001003c000044eb00dc
:104618000804e0003200320021088000f0fc2f007e
:10462800008060000050a000200888001e0178006b
:104638009e0190000068290081c12400baf107009a
:104648000200200003282400b7f1070018c0b300b7
:1046580002f02f00f37724006df007000000e0005f
:1046680001003c000044eb000804e00010003200a8
:104678002108800000032000010070002008880045
:104688001e0178009e0190000068290081c1240065
:10469800a5f107000200200003382400a2f107005a
:1046a8005df007000000780010088800200037003f
:1046b8001e0178009e0190000068290081c1240035
:1046c80099f10700020020000328240096f1070052
:1046d80051f0070000007800100888001400370027
:1046e8001e0178009e0190000068290081c1240005
:1046f8008df1070002002000031024008af1070052
:1047080045f007000000780010088800080037000e
:104718001e0178009e0190000068290081c12400d4
:1047280081f107003cf007000000780010088800bd
:104738004f0478000080fa00000006000000fa002c
:104748001fe1a9001e21a9000368a9002368a80089
:104758001fe1a80000002000a14724000200070074
:104768000080fa00000006000400fa00881f7800a4
:10477800008fbe00f1088000f0fc2f000080600070
:10478800f00888001e0178009e019000006829004a
:1047980081c1240064f1070018c0b30002f02f00a3
:1047a800f37724001af007000000e00001003c0045
:1047b8000044eb000804e00054003200f1088000d7
:1047c800f0fc2f00008060000040a000f008880086
:1047d8001e0178009e0190000068290081c1240014
:1047e80051f1070002002000031024004ef10700d9
:1047f80018c0b30002f02f00f377240004f007007c
:104808000000e00001003c000044eb000804e00068
:1048180032003200f1088000f0fc2f0000806000b8
:104828000050a000f00888001e0178009e0190004a
:104838000068290081c124003bf107000200200024
:104848000328240038f1070018c0b30002f02f0035
:10485800f3772400eeef07000000e00001003c00c1
:104868000044eb000804e00010003200f10880006a
:104878000003200001007000f00888001e01780085
:104888009e0190000068290081c1240026f10700dc
:10489800020020000338240023f10700deef0700a0
:1048a80000007800d0088800200037001e0178003a
:1048b8009e0190000068290081c124001af10700b8
:1048c800020020000328240017f10700d2ef070098
:1048d80000007800d0088800140037001e01780016
:1048e8009e0190000068290081c124000ef1070094
:1048f80002002000031024000bf10700c6ef070098
:1049080000007800d0088800080037001e017800f1
:104918009e0190000068290081c1240002f107006f
:10492800bdef070000007800d00888004f04780029
:104938000080fa00000006000400fa00881f7800d2
:10494800008fbe0018c0b3006011b8001e007800c8
:104958009e009000aeef07000000e00001003d005f
:104968000044eb000804e000030032001e00780059
:104978009e009000030037001e0078009e00900003
:1049880001f0a2004f0478000080fa000000060041
:104998000800fa00881f7800008fbe0064004700f6
:1049a8000288be0018c0b3006400470010017800f8
:1049b800900190001e0078009e00900094ef070080
:1049c8000000e00001003c000044eb000804e000a7
:1049d800030032001e0078009e009000030037009c
:1049e8006400470090009000100078004f047800a1
:1049f8000080fa00000006000800fa00881f78000e
:104a0800008fbe00640047000288be0018c0b300d3
:104a18006400470010017800900190001e007800a3
:104a28009e00900078ef07000000e00001003500cc
:104a38000044eb000804e000030032001e00780088
:104a48009e0090000300370064004700900090002b
:104a5800100078004f0478000080fa00000006007b
:104a68000c00fa00881f7800008fbe006400470021
:104a78000288be00680047000488be0018c0b30062
:104a88006400470010017800900190001e00780033
:104a98009e0090005cef07000000e0000100350078
:104aa8000044eb000804e000040032006400470002
:104ab80090009000100078001200370018c0b30072
:104ac8006800470010017800900190001e007800ef
:104ad8009e0090004eef07000000e00001003c003f
:104ae8000044eb000804e0000400320068004700be
:104af8009000900010007800020037001e00780037
:104b08009e0090004f0478000080fa000000060024
:104b18000800fa00640147000089be0064004700ed
:104b2800b2fd20009304240090009000100078004b
:104b38008fef0700b2fd2000930c2400def307007e
:104b4800b2fd20009304240092ef0700008fbe00fe
:104b5800b2fd2000930424001e0078009e009000ff
:104b68008cef0700b2fd2000930c2400d2f307005d
:104b7800b2fd2000930424007def07000080fa00b6
:104b8800000006000a00fa006601470000097800e4
:104b98006800470001087800660047009000780028
:104ba8006800470010007800008f40009e007800e1
:104bb8000e80e80031187800211078000e80e80097
:104bc80090009000100078000080fa0000000600b5
:104bd8000600fa000e81e80000097800640047002a
:104be800010878000e80e800900078006400470013
:104bf80010007800008f40001e00780090009000a0
:104c0800100078000080fa00000006000c00fa008e
:104c180064024700000a780066004700010878002f
:104c2800680047000288be00e80047000e80e800e0
:104c3800010878000000eb00000f78000d00370035
:104c480066004700100078001e004000e40047009e
:104c580091007800008040001e0178008e80e800f6
:104c680091007800828040009140780001487800e7
:104c78001e0fe8001e007800e30f5000f0ff34001c
:104c88000080fa00000006000c00fa0064024700e9
:104c9800000a7800660047000108780068004700ad
:104ca8000288be00e80047000e80e800010878008e
:104cb8000000eb00000f78000e0037006600470088
:104cc800100078001e004000e400470091007800c2
:104cd80000804000320020009e0051000e81e80054
:104ce8001201780081004100914078000148780065
:104cf8001e0fe8001e007800e30f5000efff34009d
:104d08000080fa00000006000c00fa006402470068
:104d1800000a78006600470001087800680047002c
:104d28000288be00e80047000e80e800010878000d
:104d38000000eb00000f78000d0037006600470008
:104d4800100078001e004000e40047009100780041
:104d5800008040001e0178008e80e80091007800f5
:104d68008280400091407800014878001e0fe800da
:104d78001e007800e70f5000f0ff34000080fa00b2
:104d8800000006000000fa001160800080ff2f007c
:104d9800008060001060880000fa20002060880011
:104da80023aca800238ca80011618000f03f2f00dd
:104db8000080600000a0a000106188003000200082
:104dc80020618800c3aca800c38ca80011668000cd
:104dd800f03f2f000080600000a0a000106688004f
:104de800300020002066880001eca8000080fa004e
:104df800000006000600fa00008fbe0064004700ad
:104e08000248780064004700104078000004e00081
:104e180004003a001e0178009e019000e297880085
:104e2800f39788006400470010407800e14f500075
:104e380004003a001e0178009e0190002298880024
:104e4800339888000080fa00000006000000fa008d
:104e5800889fbe008a9fbe004498800055988000b5
:104e6800209880003198800018c0b3000001be006f
:104e78000400be0064ee07000000e00001003500f9
:104e88000044eb000804e0000f003200289880007e
:104e9800399880004a9880005b98800046d0bf000f
:104ea8000080fb00cf80de0097ee07000001be0007
:104eb8000a00be00b7ee07000801be00cefe0700dc
:104ec8004098880051988800449880005598800040
:104ed800209880003198800018c0b3000001be00ff
:104ee8000400be004aee07000000e00001003c009c
:104ef8000044eb000804e0000f003200289880000e
:104f0800399880004a9880005b98800046d0bf009e
:104f18000080fb00cf80de007bee07000001be00b2
:104f28000a00be0092ee07000801be0098fe0700c6
:104f380040988800519888004098800051988000d7
:104f480018c0b3006011b80031ee07000000e0009f
:104f580001003c000044eb000804e00004003200bb
:104f6800c3cca80024cea800c3eca90003003700d6
:104f7800c3cca90024eea800c3eca8004098800088
:104f8800519880006cfe07000200200003222400d4
:104f980044f0070041ee0700000078003066880002
:104fa8000498800015988000e0978000f1978000b1
:104fb80018c0b3000001be000400be0012ee0700d6
:104fc8000000e000010035000044eb000804e000a8
:104fd8000f003200e8978000f99780000a98800057
:104fe8001b98800046d0bf000080fb00cf80de0009
:104ff80045ee07000001be000a00be0065ee07008e
:105008000801be007cfe07000098880011988800ff
:105018000498800015988000e0978000f197800040
:1050280018c0b3000001be000400be00f8ed070080
:105038000000e00001003c000044eb000804e00030
:105048000f003200e8978000f99780000a988000e6
:105058001b98800046d0bf000080fb00cf80de0098
:1050680029ee07000001be000a00be0040ee07005e
:105078000801be0046fe07000098880011988800c5
:10508800009880001198800018c0b3006011b80023
:10509800dfed07000000e00001003c000044eb00e9
:1050a8000804e0000400320023cca90015eea80093
:1050b80023eca8000300370023eca90015cea800b4
:1050c80023cca80000988000119880001afe0700e1
:1050d8000200200003222400f2ef0700efed070092
:1050e80000007800306188004f05be004f04be0004
:1050f8000080fa00000006000c00fa00b102070068
:10510800ef0107000efd07008cfd0700f3fc070008
:105118001cff0700a001070070020700cafb070078
:10512800d2fb070064cea90064eea900254ea900b1
:10513800df010700d6010700000f78001e80e80095
:10514800100078008000eb00f2ed070032332300f6
:1051580033052400d3ef0700020020000358240081
:10516800f1ee0700d2cc2c00c3042400cdef0700d9
:105178000e81e8000089be000e80e800100178006a
:10518800900190000000200081202400e6ee070036
:1051980002002000030a2400f5ed07009eed070039
:1051a80000007800809888009e00780064804000a5
:1051b800100078008000eb00d6ed070032332300a2
:1051c80033052400b7ef070002002000035824002d
:1051d800d5ee0700d2cc2c00c3042400b1ef0700a1
:1051e8000e81e8000089be000e80e80010017800fa
:1051f800900190000000200081202400caee0700e2
:1052080002002000030a2400d9ed070082ed070000
:1052180000007800909888009e0078006680400022
:10522800100078008000eb00baed0700323323004d
:10523800330524009bef07000200200003582400d8
:10524800b9ee0700d2cc2c00c304240095ef070068
:105258000e81e8000089be000e80e8001001780089
:10526800900190000000200081202400aeee07008d
:1052780002002000030a2400bded070066ed0700c8
:1052880000007800a09888009e00780068804000a0
:10529800100078008000eb009eed070032332300f9
:1052a800330524007fef0700020020000358240084
:1052b8009dee0700d2cc2c00c304240079ef070030
:1052c8000e81e8000089be000e80e8001001780019
:1052d80090019000000020008120240092ee070039
:1052e80002002000030a2400a1ed07004aed070090
:1052f80000007800c09888001e0078001000780030
:105308008000eb0083ed07003233230033052400cf
:1053180064ef0700020020000358240082ee070013
:10532800d2cc2c00c30424005eef07000e81e800f5
:105338000089be000e80e8001001780090019000fe
:10534800000020008120240077ee070002002000e2
:10535800030a240086ed07002fed070000007800ff
:10536800b0988800c098800080427800a09880009b
:1053780000427800909880008041780080988000f2
:1053880000417800b09880008040780066004700af
:10539800054878006700470004487800680047001f
:1053a8000348780069004700024878006a0047000f
:1053b800014878006600470000017800510020008d
:0c53c8000003200002fa070059ff370024
:020000040000fa
:1053d400241000000800000080000000fa12000001
:1053e4004800000080000000461000000200000099
:1053f4008200000001000000181000000c000000f2
:10540400800000002c100000080000008000000054
:105414007a11000080000000800000003c100000b1
:105424000600000080000000fa1100008000000067
:105434008000000042100000040000008000000012
:105444007a12000080000000800000003410000088
:105454000800000080000000001000001800000098
:1054640080000000481000000200000080000000de
:105474004a10000030010000820000000300040014
:105484000004000006008300f9a20000444e6e00f0
:1054940000fc29001500d10057270000dd34f50079
:1054a4000062db00c0003c0099950000419043007d
:1054b40000635100fe00bb00deab0000b761c50015
:1054c400003a6e002400d2004d4200004906e0007c
:1054d4000009ea002e001c0092d10000eb1dfe0022
:1054e4000029b1001c00e8003ea70000f535820049
:1054f4000044bb002e009c00e9840000b426700028
:1055040000417e005f00d6009139000053833900ca
:10551400009cf40039008b005f84000028f9bd0072
:1055240000f81f003b00de00ff9700000f98050005
:1055340000112f00ef000a005a8b00006d1f6d0050
:1055440000cf7e0036000900cb270000464fb7008d
:10555400009e66003f002d00ea5f0000ba27750038
:1055640000e5eb00c7003d007bf10000f7390700c0
:10557400009252008a00fb006bea00001fb15f003a
:1055840000085d008d003000035600007bfc4600df
:1055940000f0ab006b002000bccf000036f49a0092
:1055a40000e3a9001d005e0061910000081be600f5
:1055b400008599006500a000145f00008d4068001c
:1055c4000080d800ff002700734d0000060631005c
:1055d40000ca56001500c900a87300007be26000f1
:1055e400006b8c00c000da000fc93f006821a200e4
:1055f40033c43400c2278b0062c61b001cdc80004d
:105604000f022900d1031400000000000000000074
:0856140000000000000000008e
:020000040000fa
:10561c000600fa000e81e8000009780064004700db
:10562c00010878000040eb00004f780053000700a1
:10563c00e400470091007800810f50001300350002
:10564c000040eb00004f7800070037001e80fb0085
:10565c008e80e800910078000080400010407800b7
:10566c000c0007001e4fe8001e80fb00e400470002
:10567c0091007800810f5000f4ff35002c000700da
