:020000040000fa
:080000000002040000000000f2
:020000040000fa
:0400080002040000ee
:020000040000fa
:04000c0044040000a8
:020000040000fa
:040010008404000064
:020000040000fa
:0400140022040000c2
:020000040000fa
:04001800640400007c
:020000040000fa
:04001c00d00400000c
:020000040000fa
:04002000a404000034
:020000040000fa
:04002400d004000004
:020000040000fa
:04002800d004000000
:020000040000fa
:04002c00d0040000fc
:020000040000fa
:04003000d0040000f8
:020000040000fa
:0400340002030000c3
:020000040000fa
:04003800d0040000f0
:020000040000fa
:04003c00d0040000ec
:020000040000fa
:04004000d0040000e8
:020000040000fa
:04004400d0040000e4
:020000040000fa
:04004800fa020000b8
:020000040000fa
:04004c00d0040000dc
:020000040000fa
:04005000d0040000d8
:020000040000fa
:04005400be030000e7
:020000040000fa
:04005800940300000d
:020000040000fa
:04005c00700300002d
:020000040000fa
:04006000d0040000c8
:020000040000fa
:04006400d0040000c4
:020000040000fa
:04006800d0040000c0
:020000040000fa
:04006c00d0040000bc
:020000040000fa
:04007000d0040000b8
:020000040000fa
:04007400d0040000b4
:020000040000fa
:04007800d0040000b0
:020000040000fa
:04007c00d0040000ac
:020000040000fa
:04008000d0040000a8
:020000040000fa
:04008400d0040000a4
:020000040000fa
:04008800d0040000a0
:020000040000fa
:04008c00d00400009c
:020000040000fa
:04009000d004000098
:020000040000fa
:04009400580300000d
:020000040000fa
:04009800d004000090
:020000040000fa
:04009c00d00400008c
:020000040000fa
:0400a000d004000088
:020000040000fa
:0400a400d004000084
:020000040000fa
:0400a800d004000080
:020000040000fa
:0400ac00d00400007c
:020000040000fa
:0400b000d004000078
:020000040000fa
:0400b400d004000074
:020000040000fa
:0400b800d004000070
:020000040000fa
:0400bc00d00400006c
:020000040000fa
:0400c000d004000068
:020000040000fa
:0400c400d004000064
:020000040000fa
:0400c800d004000060
:020000040000fa
:0400cc00d00400005c
:020000040000fa
:0400d000d004000058
:020000040000fa
:0400d400d004000054
:020000040000fa
:0400d800d004000050
:020000040000fa
:0400dc00d00400004c
:020000040000fa
:0400e000d004000048
:020000040000fa
:0400e400d004000044
:020000040000fa
:0400e800d004000040
:020000040000fa
:0400ec00d00400003c
:020000040000fa
:0400f000d004000038
:020000040000fa
:0400f400d004000034
:020000040000fa
:0400f800d004000030
:020000040000fa
:0400fc00d00400002c
:020000040000fa
:04010000d004000027
:020000040000fa
:04010400d004000023
:020000040000fa
:04010800d00400001f
:020000040000fa
:04010c00d00400001b
:020000040000fa
:04011000d004000017
:020000040000fa
:04011400d004000013
:020000040000fa
:04011800d00400000f
:020000040000fa
:04011c00d00400000b
:020000040000fa
:04012000d004000007
:020000040000fa
:04012400d004000003
:020000040000fa
:04012800d0040000ff
:020000040000fa
:04012c00d0040000fb
:020000040000fa
:04013000d0040000f7
:020000040000fa
:04013400d0040000f3
:020000040000fa
:04013800d0040000ef
:020000040000fa
:04013c00d0040000eb
:020000040000fa
:04014000d0040000e7
:020000040000fa
:04014400d0040000e3
:020000040000fa
:04014800d0040000df
:020000040000fa
:04014c00d0040000db
:020000040000fa
:04015000d0040000d7
:020000040000fa
:04015400d0040000d3
:020000040000fa
:04015800d0040000cf
:020000040000fa
:04015c00d0040000cb
:020000040000fa
:04016000d0040000c7
:020000040000fa
:04016400d0040000c3
:020000040000fa
:04016800d0040000bf
:020000040000fa
:04016c00d0040000bb
:020000040000fa
:04017000d0040000b7
:020000040000fa
:04017400d0040000b3
:020000040000fa
:04017800d0040000af
:020000040000fa
:04017c00d0040000ab
:020000040000fa
:04018000d0040000a7
:020000040000fa
:04018400d0040000a3
:020000040000fa
:04018800d00400009f
:020000040000fa
:04018c00d00400009b
:020000040000fa
:04019000d004000097
:020000040000fa
:04019400d004000093
:020000040000fa
:04019800d00400008f
:020000040000fa
:04019c00d00400008b
:020000040000fa
:0401a000d004000087
:020000040000fa
:0401a400d004000083
:020000040000fa
:0401a800d00400007f
:020000040000fa
:0401ac00d00400007b
:020000040000fa
:0401b000d004000077
:020000040000fa
:0401b400d004000073
:020000040000fa
:0401b800d00400006f
:020000040000fa
:0401bc00d00400006b
:020000040000fa
:0401c000d004000067
:020000040000fa
:0401c400d004000063
:020000040000fa
:0401c800d00400005f
:020000040000fa
:0401cc00d00400005b
:020000040000fa
:0401d000d004000057
:020000040000fa
:0401d400d004000053
:020000040000fa
:0401d800d00400004f
:020000040000fa
:0401dc00d00400004b
:020000040000fa
:0401e000d004000047
:020000040000fa
:0401e400d004000043
:020000040000fa
:0401e800d00400003f
:020000040000fa
:0401ec00d00400003b
:020000040000fa
:0401f000d004000037
:020000040000fa
:0401f400d004000033
:020000040000fa
:0401f800d00400002f
:020000040000fa
:0401fc00d00400002b
:020000040000fa
:04020000d004000026
:020000040000fa
:04020400d004000022
:020000040000fa
:04020800d00400001e
:020000040000fa
:04020c00d00400001a
:020000040000fa
:04021000d004000016
:020000040000fa
:04021400d004000012
:020000040000fa
:04021800d00400000e
:020000040000fa
:04021c00d00400000a
:020000040000fa
:04022000d004000006
:020000040000fa
:04022400d004000002
:020000040000fa
:04022800d0040000fe
:020000040000fa
:04022c00d0040000fa
:020000040000fa
:04023000d0040000f6
:020000040000fa
:04023400d0040000f2
:020000040000fa
:04023800d0040000ee
:020000040000fa
:04023c00d0040000ea
:020000040000fa
:04024000d0040000e6
:020000040000fa
:04024400d0040000e2
:020000040000fa
:04024800d0040000de
:020000040000fa
:04024c00d0040000da
:020000040000fa
:04025000d0040000d6
:020000040000fa
:04025400d0040000d2
:020000040000fa
:04025800d0040000ce
:020000040000fa
:04025c00d0040000ca
:020000040000fa
:04026000d0040000c6
:020000040000fa
:04026400d0040000c2
:020000040000fa
:100400004f7921000eff27000e0188000000000038
:10041000000020000000e000020032000001200087
:1004200020028800140007005f0107000000e000c0
:1004300003003a00c0f4230001002000020037004e
:100440000000200001002000810f70000100320038
:100450000f000700000020000000e0000200320052
:100460000000020000000000ca1f0200000000009f
:100470000040da000000fe00600220000000e00002
:1004800002003200002020009001880000000600d9
:10049000a1028800800478000000eb001f003700f4
:1004a000e284440054a0b4009905ba00e2844400f8
:1004b00054a0b4009906ba00e284440054a0b400e9
:1004c0000006eb00476fde00fd07b200ae018800ba
:1004d000636ce10003003a000ad801000000eb0061
:1004e0000e003700606ce10008003a00004deb00a0
:1004f0000a05e800020039003420ec000af0a000f0
:100500008b05e900f9ff3e00040037006168e10057
:10051000010032000086eb000b00070019c7ba008b
:100520000e04e0001905ba0003003a000a00e000da
:10053000dbff3a0000000600fe07b200ae028800b2
:100540008a047800f5ff37000cd0a300e20f4d00bd
:100550001c003b0089027800354dba000a05e8000e
:10056000020039003420ec000af0a0008b05e900fd
:100570000f003200254dba000a05e80002003900dc
:100580003420ec000af0a0008b05e90008003200de
:100590000c00e0000600320015cdba000a05e800a4
:1005a000020039003420ec000af0a0008b05e900bd
:1005b0008984e80054a0b4000b00e000e2ff3a0098
:1005c000000006009902ba00055d78008b05e9007d
:1005d000f7ff3200c82ade00055d78008b05e900d0
:1005e000f3ff32000c00e000f1ff320019ddba0029
:1005f000eeff37000000fa000108a9000080fa00b1
:10060000004006003600f800809fbe00829fbe00ba
:10061000849fbe00869fbe000000fa000068a9000b
:10062000231d070064200700b21a070070818000b4
:100630000000e00005003200808180000000e00042
:1006400001003200be16070014130700e08180008d
:100650000000e800e0818800e0818000f90f500090
:100660000c003a008b1b07008000eb00c05e2100ed
:10067000d71b07001100200040622100d41b070097
:1006800021002000c0652100d11b0700ab18070026
:100690003c30ef000080fa004f03be004f02be0066
:1006a0004f01be004f00be003600f90000400600ba
:1006b000809fbe000000fa000368a900c08180008e
:1006c000d181800061004000e0804800c081880046
:1006d000d18188000080fa004f00be000040060073
:1006e000801f78000000fa0001a8a900001880000f
:1006f00040bc88001018800050bc88002018800082
:1007000060bc88003018800080bc880040188000e1
:1007100070bc880010c0b30057f0b7000080fa002a
:100720004f007800004006003600f800809fbe00b1
:10073000829fbe00849fbe00869fbe000000fa001c
:100740000188a9005182800040828000808f500083
:1007500002003200ca1e0700010037004c70ef0093
:100760000080fa004f03be004f02be004f01be00e2
:100770004f00be003600f900004006003600f800c9
:10078000809fbe00829fbe00849fbe00869fbe00e9
:100790000000fa000168a9001011800064006000e8
:1007a0000000e000010032002242a9001011800088
:1007b000620060000000e000060032002222a90072
:1007c000050037003011800000407800ce1e070081
:1007d000010037000000000010118000610060007f
:1007e0000000e000f7ff3a000080fa004f03be006f
:1007f0004f02be004f01be004f00be003600f900a0
:10080000004006003600f800809fbe00829fbe00b8
:10081000849fbe00869fbe000000fa00c028a90089
:100820000000eb002e2007000080fa004f03be00fe
:100830004f02be004f01be004f00be003600f9005f
:10084000004006003600f800809fbe00829fbe0078
:10085000849fbe00869fbe000000fa00252007008e
:10086000c048a900100020001d2007000080fa00e9
:100870004f03be004f02be004f01be004f00be003e
:100880003600f900004006003600f800809fbe00e8
:10089000829fbe00849fbe00869fbe000000fa00bb
:1008a000c068a900200020000d2007000080fa0089
:1008b0004f03be004f02be004f01be004f00be00fe
:1008c0003600f900004006003600f800809fbe00a8
:1008d000829fbe00849fbe00869fbe000000fa007b
:1008e000c088a90030002000fd1f07000080fa002a
:1008f0004f03be004f02be004f01be004f00be00be
:100900003600f900004006003600f800809fbe0067
:10091000829fbe00849fbe00869fbe000000fa003a
:10092000c608a90070002000ed1f07000080fa0033
:100930004f03be004f02be004f01be004f00be007d
:100940003600f900004006003600f800809fbe0027
:10095000829fbe00849fbe00869fbe000000fa00fa
:100960002146800000022000008060000000e000be
:1009700003003200c4a8a90090002000d81f07007f
:1009800020468000700060000000e000030032009c
:10099000c488a900a0002000d11f0700ffff370076
:1009a0000040da000000fe000000050014002000f6
:1009b000af033700f4ff2f00ad0337000001be0086
:1009c000410007000470a70003f0a1006509b10011
:1009d000160032000d0035006828e10006003500e1
:1009e000f0ff2f00f1ff27000300e00013003b00a1
:1009f0000100280000000500000040008180480040
:100a00008502e900fcff3a0008003700f88f420039
:100a100002003c008000eb00000005008100d100d6
:100a20000080d3008502e800fcff3a000300e000ec
:100a300002003b0060001000e0801800000006008b
:100a40000001be00200007000470a70003f0a10011
:100a500003f8a30013003a006509b100100032004a
:100a6000090035006928e100020035000100280076
:100a70000000050000004000818048008502e90078
:100a8000fcff3a0000000600f88f42000500350028
:100a90008100d1000080d3008502e800fcff3a000d
:100aa000000006008000eb00000005004f89de001a
:100ab00082017800890337006011b800970337007e
:100ac000040020006a033700c70ade00f107b20005
:100ad000f50fb20008003200e1cf42000200320000
:100ae0000170a00024000500810f70000100320099
:100af0000408050044000500810f700002003a0060
:100b0000140005008502e9000000400081c0480093
:100b1000fcff3b000170a0002400050007f827003f
:100b2000078361000638e10004003a00f70720005f
:100b3000878361008703710001003a0003f0a2007f
:100b4000889fbe008a9fbe008c9fbe00470ade00c1
:100b50000480a100c71ade000580a100070028005c
:100b60000785600087856100f70f20000720e100fe
:100b70009e0032000728e1009c0032000106780048
:100b80000400e000b4003200f70720008780600016
:100b90000170a0000500e000c0003200f70720004f
:100ba000878161000370a000050652000f003a0023
:100bb0000b50e1000b0032000308e10002003a0094
:100bc0000200e1007e0032000204500083845800dd
:100bd000040031000001fd008101fd008402fd00e0
:100be0008a05fd006044b800210037000520e100bf
:100bf00005003d000001fd008101fd008402fd00b3
:100c00008a05fd00050652007a60e1000500350006
:100c10000170a1004722dd00848070008a8070008e
:100c2000630037006044b800ef02660007ff2f0042
:100c3000070666000500e00006003400f08312009d
:100c40008714dd000511de00071bdd0006017100c1
:100c50008519de007060e1000500350009047800a8
:100c600082047800030178008001eb0070065600d2
:100c70000b50e10003003a0002004000838048006e
:100c80000400370060041400e0841c0002005800d7
:100c9000838058000188a300060032008100d10043
:100ca0000080d3008984d3000884d3000402e800c4
:100cb000270037000178a30025003a000100e0007a
:100cc000030032008186cf00698656000a00370093
:100cd0008c0020000000e00004003a0009007800c9
:100ce000880478000004eb00700252008086cf0078
:100cf0000d0646000c06e9007060e10006003500b4
:100d00008000780009007800880478000004eb0077
:100d100070065600700252000c00e0000c00340017
:100d20008c08dd00f00316000703de0086807000eb
:100d30000c00dd00074bde00060070008c4cdd006f
:100d40000743de00868474000c44dd000c02520070
:100d50006120e100200035006101600007002800eb
:100d600087816400f7ff270087836400070374000e
:100d70000300e0000600320082037300040032002a
:100d80000000e800e08048000188a3000e003a005f
:100d9000f70f20000720e1004a003d000170a1008c
:100da0004722dd00810072008a8070000000be00d2
:100db0004f06be004f05be004f04be0000000600f7
:100dc0006000b800faff37008100d1000080d30036
:100dd0000402e800eeff3700040178008901740086
:100de000a10107008a807000f1ff3700f7010700ba
:100df000070278000001fd008101fd00f3010700fa
:100e000087027800850372000778a300040032008f
:100e10000001fd008101fd0006020700e4ff37002c
:100e2000850362000768a300080032000b50e10050
:100e300003003200f0ff2f00f1ff2700dcff370036
:100e40000001fd008101fd00d9ff37000468a30007
:100e5000d7ff3200faff3700f8ff270088836000d1
:100e60000b003a000000e00009003a008303640030
:100e700082837300020032000200be00ccff370004
:100e80000b50e100ceff3a000200be00c8ff370061
:100e900014002000810064003eff3700f8ff2700a7
:100ea0008883610004003a000200e00002003a007a
:100eb0008c007800beff370015002000830164001d
:100ec00039ff370001f8270000002000810075007d
:100ed000b7ff3700889fbe008a9fbe008c9fbe0070
:100ee0001b0020000202be000586680006002800e4
:100ef000060666004709de00f20fb20082003200eb
:100f00000243e80080003200c729de00f30fb20080
:100f10007d0032000343e8007b003200f107b2009d
:100f20000170a000f507b2000570a000c708dd0041
:100f30004903de00868070004700dd00c72add001f
:100f40004923de00868272004722dd00030551003e
:100f50000403500085835800030031000000400066
:100f6000818048000a05e9008c1f78008a9fbe0036
:100f700004005000858058000402420085824a0027
:100f800000004000818048000005eb000004be0026
:100f90006033b8000406be000d48e1005600310081
:100fa000110009004dccd8000c01b8000d02b800aa
:100fb0008481410060824a008283530003045c0004
:100fc00084845c0060055d000a00e00025003a00b2
:100fd000800578000d40e10049003100880078006c
:100fe00007007800110009004d88d8000c01b800f6
:100ff0000d02b8008481410060824a006003110044
:1010000083835b0004045c00e0845c000900e00072
:1010100021003a004f01be000300e0002b00320027
:10102000e3016000070673008c817100010032004b
:10103000640070004200de004e5edd000c007000b7
:10104000c258de0001e0a00083010700cf01780054
:10105000818071004f06be004f05be004f04be00e8
:10106000000006008c8343000d044c00e0844c001b
:1010700060054d000000e9000a00e000d4ff3200e6
:101080008c8343000d044c00e0844c0060054d004f
:101090000000e900ceff37000c0343008d834b00b6
:1010a00060044c00e0844c000000e9000900e0000e
:1010b000d8ff32000c0343008d834b0060044c00ca
:1010c000e0844c000000e900d2ff37004200de005f
:1010d0004e5edd000c007000c258de0001e0a00092
:1010e000cf0178000300e000daff3200600010005a
:1010f000e0801800d7ff3700f0ff2f00aaff37006d
:10110000f0ff2f00b9ff37000404be002f010700d5
:10111000870678000004fd008104fd002b01070014
:10112000078366000678a300030032000960a70069
:101130000800be002c0037000d78a300020032002a
:101140000800be00280037000778a30026003a00f8
:1011500001f0a10009f0a1000668a300030032001d
:10116000f1ff2700f0ff2f00baff37000d68a30042
:10117000030032000800be008c807000b5ff37000d
:101180000768a30007003a000648a30003003200e6
:10119000f1ff2700f0ff2f00aeff37000d48a3003e
:1011a000030032006000b8008c807000a9ff370097
:1011b0000748a3000400320001f8270000002000c7
:1011c0008c807000a3ff3700760107000004fd004b
:1011d0008104fd0002057800720107000802be00cc
:1011e0008a01780059ff37000160a0001202200038
:1011f000d282880097ff37000100e0001200320021
:101200000500e00010003200889fbe008a9fbe00eb
:101210008c9fbe000006eb0001f8a3000300320023
:1012200060001000e08018000cf0a00005f8a3009a
:101230000300320060021200e0821a000cf0a200eb
:101240008005eb0041ff37006000b8000200050098
:10125000038368000700280007036300470ade00d5
:101260000480a100c71ade000580a100f70f20004e
:101270000720e100420032000728e1004000320070
:10128000889fbe008a9fbe008c1f7800f107b200c5
:10129000f307b2000400e000640032000170a00017
:1012a0000500e000680032000370a00085054200e0
:1012b000eb07b1000204b8000302b80084844400c4
:1012c00060854a00020ab800848444000a854a0006
:1012d000030ab80004054500040033000804d000e8
:1012e0008984d2000a85d2008b05e9006158e100ab
:1012f0003d003500021020000901610003082000b4
:1013000089816100f70720008783640008867300e5
:10131000c84cde00c853dd00878474004855de00e9
:101320000300e00006003200820376000400320071
:101330008904e80060054d000a88a3000c003a000b
:10134000f70f20000758e10044003d000a70a1009b
:10135000c75ddd000a8575008a007300090078000a
:101360004f0678004f05be004f04be000000060087
:101370000a05d1008984d3008b05e800f0ff37000f
:10138000881f7800060478009000070007027800a4
:101390000001fd008101fd008c000700870278003c
:1013a000850372000778a300050032000001fd00ec
:1013b0008101fd009f0007004f0478000000060037
:1013c000850372000748a30003003200f0ff2f00de
:1013d000f1ff2700f8ff37000000200001f8270088
:1013e00088807000f4ff3700880178004848dd00ed
:1013f000808171004848de00c850dd0001007000a7
:10140000c850de00060478000b01780016000700c3
:1014100088807000d2ff37000500e0000500320030
:10142000170020003a0007009dff3700810370007d
:10143000f9ff3a00860078004f0678004f05be009d
:101440004f04be000000050083037100f9ff320065
:10145000270020002e00070094ff370001f8270026
:1014600086807000f4ff37000100e00026003200a3
:10147000610111007810e10023003c006022b800f7
:101480007010e1000400350080027800010078004f
:101490008000eb00700151000200e0000900340000
:1014a00070031100062add00822ade008603dd00bb
:1014b000878272000200de00860bdd0007007000ec
:1014c0008208de0084817100f4ff2700048262003c
:1014d000848171000400280084826200610260003f
:1014e00005f0a6000000060004827100070032002b
:1014f0000000e800e0804800000006000002be0096
:101500006000b800efff37006000b8000000060080
:10151000889fbe000004eb006138e10016003a002d
:101520000100e00008003a00c800de004800dd00cd
:10153000880020000100e00003003a00c800de003f
:101540004800dd00680444008184cf00e984540031
:10155000060034008908dd00f08314008703de00f4
:10156000878070000900dd00090444006102140056
:101570004f04be00000006000300e00008003a002f
:10158000c811de004811dd00880020000300e000e3
:1015900003003a00c811de004811dd006804440071
:1015a0008384cf00e9845400060034008919dd00eb
:1015b000f08314008713de00878171000911dd00bc
:1015c00009044400e1021400e9ff3700270020006d
:1015d00001f0a70017002000470bde00f60fb20055
:1015e000040032000643e8000a0032004702b3005c
:1015f0000000060001037800f607b2000603700041
:1016000002003a000703b300000006008702b3009f
:101610000000060001037800f607b2000603700020
:10162000020032000770a000000006000760a00062
:10163000000006000478a300040032000578a3002f
:10164000030032000168a30001003a000200be005e
:101650000160a00000000600810170002700320038
:101660008002eb0001f8a3000300320060001000cc
:10167000e080180015002000f4072000020242005c
:1016800020003400f70320008703600006042000d8
:101690000003630002082000000161004700de0033
:1016a000c909dd0000807100c708de000600e00007
:1016b0000800320087037100060032001000b000fd
:1016c0000180b0000188a30002003200c108de00e2
:1016d0000402e800f107b200f30f20000320e1004c
:1016e00003003d004722dd00810072002900370021
:1016f00001f827000000eb00260037006000b8006a
:1017000000000600680212007f20e10002003400a1
:101710006000b8001f0037006011b8007020e100c1
:101720000400350080017800010078008000eb00a3
:10173000700252000400e00009003400f0031200bf
:101740000719dd008419de000703dd0086817100c2
:101750000400de00070bdd00060070008408de00d8
:10176000f7ff2700838363008703710006002800ca
:1017700003036300070032000700e00003003a00a3
:101780006101600002817300020032001000b000ad
:101790000180b0000500a6000000060001f0a000d6
:1017a000000006004f0ade004709de00f107b20024
:1017b000f20fb2000b003200f207b1000170a0007e
:1017c000c708dd00c901de00838070004700dd002e
:1017d0000400a6000000060060001000e080180071
:1017e00000000600810f700001003a0000000600b2
:1017f0008182cf000500e00010003e008082cf0013
:10180000ee8242007028e1000400390007003e002b
:10181000800078000000eb000e003700708312009b
:101820008600de000500dd000a00370070835200ec
:101830008600dd000000eb0006003700e282520067
:101840008508dd00708312000603de0086807000cc
:101850000500dd007507b0000501ea000400a600e0
:101860000000060060001000e08018000000060084
:10187000889fbe008a9fbe00841f78007c000700fe
:101880004f00780011003300f0ff2f00838f6c00b1
:1018900006003b00040565000a00a70008003700a9
:1018a00009f0a6001000200008003700820f540045
:1018b000838f5c00030039001000200001003e000f
:1018c0000000200009f0a7000000ea004f05be005c
:1018d0004f04be000000e00000000600881f7800f2
:1018e000030478000300e00007003d0060001000e2
:1018f000e080180060011900e081190002003b003f
:1019000001f02d00030037000400070008f0a700d5
:1019100001f0a0004f04780000000600889fbe0080
:101920008a9fbe0000827000040271000482710070
:10193000260032000004be000200be006011b800a4
:101940006b092000950220000182cf000a003900b7
:101950000541b1000082cf00070039000541b10008
:101960000982cf00040039000541b1000882cf0090
:10197000010039000541b100054252001200320059
:101980000a003b0082817100610164008100d10086
:101990000080d3008984d3000884d3008b05e8003d
:1019a0000442e800f7ff3a0007003700080444004b
:1019b00089844c0000004800818048008b05e900c4
:1019c0000442e900f9ff3a00030007004f05be009a
:1019d0004f04be0000000600810020006180550019
:1019e0000b003d000b00200061fe2f000100e10014
:1019f0001d00340082817100610164008904d100fe
:101a00000884d3000000e800faff3a0071002000cb
:101a100061006400030070000200600009003200f1
:101a200061044400e0844c000988a50005003200f0
:101a30008b05e8006808e10002003a008904d10043
:101a40000884d300f20f20000258e10005003d0099
:101a5000c75ddd00f907b2008980750008007800d5
:101a6000000006000bf827008b007800000005003e
:101a70000004be0014fc07000003be000405be0005
:101a80000200be0010fc0700844f75000000060035
:101a9000000006000800fa00889fbe008a9fbe0072
:101aa0008c9fbe000004be000200be00e2b79f0093
:101ab000f3b79f00f6ff07008102780005f0a10050
:101ac000000278000c0020000df827006fb197008d
:101ad000ffb197008c0f52008d8f5a000a003e0014
:101ae0000800be00eaff07008102780005f0a100af
:101af000000278006fb19700ffb197008c0f520081
:101b00008d8f5a00030036000800be000cfc070051
:101b1000980037000203be000000200001f82300f7
:101b2000800f5300818f5b0003003a000800be0065
:101b3000010307008f0037000802be004e3dde00a3
:101b40000b0020006000b800620065004f4dde0011
:101b50000b0020000a0570008b857000850078005e
:101b600001f0a10008007800e00f5000e08f58005d
:101b700007003a00e20f5500e08f5d0033003200ad
:101b8000e30f5500e08f5d007b003a003200370024
:101b90008702780005f0a10006027800e00f5200ed
:101ba000e08f5a003b0032008c0f52008d8f5a009c
:101bb0002c003a00840f5000858f580018003a001e
:101bc000e20f5500e08f5d0009003200e30f550081
:101bd000e08f5d0009003200e10f5500e08f5d00ed
:101be0005b003200b8fd200099f42300620037004a
:101bf000020020000304240002003700020020003d
:101c000003042c00b0fd20009104240090fd070087
:101c10000200200003e823008dfd07005500370077
:101c2000e20f5500e08f5d0008003200e30f550021
:101c3000e08f5d00080032006044b800e10f5500fd
:101c4000e08f5d004c003a0044003700b8fd2000f2
:101c50009904240048003700b8fd200099042c00a6
:101c6000450037000600200007d020000403430091
:101c700085834b0086bf9f0097bf9f00800f530056
:101c8000818f5b00030039008c0f50008d8f58004e
:101c900005003a000a08a30033003200b8fd200016
:101ca00099fc2b00340037006033b80062036500f4
:101cb000e00f5300e08f5b00080032000c002000b2
:101cc0000dd020000003460081834e006000b80064
:101cd000840f5300858f5b00040039000800be00ac
:101ce0007cfc07006c03070093020700e10f55001e
:101cf000e08f5d00050032001e003900e20f550044
:101d0000e08f5d000b003a00030037000004be00c6
:101d100009f0a20018003700e2d22b00b33b2300e9
:101d200087fb07000001be00b0fd200091042400e5
:101d300005003700e2d22b00b33b230080fb0700f5
:101d4000b2fd20009304240074fb07000900370053
:101d5000b8fd200099f42b00070037000800200090
:101d60000900280004003700b8fd200099fc23007a
:101d7000010037000004be000800be004f06be0090
:101d80004f05be004f04be000080fa0000000600b0
:101d90000800fa000002be008501780003f0a100ef
:101da00000017800a6fd200097f42300860f510063
:101db000878f590008003e00f4ff2f00f59723009d
:101dc000840f5100858f590055003e00000020000f
:101dd00001f82300600037004f0ade0005002000f4
:101de000163d2500b7072400860f5100878f590044
:101df00019003e0036be2c0067012400860f5100fa
:101e0000878f59000a0036000400e0000400320009
:101e1000b2fd20009304240049fb0700480037006e
:101e2000b2fd2000930424003cfb0700440037006f
:101e30000400e00004003200b2fd200093fc230007
:101e40003ffb0700430037000001be00b0fd20004b
:101e500091fc230019003700561d2300270e240093
:101e6000860f5100878f590016003e00f6dd2e00c8
:101e7000f70a2400860f5100878f59000a003600a8
:101e80000400e00004003200b2fd2000930c2400a6
:101e90002bfb070022003700b2fd2000930c24002a
:101ea0001efb07001e0037000400e00001003200a6
:101eb00001f0a20042be2c006309240017fb0700ba
:101ec00024003700f4ff2f00f5f72700840f51009e
:101ed000858f5900030036000001be000ffb07008c
:101ee0001d003700688157001e0307006011b8000d
:101ef00063016000e10f5100e08f59000a003200d9
:101f0000e20f5100e08f59000b003200e00f51004a
:101f1000e08f59000d003a004fb89700dfb89700e6
:101f2000e20207000c0037004fb89700dfb89700b7
:101f300001f0a200070037004fb89700dfb8970004
:101f4000da02070001f0a200030037004fb8970043
:101f5000dfb897005f0307000080fa00000006006a
:101f6000000006000400fa00889fbe008a9fbe00a1
:101f70008c9fbe000004be000205be0002064100a8
:101f800083864900e00f5600e08f5e0014003200a7
:101f90000200be0082bf9f0093bf9f00f0ff0700ba
:101fa0008102780005f0a100000278000000200006
:101fb00001f827000fb997009fb99700800f5200d2
:101fc000818f5a0006003e000802be00474bde002b
:101fd000070020000680fb00e14f430005003a00a7
:101fe0000800be009afc07000001be00b9fb070014
:101ff000090037000801440089814c008c0f510012
:102000008d8f590006003e0074003a006011b80040
:102010000800be008efc07000004be006f00370001
:102020000000e00013003a004949dd00c741de002e
:10203000830171004941dd00030037000000e90021
:102040000201410083814900e00f5100e08f5900f7
:10205000faff3d00e10010000401be008100e9002c
:10206000030033000201410083814900fbff370078
:102070000400370085017800f307b20008017800fa
:102080000370a000475bde00070020008600780098
:10209000f10fb20012003a00495bdd00c753de00c9
:1020a000870373004953dd00030037008100e90016
:1020b0000603430087834b00e00f5300e08f5b0073
:1020c000faff3d00618310000603e90003003300be
:1020d0000a0545008b854d00fbff370010003700d7
:1020e0008b037800f707b2000a0378000605be00ec
:1020f0000b70a0000a003700e00f5300e08f5b0078
:1021000004003500e00f5300e08f5b00bfff32009a
:102110000601be0002014100838149000000e90080
:102120000a0351008b835900810f5000f2ff3c00dd
:10213000e00f5300e08f5b0003003d000900370013
:102140000601be0007003700e00f5300e08f5b0080
:10215000fbff3a00adff37000201410083814900d7
:102160000000e900471bde0007002000e00f5300dd
:10217000e08f5b00f8ff32000000e0000a0034004e
:102180000600200007f82f000201430083814b0066
:10219000cf80de00c700dd000000200002017000db
:1021a0008381700006003700610010000000e90024
:1021b000030033008301d1000281d300fbff37000d
:1021c00000002000010028008583600000037800e3
:1021d00006017100878171000204be000800be0084
:1021e0004f06be004f05be004f04be000080fa003f
:1021f000000006000400fa00889fbe008a9fbe000f
:102200008c9fbe000004be004708de00f00fb20045
:1022100051092000810f500041003c000806be001b
:10222000e00f5400e08f5c0003003d000805be0095
:102230000bf0a200010037000805be00d107200006
:10224000810f50000a003c000200200003b024006f
:102250000a00be003afa070080bf9f0091bf9f00ae
:102260006011b8000800be00f9fb07002b00370022
:102270000200200003b024000a00be0030fa07006c
:102280000200200003b0240024fa07000a01be0067
:1022900022fa07000004be000200200003f0230021
:1022a000c4f907000000e000070034000a01be0086
:1022b0000800be0022fa07000200200003f82300f5
:1022c00016fa07000f0037000200200003f02b0071
:1022d0000800be00b5f907000000e00006003c0061
:1022e0000a01be000800be0015fa07000200200027
:1022f00003f82300020037000a01be000800be00f8
:102300000ffa0700e00f5600e08f5e0003003d006b
:102310000004be0009f0a200010037000004be0066
:102320000800be004f06be004f05be004f04be00b1
:102330000080fa00000006000800fa000002be005b
:102340008501780003f0a10000017800a6fd2000bf
:1023500097f42300860f5100878f590006003e0036
:10236000f4ff2f00f5972300840f5100858f59004b
:10237000640036005d0037004f0ade0005002000d3
:10238000163d2500b7072400860f5100878f59009e
:1023900019003e0036be2c0067012400860f510054
:1023a000878f59000a003e000400e000040032005c
:1023b000b2fd200093fc2300e1f907004f00370035
:1023c000b2fd200093fc2300d4f90700420037003f
:1023d0000400e00004003200b2fd20009304240059
:1023e000d7f9070040003700b2fd20009304240015
:1023f000caf907003c003700561d2300270e2400b1
:10240000860f5100878f590019003e00f6dd2e001f
:10241000f70a2400860f5100878f59000a003e00fa
:102420000400e0000400320042be2c0063092400d6
:10243000c3f907002800370042be2c0063092400be
:10244000b6f907002d0037000400e0000400320058
:10245000b2fd2000930c2400b9f9070023003700d7
:10246000b2fd2000930c2400acf907001f003700d8
:10247000f4ff2f00f5f72700840f5100858f5900d6
:10248000030036000001be00a4f907001d0037005c
:1024900068815700b30107006011b8006301600054
:1024a000e10f5100e08f590009003200e20f5100a6
:1024b000e08f59000a003200e00f5100e08f590010
:1024c0000c003a004fb89700dfb8970007003700bc
:1024d0004fb89700dfb89700740107000900370074
:1024e0004fb89700dfb8970001f0a200f90107008c
:1024f000040037004fb89700dfb897006b01070062
:1025000001f0a2000080fa0000000600889fbe00d3
:102510008a9fbe008c9fbe000004be000400200005
:1025200005f827008583600004037800840f5300ba
:10253000858f5b0007003a000801be000800be005e
:1025400043fb07000001be000800be007cf9070045
:1025500010003700e00f5000e08f58000f003c00e3
:102560008101780003f0a10000017800e00f510024
:10257000e08f59006a0032001002200090bc8800f1
:102580000801be000800be0064f907000001be009b
:1025900050fa07000004be0061003700478cde00df
:1025a000cf8cde00e00f5400e08f5c000f003a009b
:1025b0006044b800040037000000400081804800fb
:1025c00061044400e0844c00040020000508200061
:1025d0008181620004017800e00f5100e08f590012
:1025e000f5ff320061041400e0841c00f807b1001c
:1025f0000980b10081017800f307b2000001780082
:102600000200be000170a0000808a3000200320012
:1026100000004000818048008984d1000884d300f4
:10262000000040008180480094012000020020004a
:10263000031020006055b8006066b8000c0341002c
:102640008d834900800f5300818f5b0006003c00a2
:102650000606410087864900060050008780580022
:102660000a0541008b854900000040008180480038
:102670008301d1000281d3000402e900efff3a0098
:10268000e00f5000e08f58001b00320002262400ab
:1026900023da20000000200001f823001ff90700c2
:1026a0000200200003f82300c2f807000000e00049
:1026b000110035000226240023da2000000020004b
:1026c00001f823001ef907000200200003f8230090
:1026d000b8f807000000e000030034006205450080
:1026e000e0854d00040037006000b800610065001f
:1026f0000005450081854d00c744dd00080020002d
:102700000000200001f023000804400089844800f4
:102710008b85d1000a85d3000804450089844d00cb
:102720000800be004f06be004f05be004f04be00ad
:1027300000000600000006000c00fa00889fbe00a2
:102740008a9fbe008c9fbe000004be004f09de00c1
:1027500003002000e2b79f00f3b79f0081067800d6
:102760000df0a10000067800f0ff2f00f1c7240053
:10277000800f5600818f5e00100036000800be00fa
:10278000ecff07008101780003f0a1000001780050
:102790000000200001f82700800f5100818f5900b0
:1027a000b7003e000200200003382000a0fd2000fa
:1027b00091fc2300e2f80700a8003700f0ff2f008b
:1027c000f1ed2300800f5600818f5e0011003e0066
:1027d0000085eb00f0ff2f00f1972300800f5600db
:1027e000818f5e0055003e00f0ff2f00f1072000b2
:1027f000800f5600818f5e00a1003e000801be00e0
:102800000800be0092fa0700c0b79f00d1b79f0032
:102810009b0037000800be009f0007000004be00b8
:10282000f0ff2f0071f92300800f5600818f5e00aa
:1028300025003e00f0ff2f00f1f22300800f56002c
:10284000818f5e0011003e000801be000800be003e
:10285000bbf807000200200003f82300aff80700d0
:102860000005be0002002000030024000800be0096
:10287000b3f807000001be000a00be0095f907008a
:102880000004be000005eb002c0037000200200011
:1028900003f823000800be00a0f807000005be00f2
:1028a0000200200003f823000800be00a4f807007f
:1028b0000001be000a00be0086f907000004be0049
:1028c0001a0020001d003700f0ff2f00b101240086
:1028d000800f5600818f5e0012003e000200200033
:1028e00003fc23000800be008cf807000005be00b2
:1028f0000200200003fc23000800be0054fa070079
:102900000200200003f823008df807000001be003c
:102910000a00be006ff907000004be002a00200074
:10292000060037000801be000000200001f82b005f
:1029300068f907000004be003a0020000801be004c
:102940000800be0042fa07000002be000001be00ff
:1029500084bf9f0095bf9f003dfa07000006be00a0
:1029600052c22a00c3d7230039fa0700d2502f00e1
:1029700013e1230072f807000001be000c00be0046
:1029800033fa070092aa2a00a3ea23006cf8070092
:102990000001be000fba97009fba97000400be0066
:1029a0002bfa07000002be0072242100a3dd2b00d9
:1029b0000c00be0084bf9f0095bf9f0024fa070053
:1029c00082a92c00c3e4230054f807000001be00d4
:1029d0000c00be001efa07000001be000fba9700ef
:1029e0009fba9700e10f450009003a000400be00bd
:1029f00053f807000001be000800be0014fa0700eb
:102a00000001be000800be0044f807001b003700ac
:102a10004255dd008c7621000a0646000400be0007
:102a200047f807000001be000800be0008fa0700d2
:102a3000827721000a0541001a0178009a0190006e
:102a400036f807000801be0034f807000001be0098
:102a50001c0078009c00900030f807006fb19700d0
:102a6000ffb19700e00f5100e08f590003003200e2
:102a70000004be0009f0a200010037000004be00ff
:102a80000800be004f06be004f05be004f04be004a
:102a90000080fa00000006000001be0083007800fc
:102aa00001f0a1000200780000000600889fbe002f
:102ab0008a9fbe008c9fbe000001be00e4f90700a3
:102ac0000004be000001be00e1f907000005be00e1
:102ad0000200200003f02b000800be00dcf9070014
:102ae0000200200003f8230015f807000006be00ce
:102af000f2a92a00a3d223000a00be00d4f90700dd
:102b00000001be000c00be000df807000006be006c
:102b10000801be000a00be00cdf907000005be0096
:102b200072a12900c37c23000800be00c8f9070079
:102b3000f243200063ab2300f8f707000001be005a
:102b40000a00be00c2f907000001be000c00be0072
:102b5000fbf707004f06be004f05be004f04be0046
:102b600000000600ea874700889fbe008a9fbe00db
:102b70008c9fbe008e1f78000006be000204780005
:102b80000005be008b01780003f0a1000001780071
:102b9000a0fd200091dc2400800f5100818f59009e
:102ba0001e003e0032982f0023f223000c00be00ce
:102bb000a7f907000200200003b42400e0f7070093
:102bc0000200200003b42400d4f707000005be0073
:102bd0007af7070080047800a2fd200093fc230010
:102be0000a00be009af907000001be000c00be00fa
:102bf000caf707000006be00325a280083282300c7
:102c00000a00be0092f907000001be000c00be00e1
:102c1000c2f70700008cbe0027003700f0ff2f002e
:102c2000f1f72700800f5100818f59000600360010
:102c30000c01be000c00be00b8f70700008cbe00ff
:102c40008004eb001c0037004718de000100200064
:102c50006009b1000180b100c702dd00040020005e
:102c6000040151008581590076875700029fbe00fc
:102c70000002eb0013002000000178008e007800b5
:102c8000768057004300070080047800e00f56006c
:102c9000e08f5e0006003d001e0078009e00900060
:102ca00001f0a200008cbe008904ea000200370097
:102cb0003e1c78002e147800090078004f07780039
:102cc0004f06be004f05be004f04be00af00b1006e
:102cd00000000600889fbe008a9fbe008c9fbe0039
:102ce0000005be000001be0059f907000004be0047
:102cf0000a01be0056f907000006be0042882800ff
:102d000083c023000800be0051f90700b2aa2a00c0
:102d1000a3e2230081f707000001be000c00be0003
:102d20004bf907000001be000a00be0084f707004f
:102d30000005be000801be000800be0044f90700ff
:102d40000001be000c00be0041f907000006be00f5
:102d5000c2c32600636323000800be003cf90700dd
:102d6000f27c2000039523006cf707000001be00f1
:102d70000c00be0036f907000001be000a00be00cc
:102d80006ff707004f06be004f05be004f04be00a0
:102d900000000600af17b000889fbe008a9fbe00eb
:102da0008c9fbe008e1f7800b0a79f0081af9f0050
:102db0000204780003057800f4a79f000400420095
:102dc000c145210000804000100078006101b90079
:102dd000b2af9f00c3af9f000a00e9006102b900d3
:102de00094af9f00a5af9f006300540082012000b4
:102df000110009000200d8006103b900d6a79f00a6
:102e0000e7a79f00e00f5300e08f5b0003003d0049
:102e10006000b800d0a79f00e1a79f005fa19700c6
:102e2000efa197000280ea008380ea00820120007f
:102e3000030020003e040700cfc1de000004440070
:102e4000818449005fa29700efa297001fab970013
:102e5000afab97000606520087865a003fa897003e
:102e6000cfa897000002430081824b006eec2f0038
:102e70000f074700c265dd00404621008085450000
:102e80006011b8000803be000a04be000205be00bf
:102e9000150037006000b800e00f5600e08f5e00bc
:102ea0000b0035001900780099009000d4b79f00fe
:102eb000e5b79f00f6b79f0087bf9f00fbf60700ae
:102ec0008fbb97007fb39700efb297005fb2970078
:102ed00000afbe0061054500e0854d00610646007b
:102ee000e0864e00e4844400840f5500858f5d0029
:102ef000e8ff34000805780064f62f000f02420056
:102f00006011b800b2b79f00c3b79f008406780075
:102f1000210037003c007800bc007800e4855500b3
:102f20001b0178009b019000d4b79f00e5b79f007c
:102f3000f6b79f0087bf9f00c5f807000001be00dd
:102f40000800be00fef607000004be005fb2970056
:102f5000efb2970061024200e0824a008fbb970007
:102f60007fb397001fa89700afa89700800f52006b
:102f7000818f5a00e7ff340088aebe003fb1970052
:102f8000cfb1970061014100e0814900b2b79f00d5
:102f9000c3b79f000a05e8003fb29700cfb2970081
:102fa0003fa89700cfa89700800f5200818f5a004a
:102fb00008003c003fa69700c255dd00a1ec2f00a1
:102fc0008f8040008b8540006044b8006022b800cc
:102fd000e4ff37003fa99700cfa99700b2b79f0041
:102fe000c3b79f0096b79f00a7b79f00bfb29700d7
:102ff0004228dd00a6e72f000f0343000000430036
:1030000000bc900090bc90006de72f008f864600ba
:103010003fb09700cfb0970061005000e0805800ab
:10302000f0af9f0081b79f00c205dd00a1f62f0021
:103030008f8040008b8540000d0578003fb39700de
:10304000cfb397000d0778001b0037000200200067
:10305000033823000800be00f6b79f0087bf9f001b
:103060007bf8070055f6070090f607000006be0043
:103070000200200003b8240075f807000001be001c
:103080000800be00a5f607004cf6070000adbe0024
:103090009b0090001b007800e48555000c01be00e9
:1030a000a7f607000004be007fb397008fbb970010
:1030b00061035300e0835b00e00f5300e08f5b008f
:1030c000e2ff3c008e0678001fb697000c017800e6
:1030d0000800be005a0307000004be0002002000e2
:1030e00003e023005af80700f60207000200200060
:1030f0000310240056f807000001be000800be00bf
:1031000086f607000005be002cf607000004be008e
:1031100066f607000001be000a00be007ff6070049
:103120000005be001fb19700afb19700e00f51003e
:10313000e08f590023003400ffa997004218dd00fa
:10314000a4e72f000f0242000000420010027800a6
:1031500090029000f80016000401be000103780000
:103160000603e900030033008381d1000281d3000c
:10317000fbff370008044100898449008100e90011
:10318000030033000201410083814900fbff370047
:103190000201520083815a000288be0077001600a7
:1031a0000202be000000e900030033008582d10066
:1031b0000482d300fbff3700d4af9f00e5af9f0030
:1031c0001e0037001fb39700afb39700e00f530006
:1031d000e08f5b000c003a00ffab97004238dd0047
:1031e000a1e72f008f8040000080400090009000f9
:1031f000100078004789de00d2af9f00cf89de0043
:10320000e3af9f000d0037000200200003f0230011
:10321000e8f507002400200005002000d4af9f003f
:10322000e5af9f000000e00009003d006033b800fa
:10323000d6af9f00e7af9f00660037005fa89700fa
:10324000efa89700e00f5000e08f580061003400b5
:1032500061044400e0844c006000b8006022b800c3
:1032600014003700e48646001d0178009d0190009f
:10327000e00f5200e08f5a0006003a00e00f5100c4
:10328000e08f5900090032000400200005102000e2
:1032900002003700f4ff2f00f50f2000821e5200bd
:1032a00083965a00140020000500200061004000b1
:1032b000e08048003fb19700cfb19700820f5000e7
:1032c000838f5800e7ff35001fb39700afb3970017
:1032d000e00f5300e08f5b0025003400e10f530046
:1032e000e08f5b0004003200e20f5300e08f5b00d0
:1032f0001f003a000f003700ffab97004238dd0097
:10330000a1e72f008f80400000804000100178006e
:103310009001900003037800f607b200a6a79f0073
:103320008203780097a79f001fa19700afa1970085
:103330000e003700ffa997004218dd00a6e72f0016
:103340000f0343000000430010017800900190003b
:1033500083037800f703b20087a79f0082007800fc
:10336000f19f9f007f9997008fa197000288be0070
:103370005fab9700efab9700e20f5300e08f5b006d
:1033800014003a000a01be000000200001f82300ea
:10339000d4b79f00e5b79f00e0f507000005be0029
:1033a0005fb29700efb29700e00f5200e08f5a0033
:1033b000080032000c0178000000200001f8230012
:1033c0009f0207000001be000a00be00d3f50700ff
:1033d0000005be006011b8000a00be0073f50700ca
:1033e0000000e0008a003a003fb09700cfb097009d
:1033f000ffab9700423add00a2e72f000f0141002a
:10340000040241006011b8000500370094039000e9
:103410001403780064025200060171008781710074
:1034200061005000e08058003fab9700cfab9700a1
:10343000860f5000878f5800f4ff3d00e00f5100c9
:10344000e08f590080003a0061005300e0805b008b
:103450004200dd00a7e72f008f8343000080430078
:103460001200200003002000f2af9f0083b79f00ee
:10347000120020000300200002003700610141001b
:10348000e081490090029000100278006400500032
:10349000e00f5200e08f5a00f8ff3200f2af9f00b9
:1034a00083b79f003fb39700cfb3970061024300fb
:1034b000e0824b004226dd00a7f62f008f834300f9
:1034c0000c8643005fa19700efa1970061004100c7
:1034d000e08049003fb39700cfb39700000043005e
:1034e00081804b00c204dd004046210080844400fe
:1034f0001fa99700afa9970061004100e080490033
:103500000000430081804b004201dd00a3ec2f004e
:103510008f81410082814100c3a79f000004e80021
:1035200009077800880678000404be002c003700e4
:103530003e007800be0078005cf507004fa29700bf
:10354000009abe00c4a79f003fa29700c26add0098
:10355000a6ec2f000f034300850243006033b80040
:103560006055b800d89f9f00e99f9f000404be00eb
:103570001000370038007800b8007800e484540068
:103580001901780099019000f6b79f0087bf9f004e
:103590002ff707000001be000a00be0068f5070013
:1035a0000005be007fb397008fbb97006103430007
:1035b000e0834b001fa99700afa99700820f53002b
:1035c000838f5b00ebff34005f9c9700ef9c9700bc
:1035d0000a9ebe0061044400e0844c008d06e800b1
:1035e0007faa97008fb297003fb39700cfb39700a1
:1035f0000400430085804b00800f5400818f5c00e5
:10360000cbff3400b0b79f00c1b79f0077fe3700f3
:1036100098af9f00a9af9f001fb49700afb4970069
:103620000c01ea000a00be00050207000005be000a
:103630000200200003b82400def407000000e000d0
:1036400022003d004500370098af9f00a9af9f00c2
:103650001fb49700afb497003fb09700cfb097006a
:1036600061005000e0805800b0b79f00c1b79f00d4
:1036700078045400e0845c00bfb097004208dd008d
:10368000a2e72f000f014100000041003fb1970069
:10369000cfb197000400370061015100e08159006b
:1036a00078045400e0845c009002900010027800de
:1036b00064005000e00f5200e08f5a00f6ff320025
:1036c000b2b79f00c3b79f002c0037000200200054
:1036d000033823000a00be00ddf60700b7f4070038
:1036e000f2f407000006be00bfb29700422fdd00d3
:1036f000a6e72f000f0343000e074300020020003f
:1037000003b82400d2f607000001be000a00be0084
:1037100002f50700a9f40700008fbe003fb0970034
:10372000cfb0970061004000e0804800b0b79f0034
:10373000c1b79f0078044400e0844c004205dd00de
:10374000a1e72f008f8040000a8540000c00be00da
:103750009af40700008dbe00080037003fb19700c3
:103760004216dd00a3e72f008f8141000c86410047
:103770000a00be0091f40700008ebe000801780028
:103780000000200001f82300ad0107000004be0086
:103790003fb29700f4af9f008402e80095b79f0006
:1037a000c22ddd00a6e72f000f0343000b054300e9
:1037b000a7f62f008f8343008b8543003fb6970009
:1037c000cfb697000f003700640555001a00780047
:1037d0009a009000b5f407000001be000800be008a
:1037e0009bf6070080a5be000200200003382300de
:1037f0000800be0096f607000004be0061065600f1
:10380000e0865e00e00f5600e08f5e00eeff3d00b8
:103810006df12f008f8646003fb59700cfb597001a
:1038200020003700640646001c0178009c019000cf
:10383000640747001e0078009e009000d4b79f00e8
:10384000e5b79f0082f607000001be000800be0039
:10385000bbf407000004be0061054500e0854d0093
:10386000efb297005fb297003fa89700cfa89700ec
:10387000800f5500818f5d0007003c003fb197002d
:10388000cfb197000400510085805900800f55008a
:10389000818f5d00e3ff340088aebe0061055200f9
:1038a000e0855a00e00f5500e08f5d000b00350009
:1038b0008e5621000a06e9004266dd00a3f62f00bd
:1038c0008f8141000c8641006044b8006000b80060
:1038d0000a02be000005be00e3ff37007fa297008a
:1038e000e20f520005003c00e10f520010003d00c5
:1038f0000400e00017003200ea003700ffa2970042
:10390000e38f5200e7003a003fb397004232dd00f8
:10391000a7f12f008f83430004824300040778003f
:103920003fb39700cfb39700b4af9f007a00370042
:103930001fb097004205dd00a1f12f008f804000ed
:103940000a8540003fb49700cfb497006000b800ec
:10395000210037001fb197004214dd00a3f12f00b2
:103960008f814100088441003fb59700cfb5970093
:103970006000b800060037006404540018017800a5
:10398000980190006ef4070061055500e0855d0028
:10399000e00f5500e08f5d00f7ff3d005faa970044
:1039a000efaa9700e00f5200e08f5a0001003200aa
:1039b00001f0a2008faa9700808abe00b9003700ec
:1039c000640555001a0178009a0190005cf4070024
:1039d00061045400e0845c00e00f5400e08f5c0060
:1039e000f7ff3d000001be005fab9700efab970013
:1039f000e00f5300e08f5b000100320001f0a200f5
:103a00008fab9700808bbe005f089700ef08970090
:103a100042f40700aaf12f000f054500180020000e
:103a20000900200006003700640545001a017800ef
:103a30009a01900042f4070061044400e0844c00c5
:103a40003fb19700cfb19700820f5400838f5c0085
:103a5000f5ff34008fa99700648141005faa9700a9
:103a6000efaa9700e00f5200e08f5a0001003200e9
:103a700001f0a2000089be008a003700c0ff2f00bd
:103a8000ffaa970080a8b900000047003fb2970046
:103a9000cfb2970061015200e0815a004211dd006f
:103aa00082024000e48242001506780095069000ec
:103ab0000e0278006402420014057800940590001c
:103ac0000a01be000c00be00d4b79f00e5b79f00fe
:103ad000f6b79f0087bf9f0019f407000004be00df
:103ae0000001be000c00be000cf407000001be0087
:103af0000a00be0012f407005fb29700008abe0001
:103b0000efb29700888abe007fb397008fbb970003
:103b100061035300e0835b0064075700e00f53002c
:103b2000e08f5b00d5ff3c003faa97003fb39700b2
:103b3000cfb397000404780027003700c0ff2f00a0
:103b4000ffaa970080a8b900000044003fb2970088
:103b5000cfb2970061015200e0815a00c214dd002b
:103b600089044000e484440019027800990290001e
:103b700008077800640747001e0678009e0690003c
:103b80000c01be000400be00d4b79f00e5b79f0043
:103b9000f6b79f0087bf9f00e9f307000005be004e
:103ba0000001be005fb29700efb297000400be00b4
:103bb000daf307000001be000c00be00e0f30700ce
:103bc000008fbe008a8cbe007fb397008fbb97002a
:103bd00061035300e0835b0064045400e10f530071
:103be000e08f5b00d5ff3c009fb29700422cdd00c8
:103bf000a6f12f000f034300080443003fb59700d0
:103c0000cfb597006000b800060037006404540088
:103c10001801780098019000c9f30700610555006c
:103c2000e0855d00e10f5500e08f5d00f7ff3c008f
:103c30005fa99700efa99700e00f5100e08f5900ae
:103c40000b003a000fa997005f0a9700ef0a970050
:103c50000499be007f0b97008f1397000689be0062
:103c60008fab9700c0039800d10398000d00370078
:103c70005f0a9700ef0a970005f0a2000fa99700ce
:103c80000499be007f0a97008f12970005f0a200ea
:103c90000489be0001f0a2000fa99700400198001e
:103ca000510198009fa99700678061004f07780035
:103cb0004f06be004f05be004f04be00af17b10057
:103cc000000006000c00fa00889fbe008a9fbe001c
:103cd0008c1f78000004be006000b8006011b800be
:103ce000f0b79f0081bf9f0092bf9f00a3bf9f00be
:103cf000f8b79f0089bf9f007fb297008fba9700e7
:103d00001fbb9700afbb9700443ade00f07f200056
:103d10000006620020432000800f560042003c0055
:103d20006011b8000800be0020f307000000e000aa
:103d30003d0032007fb097008fb897001fb9970001
:103d4000afb99700e00f5000e08f5800e00f590026
:103d5000e08f590008003d000200200003b024005d
:103d60000800be006df307000200200003b024002d
:103d700073f30700070037000200200003b024009f
:103d80000800be006ef307000200200003b024000c
:103d900062f307000801be0060f307000005be00e3
:103da000e03f2000800f56000f003c00dab79f0074
:103db000ebb79f006044b8007fb097008fb89700c2
:103dc0001fb99700afb99700e00f5000e08f58007f
:103dd000e00f5900e08f590013003d00080020005b
:103de00009f82b00100037006011b8000a00be006f
:103df000f0f207000000e000070034000a01be00f6
:103e00000800be004ef307000200200003f8230064
:103e100042f30700030037000a01be000800be009d
:103e200047f307000004be000800be004f067800fc
:103e30004f05be004f04be000080fa0000000600df
:103e4000889fbe008a9fbe0002047800f93f2000d0
:103e5000890f54000d0034000200200003f82700f1
:103e6000fbf40700f83fb100890f5400150034003f
:103e70000200200003f82700f5f40700f83fb10026
:103e8000890f54000e003c000e00370029c02f009f
:103e9000890f54000b003d006011b800ecf40700de
:103ea000983cb000890f540006003d006011b80036
:103eb000e7f40700983cb000890f540001003d0072
:103ec00009047800f83fb000cfc4de00614db900ae
:103ed0006044b8000801be00ddf407004f05be00d5
:103ee0004f04be0000000600800178000200370089
:103ef000b15978000201e9000200e000fcff3a003d
:103f0000000006008101780000027800304178004e
:103f1000b14f510002003a000204e000f9ff3a00fc
:103f20009480fb001380fb0000805000000006001e
:103f3000020ab900001bb9000200b800810042006b
:083f40008100430000000600af
:020000040000fa
:103f48006173000073650000727600004469000028
:103f580073610000626c000065640000006100008d
:103f68007373000065720000764500006e61000002
:103f7800626c00006564000000530000544f0000ac
:0c3f880050000000474f00000000000047
:020000040000fa
:103f94001400fa00889fbe008a9fbe008c1f780020
:103fa4007f11070030110700640d07007c0d070026
:103fb4000e0e07008c0e0700c41107000d12070037
:103fc400290c0700410c07003e08070000002000f0
:103fd40001002400e0ac8800f1ac88000000eb0094
:103fe40000b588001000200010b588000000eb0028
:103ff400000f780007003700e5100700ec004700c9
:10400400804878006c0047001040780036060700ae
:104014001e0fe800fb1007009e0f5000f6ff3c0047
:1040240000b580000000e000070032000041eb0012
:104034006000b800860e070012c0b3006000b8002c
:10404400830e0700e9ff370010b58000e10f500030
:1040540039023a00e3110700da1107008000780002
:104064006e004700010878006e00470010007800d9
:1040740068004000100078008000eb008df207001b
:10408400323323003305240070f4070002002000bb
:10409400035824008ef30700d2cc2c00c304240060
:1040a4006af40700700147000089be0070004700f1
:1040b400100178009001900000002000812024006d
:1040c40083f3070002002000030a240092f2070091
:1040d40040ad880051ad88006e00470010007800a4
:1040e40064004000100078008000eb0071f20700cb
:1040f400323323003305240054f407000200200067
:104104000358240072f30700d2cc2c00c30424000b
:104114004ef40700700147000089be00700047009c
:1041240010017800900190000000200081202400fc
:1041340067f3070002002000030a240076f2070058
:1041440020ad880031ad88006e0047001000780073
:104154000080e800100078008000eb0055f20700b2
:10416400323323003305240038f407000200200012
:104174000358240056f30700d2cc2c00c3042400b7
:1041840032f40700700147000089be007000470048
:10419400100178009001900000002000812024008c
:1041a4004bf3070002002000030a24005af2070020
:1041b40000ad880011ad88006e0047001000780043
:1041c40066004000100078008000eb0039f2070020
:1041d40032332300330524001cf4070002002000be
:1041e400035824003af30700d2cc2c00c304240063
:1041f40016f40700700147000089be0070004700f4
:10420400100178009001900000002000812024001b
:104214002ff3070002002000030a24003ef20700e7
:1042240080ad880091ad88006e00470010007800d2
:10423400100078008000eb001ef2070032332300e8
:104244003305240001f40700020020000358240071
:104254001ff30700d2cc2c00c3042400fbf3070097
:10426400700147000089be0070004700100178000b
:1042740090019000000020008120240014f3070026
:1042840002002000030a240023f2070060ad880026
:1042940071ad8800708180000000e00004003200ed
:1042a400040ea800052ea90095eea8004fff3700c4
:1042b400040ea900052ea80095eea9000000200018
:1042c400011f24000e81e8000089be0000002000c8
:1042d400011f2400660147000089be001100200070
:1042e4006a0047000108780084cea90084aea900c2
:1042f400848ea900856ea900754ea90060ad80006a
:1043040071ad800018c0b3000200200043232400d4
:10431400a5f107000000e000010034000044eb00b8
:104324000804e0004c0032008000eb006a00470003
:104334000108780060ad800071ad800018c0b30042
:10434400020020000312240097f107000000e0009f
:10435400010034000044eb000804e0001f003200b8
:1043640060ad800071ad8000d2d5260053ee2b00e5
:10437400b6f3070052842d00b3112400eff10700b7
:104384000e82e8000001be00140078009400900042
:10439400eaf107000e81e8000089be0060ad8000ec
:1043a40071ad8000d2d5260053ee2b00a7f3070091
:1043b40052842d00b3112400e0f107006602470087
:1043c4000001be001400780094009000d2f10700b0
:1043d400660147000089be001e00370060ad800002
:1043e40071ad8000e27a240013d62b0097f3070006
:1043f40002002000030a2400d0f107000e82e80026
:104404000001be001400780094009000cbf1070076
:104414000e81e8000089be0060ad800071ad8000af
:10442400e27a240013d62b0088f307000200200050
:10443400030a2400c1f10700660247000001be0020
:104444001400780094009000b3f10700660147005f
:104454000089be0084cea80000ad800011ad8000ac
:1044640018c0b30002002000432324004ef10700cb
:104474000000e000010034000044eb000804e00008
:10448400220032008000eb006a0047000108780037
:1044940000ad800011ad8000a299290093d92b00b2
:1044a4006af3070002002000030a2400a3f10700b6
:1044b4000e82e8000001be00140078009400900011
:1044c4009ef107000e81e8000089be0000ad800067
:1044d40011ad8000a299290093d92b005bf307004a
:1044e40002002000030a240094f10700660247003a
:1044f4000001be00140078009400900086f10700cb
:10450400660147000089be0084aea80020ad80008b
:1045140031ad800018c0b300020020000322240043
:1045240021f107000000e000010034000044eb002a
:104534000804e000640032008000eb006a004700d9
:104544000108780020ad800031ad80000200200019
:1045540003fa2b003df3070002002000a3222400ed
:1045640076f107000004be0064ad800075ad8000e4
:1045740000ad800011ad80000001be000400be004b
:104584006ef107000005be0084ad800095ad80008b
:1045940040ad800051ad80000001be000400be00ab
:1045a40066f107001cc0b3000001be000a00be0093
:1045b400fff007000000e00001003c000046eb00b3
:1045c4000c04e0000300320000002000011224006b
:1045d400020037000000200001122c000001be0080
:1045e4000800be0055f107000e82e8000001be007d
:1045f400140078009400900047f107000e81e80051
:104604000089be0020ad800031ad80000200200092
:1046140003fa2b000df3070002002000a32224005c
:1046240046f107000004be0064ad800075ad800053
:1046340000ad800011ad80000001be000400be008a
:104644003ef107000005be0084ad800095ad8000fa
:1046540040ad800051ad80000001be000400be00ea
:1046640036f107001cc0b3000001be000a00be0002
:10467400cff007000000e00001003c000046eb0022
:104684000c04e000030032000000200001122c00a2
:104694000200370000002000011224000001be00c7
:1046a4000800be0025f10700660247000001be00b5
:1046b400140078009400900017f107006601470089
:1046c4000089be00848ea80040ad800051ad8000fa
:1046d40018c0b3000200200043232400b2f00700f6
:1046e4000000e000010034000044eb000804e00096
:1046f400220032008000eb006a00470001087800c5
:1047040040ad800051ad8000a299290093d92b00bf
:10471400cef2070002002000030a240007f107007c
:104724000e82e8000001be0014007800940090009e
:10473400f9f007000e81e8000089be0040ad80005a
:1047440051ad8000a299290093d92b00bff2070034
:1047540002002000030a2400f8f007006602470064
:104764000001be001400780094009000f3f00700ec
:10477400660147000089be00856ea80080ad8000f8
:1047840091ad800018c0b300020020004323240030
:1047940085f007000000e000010034000044eb0055
:1047a4000804e0004c0032008000eb006a0047007f
:1047b4000108780080ad800091ad800018c0b3007e
:1047c400020020000312240077f007000000e0003c
:1047d400010034000044eb000804e0001f00320034
:1047e40080ad800091ad8000d2d5260053ee2b0021
:1047f40096f2070052842d00b3112400cff0070075
:104804000e82e8000001be001400780094009000bd
:10481400c1f007000e81e8000089be0080ad800071
:1048240091ad8000d2d5260053ee2b0087f207000d
:1048340052842d00b3112400c0f007006602470023
:104844000001be001400780094009000bbf0070043
:10485400660147000089be001e00370080ad80005d
:1048640091ad8000e27a240013d62b0077f2070082
:1048740002002000030a2400b0f007000e82e800c2
:104884000001be001400780094009000a2f007001c
:104894000e81e8000089be0080ad800091ad8000eb
:1048a400e27a240013d62b0068f2070002002000ed
:1048b400030a2400a1f00700660247000001be00bd
:1048c40014007800940090009cf0070066014700f3
:1048d4000089be00754ea8006a00470010007800e9
:1048e4000000e000090032000041eb00000020005d
:1048f400011c2400560c070012c0b3000000200065
:10490400011c2400520c0700b8fd37000041eb00e5
:104914000e80e80090009000100078004c0c070016
:1049240012c0b300660047009000900010007800a9
:10493400470c0700adfd37002cd0bf000080fb0002
:10494400ea0f500070003200ea0f500005003c00ee
:10495400e20f500048003200e80f50005e003200c1
:1049640075003700ec0f500003003200ee0f5000ca
:104974004d003200700037000041eb006000b800c9
:10498400330c070012c0b3006000b800300c0700fd
:10499400c2818000d381800090818000a181800049
:1049a4000001510081815900b01220000100200053
:1049b400800f5100818f59002e003600c081800085
:1049c400d181800090818800a1818800b08180001d
:1049d400e10f50000e003200e10f500003003c00d4
:1049e4000000e0000600320015003700e20f50001e
:1049f4000b003200e30f50000d00320010003700ae
:104a040084cea80084aea900848ea9000e003700cd
:104a140084cea90084aea800848ea9000a003700c1
:104a240084cea90084aea900848ea80006003700b5
:104a340084cea90084aea800848ea90002003700a9
:104a44003630ef0000000000b08180008000e800f4
:104a540030002800008060000000e00004003d00f9
:104a64000000e900c1ff2f00008070000000e80092
:104a7400b08188003300370012c0b300000020006a
:104a8400011a2400f20b07000041eb000000200093
:104a9400011a2400ee0b070084cea80084aea800ff
:104aa400848ea8002700370012c0b3000000200045
:104ab400011a2c00e60b07000041eb000000200067
:104ac400011a2c00e20b070084cea90084aea900d1
:104ad400848ea9001b00370012c0b3000000200020
:104ae40001172400da0b07000041eb00000020004e
:104af40001172c00d60b070084cea80084aea900b1
:104b0400848ea9000f00370012c0b30000002000fb
:104b140001172c00ce0b07000041eb000000200021
:104b240001172400ca0b070084cea90084aea90093
:104b3400848ea80003003700c0c0b3002cf0b70077
:104b44000000000029fd37000e00fa00000f780075
:104b54000e80e8000288be00660047000488be009c
:104b64006a0047000688be009e0078000e80e800b8
:104b7400b0187800a01078001e0078000002b00081
:104b8400ea00570031187800211078001e007800e0
:104b940064004000e60047003118780021107800d6
:104ba4001e0078004002b000ee0057003118780073
:104bb400211078001e00780068004000ea004700d9
:104bc40031187800211078001e0078008002b000af
:104bd400f200570031187800211078000080fa00a4
:104be400000006000e00fa00000f78000e80e800b6
:104bf4000288be00660047000488be006a004700c1
:104c04000688be009e0078000e80e800b018780088
:104c1400a01078001e0078000002b000ea004700ef
:104c240031187800211078001e0178006000b80067
:104c3400640141000089be001e0078006800400045
:104c4400e600470031187800211078001e00780033
:104c54008002b000ea005700311878002110780073
:104c64000080fa00000006000a00fa00889fbe00d7
:104c7400e400470080087800660047000288be0010
:104c840064004700100078006c004000e600470014
:104c94003118780021107800640047001000780073
:104ca4000002b000100278009002900064004700f7
:104cb4001000780090009000100078000001be0001
:104cc4000400be0082f007000004be006400470038
:104cd400100078000002b0009000900010007800ee
:104ce4000002be0005f0a200640047001000780036
:104cf40090009000100078000001be000400be0087
:104d040073f007000802be000001be006600470001
:104d140090009000100078000e080700640147001e
:104d240012017800740141000089be00640047004c
:104d34001000780010027800900290006400470090
:104d4400100078007400400090009000100078007b
:104d54000001be000400be003cf1070064014700ee
:104d640012017800c202b0000089be00640047004e
:104d7400100078007800400010047800900490003f
:104d84006600470002002000a33724009000900032
:104d9400100078004ef007000001be000800be00bd
:104da40066ef0700640147001201780078014100b2
:104db4000089be0064004700100078004002b00083
:104dc4001002780090029000640047001000780000
:104dd4006400400090009000100078000001be00c4
:104de4000400be003af007000004be00640047005f
:104df400100078004002b00090009000100078008d
:104e04000002be0005f0a200640047001000780014
:104e14006400400090009000100078000001be0083
:104e24000400be002af00700640147001201780064
:104e34007801410012037800920390000802be003a
:104e44000001be000600be00c2070700640147005f
:104e540012017800780141000089be006400470017
:104e64001000780064004000100278009002900066
:104e74006400470010007800780040009000900023
:104e8400100078000001be000400be00eff007002f
:104e940064014700120178000203b0000089be00db
:104ea40064004700100078007000400090009000fb
:104eb40010007800660247000001be00140078006c
:104ec4009400900014ef070002002000a337240090
:104ed400def0070064014700120178007c01410004
:104ee4000089be0064004700100078008002b00012
:104ef40010027800900290006400470010007800cf
:104f04006800400090009000100078000001be008e
:104f14000400be00eeef07000004be00640047007a
:104f2400100078008002b00090009000100078001b
:104f34000002be0005f0a2006400470010007800e3
:104f44006800400090009000100078000001be004e
:104f54000400be00deef0700640147001201780080
:104f64007c01410012037800920390000802be0005
:104f74000001be000600be0076070700008fbe00d9
:104f8400640047001000780070004000e60047000d
:104f94003118780021107800640047001000780070
:104fa4006800400090009000100078001e01780016
:104fb4009e019000a5f007006401470012017800eb
:104fc4004203b0000089be0064004700100078006e
:104fd400c002b00010027800900290006400470004
:104fe400100078000003b0009000900010007800da
:104ff4000001be000400be00d0ee07000002be00a7
:1050040064004700100078004003b0009000900056
:10501400100078000001be000400be00c7ee0700c7
:105024004f04be000080fa00000006000a00fa00e7
:10503400889fbe00e40047008008780066004700af
:105044000288be0064004700100078006c00400035
:10505400e60047003118780021107800640047000a
:10506400100078000002b000100278009002900056
:105074006400470010007800900090001000780051
:105084000001be000400be0091ef07000004be0052
:1050940064004700100078000002b0009000900007
:1050a400100078000002be0005f0a2006400470072
:1050b4001000780090009000100078000001be00fd
:1050c4000400be0082ef07000802be000001be001b
:1050d4006600470090009000100078001d0707004c
:1050e4006401470012017800740141000089be0088
:1050f40064004700100078001002780090029000cd
:105104006400470010007800740040009000900094
:10511400100078000001be000400be004bf0070040
:105124006401470012017800c202b0000089be0089
:105134006400470010007800700040009000900068
:1051440010007800660247000001be0014007800d9
:105154009400900070ee070002002000a3372400a2
:105164003af0070064014700120178007c01410015
:105174000089be0064004700100078008002b0007f
:10518400100278009002900064004700100078003c
:105194006800400090009000100078000001be00fc
:1051a4000400be004aef07000004be00640047008c
:1051b400100078008002b000900090001000780089
:1051c4000002be0005f0a200640047001000780051
:1051d4006800400090009000100078000001be00bc
:1051e4000400be003aef0700640147001201780092
:1051f4007c01410012037800920390000802be0073
:105204000001be000600be00d2060700008fbe00eb
:10521400640047001000780070004000e60047007a
:1052240031187800211078006400470010007800dd
:105234006800400090009000100078001e01780083
:105244009e01900001f007006401470012017800fc
:105254004203b0000089be006400470010007800db
:10526400c002b00010027800900290006400470071
:10527400100078004003b000900090001000780007
:105284000001be000400be002cee07004f04be0067
:105294000080fa00000006000400fa00889fbe00a7
:1052a400e4ae8000f5ae8000e0ad8000f1ad80009a
:1052b4000001be000400be0017ee0700c0af880066
:1052c400d1af8800c0af8000d1af80000001be0024
:1052d400c05e210064fe0700a0b48800b1b4880059
:1052e40004af800015af800000ae800011ae8000d6
:1052f4000001be000400be0007ee070080b1880074
:1053040091b1880080b1800091b180000001be009d
:105314004062210054fe0700c0b48800d1b4880064
:1053240024af800035af800060ae800071ae800095
:105334000001be000400be00f7ed07000001be003e
:10534400c2ef07000004be0044af800055af8000e8
:10535400a0ae8000b1ae80000001be000400be001b
:10536400eded07000001be00b8ef07000001be002c
:105374000800be00f1ed070063f40700008fbe00d3
:105384001e0178009e019000c065210027ff0700e0
:10539400e0b48800f1b48800e4ae8000f5ae80008b
:1053a400e0b48000f1b480000001be000400be003f
:1053b400e2ed0700e0ae8800f1ae88001e0178003f
:1053c4009e019000c065210018ff0700e0ae880030
:1053d400f1ae8800c0b48000d1b48000a4b48000d1
:1053e400b5b480000001be000400be00800a0700be
:1053f4004f04be000080fa00000006002600fa00f8
:10540400220220000e014100000978004002200021
:105414000e00400001487800400220000e004000c9
:10542400104f7800e0ae8000f1ae80000001be00b5
:10543400110020000e007800ad06070000af8000c8
:1054440011af80000001be00510020000e00780062
:10545400a7060700200220000e004000100078007c
:105464006c00400090009000100078000001be0025
:10547400910020000e0078009d0607002002200005
:105484000e00400010007800c002b00090009000b0
:10549400100078000001be00d10020000e0078004a
:1054a40093060700200220000e0040001000780040
:1054b4000003b00090009000100078000001be00ce
:1054c400110120000e007800890607002002200048
:1054d4000e004000100078004003b00090009000df
:1054e400100078000001be00510120000e00780079
:1054f4007f060700a0b48000b1b480000001be00a4
:10550400910120000e00780079060700c0b48000e5
:10551400d1b480000001be00d10120000e0078004b
:10552400730607000e017800110220000007200016
:10553400780007000080fa00000006001e00fa0050
:105544007a014700000978007c0047000148780090
:105554007c004700104f78007a0047001000780064
:1055640090009000100078000001be00110020009f
:105574000e0078005e0607007a00470010007800ed
:105584006400400090009000100078000001be000c
:10559400510020000e007800550607007a004700ed
:1055a400100078006800400090009000100078001f
:1055b4000001be00910020000e0078004c06070098
:1055c4007a004700100078000002b00090009000bc
:1055d400100078000001be00d10020000e00780009
:1055e400430607007a004700100078004002b0002c
:1055f40090009000100078000001be00110120000e
:105604000e0078003a0607007a0047001000780080
:105614008002b00090009000100078000001be00ed
:10562400510120000e007800310607000e017800b9
:105634009101200020072000360007000080fa00b6
:10564400000006000a00fa00e4014700800978001f
:1056540066004700010878006800470002087800e7
:10566400e0cfb300004f78006400470010007800da
:105674004880de00004078001e4f68006400470048
:1056840010007800004078001e4f68006600470054
:10569400100078004880de00004078001e4f68004b
:1056a4006600470010007800004078001e4f680034
:1056b4008000eb000e80e800010878000c00370041
:1056c4000e80e80090007800680047001000780021
:1056d40001004000104078001e4f68000e80e80072
:1056e400100078008000e8000e80e80001087800cf
