:020000040000fa
:080000000002040000000000f2
:020000040000fa
:04000800ec03000005
:020000040000fa
:04000c002e040000be
:020000040000fa
:040010006e0400007a
:020000040000fa
:040014000c040000d8
:020000040000fa
:040018004e04000092
:020000040000fa
:04001c00ba04000022
:020000040000fa
:040020008e0400004a
:020000040000fa
:04002400ba0400001a
:020000040000fa
:04002800ba04000016
:020000040000fa
:04002c00ba04000012
:020000040000fa
:04003000ba0400000e
:020000040000fa
:0400340002030000c3
:020000040000fa
:04003800ba04000006
:020000040000fa
:04003c00ba04000002
:020000040000fa
:04004000ba040000fe
:020000040000fa
:04004400ba040000fa
:020000040000fa
:04004800fa020000b8
:020000040000fa
:04004c00ba040000f2
:020000040000fa
:04005000ba040000ee
:020000040000fa
:04005400a8030000fd
:020000040000fa
:040058007e03000023
:020000040000fa
:04005c005a03000043
:020000040000fa
:04006000ba040000de
:020000040000fa
:04006400ba040000da
:020000040000fa
:04006800ba040000d6
:020000040000fa
:04006c00ba040000d2
:020000040000fa
:04007000ba040000ce
:020000040000fa
:04007400ba040000ca
:020000040000fa
:04007800ba040000c6
:020000040000fa
:04007c00ba040000c2
:020000040000fa
:04008000ba040000be
:020000040000fa
:04008400ba040000ba
:020000040000fa
:04008800ba040000b6
:020000040000fa
:04008c00ba040000b2
:020000040000fa
:04009000ba040000ae
:020000040000fa
:040094004203000023
:020000040000fa
:04009800ba040000a6
:020000040000fa
:04009c00ba040000a2
:020000040000fa
:0400a000ba0400009e
:020000040000fa
:0400a400ba0400009a
:020000040000fa
:0400a800ba04000096
:020000040000fa
:0400ac00ba04000092
:020000040000fa
:0400b000ba0400008e
:020000040000fa
:0400b400ba0400008a
:020000040000fa
:0400b800ba04000086
:020000040000fa
:0400bc00ba04000082
:020000040000fa
:0400c000ba0400007e
:020000040000fa
:0400c400ba0400007a
:020000040000fa
:0400c800ba04000076
:020000040000fa
:0400cc00ba04000072
:020000040000fa
:0400d000ba0400006e
:020000040000fa
:0400d400ba0400006a
:020000040000fa
:0400d800ba04000066
:020000040000fa
:0400dc00ba04000062
:020000040000fa
:0400e000ba0400005e
:020000040000fa
:0400e400ba0400005a
:020000040000fa
:0400e800ba04000056
:020000040000fa
:0400ec00ba04000052
:020000040000fa
:0400f000ba0400004e
:020000040000fa
:0400f400ba0400004a
:020000040000fa
:0400f800ba04000046
:020000040000fa
:0400fc00ba04000042
:020000040000fa
:04010000ba0400003d
:020000040000fa
:04010400ba04000039
:020000040000fa
:04010800ba04000035
:020000040000fa
:04010c00ba04000031
:020000040000fa
:04011000ba0400002d
:020000040000fa
:04011400ba04000029
:020000040000fa
:04011800ba04000025
:020000040000fa
:04011c00ba04000021
:020000040000fa
:04012000ba0400001d
:020000040000fa
:04012400ba04000019
:020000040000fa
:04012800ba04000015
:020000040000fa
:04012c00ba04000011
:020000040000fa
:04013000ba0400000d
:020000040000fa
:04013400ba04000009
:020000040000fa
:04013800ba04000005
:020000040000fa
:04013c00ba04000001
:020000040000fa
:04014000ba040000fd
:020000040000fa
:04014400ba040000f9
:020000040000fa
:04014800ba040000f5
:020000040000fa
:04014c00ba040000f1
:020000040000fa
:04015000ba040000ed
:020000040000fa
:04015400ba040000e9
:020000040000fa
:04015800ba040000e5
:020000040000fa
:04015c00ba040000e1
:020000040000fa
:04016000ba040000dd
:020000040000fa
:04016400ba040000d9
:020000040000fa
:04016800ba040000d5
:020000040000fa
:04016c00ba040000d1
:020000040000fa
:04017000ba040000cd
:020000040000fa
:04017400ba040000c9
:020000040000fa
:04017800ba040000c5
:020000040000fa
:04017c00ba040000c1
:020000040000fa
:04018000ba040000bd
:020000040000fa
:04018400ba040000b9
:020000040000fa
:04018800ba040000b5
:020000040000fa
:04018c00ba040000b1
:020000040000fa
:04019000ba040000ad
:020000040000fa
:04019400ba040000a9
:020000040000fa
:04019800ba040000a5
:020000040000fa
:04019c00ba040000a1
:020000040000fa
:0401a000ba0400009d
:020000040000fa
:0401a400ba04000099
:020000040000fa
:0401a800ba04000095
:020000040000fa
:0401ac00ba04000091
:020000040000fa
:0401b000ba0400008d
:020000040000fa
:0401b400ba04000089
:020000040000fa
:0401b800ba04000085
:020000040000fa
:0401bc00ba04000081
:020000040000fa
:0401c000ba0400007d
:020000040000fa
:0401c400ba04000079
:020000040000fa
:0401c800ba04000075
:020000040000fa
:0401cc00ba04000071
:020000040000fa
:0401d000ba0400006d
:020000040000fa
:0401d400ba04000069
:020000040000fa
:0401d800ba04000065
:020000040000fa
:0401dc00ba04000061
:020000040000fa
:0401e000ba0400005d
:020000040000fa
:0401e400ba04000059
:020000040000fa
:0401e800ba04000055
:020000040000fa
:0401ec00ba04000051
:020000040000fa
:0401f000ba0400004d
:020000040000fa
:0401f400ba04000049
:020000040000fa
:0401f800ba04000045
:020000040000fa
:0401fc00ba04000041
:020000040000fa
:04020000ba0400003c
:020000040000fa
:04020400ba04000038
:020000040000fa
:04020800ba04000034
:020000040000fa
:04020c00ba04000030
:020000040000fa
:04021000ba0400002c
:020000040000fa
:04021400ba04000028
:020000040000fa
:04021800ba04000024
:020000040000fa
:04021c00ba04000020
:020000040000fa
:04022000ba0400001c
:020000040000fa
:04022400ba04000018
:020000040000fa
:04022800ba04000014
:020000040000fa
:04022c00ba04000010
:020000040000fa
:04023000ba0400000c
:020000040000fa
:04023400ba04000008
:020000040000fa
:04023800ba04000004
:020000040000fa
:04023c00ba04000000
:020000040000fa
:04024000ba040000fc
:020000040000fa
:04024400ba040000f8
:020000040000fa
:04024800ba040000f4
:020000040000fa
:04024c00ba040000f0
:020000040000fa
:04025000ba040000ec
:020000040000fa
:04025400ba040000e8
:020000040000fa
:04025800ba040000e4
:020000040000fa
:04025c00ba040000e0
:020000040000fa
:04026000ba040000dc
:020000040000fa
:04026400ba040000d8
:020000040000fa
:04026800ba040000d4
:020000040000fa
:04026c00ba040000d0
:020000040000fa
:04027000ba040000cc
:020000040000fa
:04027400ba040000c8
:020000040000fa
:04027800ba040000c4
:020000040000fa
:04027c00ba040000c0
:020000040000fa
:04028000ba040000bc
:020000040000fa
:10040000af5621000eff27000e01880000000000fb
:10041000000020000000e000020032000001200087
:100420002002880014000700540107000000e000cb
:1004300003003a00a007230001002000020037005b
:100440000000200001002000810f70000100320038
:100450000f000700000020000000e0000200320052
:100460000000020000000000b01a020000000000be
:100470000040da000000fe00800120000000e000e3
:1004800002003200002020009001880000000600d9
:10049000a1028800800478000000eb001f003700f4
:1004a000e284440054a0b4009905ba00e2844400f8
:1004b00054a0b4009906ba00e284440054a0b400e9
:1004c0000006eb00476fde00fd07b200ae018800ba
:1004d000636ce10003003a000ad801000000eb0061
:1004e0000e003700606ce10008003a00004deb00a0
:1004f0000a05e800020039003420ec000af0a000f0
:100500008b05e900f9ff3e00040037006168e10057
:10051000010032000086eb000b00070019c7ba008b
:100520000e04e0001905ba0003003a000a00e000da
:10053000dbff3a0000000600fe07b200ae028800b2
:100540008a047800f5ff37000cd0a300e20f4d00bd
:100550001c003b0089027800354dba000a05e8000e
:10056000020039003420ec000af0a0008b05e900fd
:100570000f003200254dba000a05e80002003900dc
:100580003420ec000af0a0008b05e90008003200de
:100590000c00e0000600320015cdba000a05e800a4
:1005a000020039003420ec000af0a0008b05e900bd
:1005b0008984e80054a0b4000b00e000e2ff3a0098
:1005c000000006009902ba00055d78008b05e9007d
:1005d000f7ff3200c82ade00055d78008b05e900d0
:1005e000f3ff32000c00e000f1ff320019ddba0029
:1005f000eeff37000000fa000108a9000080fa00b1
:10060000004006003600f800809fbe00829fbe00ba
:10061000849fbe00869fbe000000fa000068a9000b
:10062000db1407003f1807007b1307008111070048
:10063000e08080000000e800e0808800e08080002a
:10064000f90f500008003a005b1407008000eb002f
:10065000603c21005712070011002000e03f2100fc
:10066000541207001c30ef000080fa004f03be0058
:100670004f02be004f01be004f00be003600f90021
:1006800000400600809fbe000000fa000368a90039
:10069000c0808000d180800061004000e080480080
:1006a000c0808800d18088000080fa004f00be0022
:1006b00000400600801f78000000fa0001a8a90091
:1006c0000018800000ab88001018800010ab880074
:1006d0002018800020ab88003018800030ab8800e4
:1006e0004018800040ab880010c0b30037f0b7005e
:1006f0000080fa004f007800004006003600f80045
:10070000809fbe00829fbe00849fbe00869fbe0069
:100710000000fa000188a90051818000408180001a
:10072000808f500002003200491707000100370097
:100730002c70ef000080fa004f03be004f02be0095
:100740004f01be004f00be003600f9000040060019
:100750003600f800809fbe00829fbe00849fbe00ce
:10076000869fbe000000fa000168a90010118000f9
:10077000640060000000e000010032002242a90095
:1007800010118000620060000000e00006003200ee
:100790002222a900050037003011800000407800b7
:1007a0004d17070001003700000000001011800005
:1007b000610060000000e000f7ff3a000080fa00ee
:1007c0004f03be004f02be004f01be004f00be00ef
:1007d0003600f900004006003600f800809fbe0099
:1007e000829fbe00849fbe00869fbe000000fa006c
:1007f000c028a9000000eb00841807000080fa0060
:100800004f03be004f02be004f01be004f00be00ae
:100810003600f900004006003600f800809fbe0058
:10082000829fbe00849fbe00869fbe000000fa002b
:100830007b180700c048a9001000200073180700ab
:100840000080fa004f03be004f02be004f01be0001
:100850004f00be003600f900004006003600f800e8
:10086000809fbe00829fbe00849fbe00869fbe0008
:100870000000fa00c068a9002000200063180700eb
:100880000080fa004f03be004f02be004f01be00c1
:100890004f00be003600f900004006003600f800a8
:1008a000809fbe00829fbe00849fbe00869fbe00c8
:1008b0000000fa00c088a90030002000531807008b
:1008c0000080fa004f03be004f02be004f01be0081
:1008d0004f00be003600f900004006003600f80068
:1008e000809fbe00829fbe00849fbe00869fbe0088
:1008f0000000fa00c608a900700020004318070095
:100900000080fa004f03be004f02be004f01be0040
:100910004f00be003600f900004006003600f80027
:10092000809fbe00829fbe00849fbe00869fbe0047
:100930000000fa00214680000002200000806000d4
:100940000000e00003003200c4a8a90090002000cd
:100950002e18070020468000700060000000e000b4
:1009600003003200c488a900a00020002718070057
:10097000ffff37000040da000000fe000000050025
:1009800014002000ad033700f4ff2f00ab03370045
:100990000001be003f0007000470a70003f0a100a3
:1009a0006509b100160032000d0035006828e1002d
:1009b00006003500f0ff2f00f1ff27000300e000e4
:1009c00013003b000100280000000500000040006b
:1009d000818048008502e900fcff3a0008003700ea
:1009e000f88f420002003c008000eb000000050090
:1009f0008100d1000080d3008502e800fcff3a00ae
:100a00000300e00002003b0060001000e0801800de
:100a1000000006000001be001e0007000470a700d1
:100a200003f0a10003f8a30013003a006509b10028
:100a300010003200090035006928e100020035008d
:100a400001002800000005000000400081804800ef
:100a50008502e900fcff3a0000000600f88f420022
:100a6000050035008100d1000080d3008502e80038
:100a7000fcff3a00000006008000eb0000000500cb
:100a80004f89de0082017800870337006011b800cb
:100a900095033700c70ade00f107b200f50fb20078
:100aa00008003200e1cf4200020032000170a000d5
:100ab00024000500810f70000100320004080500c9
:100ac00044000500810f700002003a001400050088
:100ad0008502e9000000400081c04800fcff3b00a7
:100ae0000170a0002400050007f8270007836100bb
:100af0000638e10004003a00f70720008783610010
:100b00008703710001003a0003f0a200889fbe0035
:100b10008a9fbe008c9fbe00470ade000480a100b1
:100b2000c71ade000580a1000700280007856000c5
:100b300087856100f70f20000720e1009e0032004a
:100b40000728e1009c003200010678000400e00064
:100b5000b4003200f7072000878060000170a00019
:100b60000500e000c0003200f70720008781610027
:100b70000370a000050652000f003a000b50e10080
:100b80000b0032000308e10002003a000200e1001d
:100b90007e003200020450008384580004003100bb
:100ba0000001fd008101fd008402fd008a05fd00b9
:100bb0006044b800210037000520e10005003d0039
:100bc0000001fd008101fd008402fd008a05fd0099
:100bd000050652007a60e100050035000170a100b1
:100be0004722dd00848070008a8070006300370037
:100bf0006044b800ef02660007ff2f00070666009a
:100c00000500e00006003400f08312008714dd00c8
:100c10000511de00071bdd00060171008519de00ed
:100c20007060e10005003500090478008204780056
:100c3000030178008001eb00700656000b50e100c4
:100c400003003a000200400083804800040037009f
:100c500060041400e0841c000200580083805800e7
:100c60000188a300060032008100d1000080d3007b
:100c70008984d3000884d3000402e80027003700e9
:100c80000178a30025003a000100e00003003200d3
:100c90008186cf00698656000a0037008c0020004c
:100ca0000000e00004003a000900780088047800a1
:100cb0000004eb00700252008086cf000d06460053
:100cc0000c06e9007060e100060035008000780045
:100cd00009007800880478000004eb0070065600d4
:100ce000700252000c00e0000c0034008c08dd00a3
:100cf000f00316000703de00868070000c00dd00a4
:100d0000074bde00060070008c4cdd000743de0060
:100d1000868474000c44dd000c0252006120e10066
:100d20002000350061016000070028008781640011
:100d3000f7ff270087836400070374000300e000c7
:100d40000600320082037300040032000000e80055
:100d5000e08048000188a3000e003a00f70f200051
:100d60000720e1004a003d000170a1004722dd009c
:100d7000810072008a8070000000be004f06be0035
:100d80004f05be004f04be00000006006000b80022
:100d9000faff37008100d1000080d3000402e80090
:100da000eeff37000401780089017400a1010700fb
:100db0008a807000f1ff3700f70107000702780012
:100dc0000001fd008101fd00f301070087027800aa
:100dd000850372000778a300040032000001fd00c3
:100de0008101fd0006020700e4ff37008503620071
:100df0000768a300080032000b50e1000300320036
:100e0000f0ff2f00f1ff2700dcff37000001fd009d
:100e10008101fd00d9ff37000468a300d7ff32002d
:100e2000faff3700f8ff2700888360000b003a00c4
:100e30000000e00009003a0083036400828373002d
:100e4000020032000200be00ccff37000b50e10070
:100e5000ceff3a000200be00c8ff37001400200099
:100e6000810064003eff3700f8ff2700888361009f
:100e700004003a000200e00002003a008c00780012
:100e8000beff3700150020008301640039ff3700e2
:100e900001f827000000200081007500b7ff37002f
:100ea000889fbe008a9fbe008c9fbe001b00200052
:100eb0000202be00058668000600280006066600dd
:100ec0004709de00f20fb200820032000243e80060
:100ed00080003200c729de00f30fb2007d0032002f
:100ee0000343e8007b003200f107b2000170a0006c
:100ef000f507b2000570a000c708dd004903de0059
:100f0000868070004700dd00c72add004923de002f
:100f1000868272004722dd00030551000403500061
:100f200085835800030031000000400081804800a4
:100f30000a05e9008c1f78008a9fbe00040050005b
:100f4000858058000402420085824a00000040006b
:100f5000818048000005eb000004be006033b8004b
:100f60000406be000d48e1005600310011000900e2
:100f70004dccd8000c01b8000d02b80084814100ae
:100f800060824a008283530003045c0084845c0016
:100f900060055d000a00e00025003a008005780049
:100fa0000d40e1004900310088007800070078001a
:100fb000110009004d88d8000c01b8000d02b800de
:100fc0008481410060824a006003110083835b00da
:100fd00004045c00e0845c000900e00021003a00a9
:100fe0004f01be000300e0002b003200e30160006f
:100ff000070673008c8171000100320064007000ec
:101000004200de004e5edd000c007000c258de00c3
:1010100001e0a00083010700cf017800818071000a
:101020004f06be004f05be004f04be000000060084
:101030008c8343000d044c00e0844c0060054d009f
:101040000000e9000a00e000d4ff32008c83430076
:101050000d044c00e0844c0060054d000000e900e8
:10106000ceff37000c0343008d834b0060044c001f
:10107000e0844c000000e9000900e000d8ff3200e5
:101080000c0343008d834b0060044c00e0844c0053
:101090000000e900d2ff37004200de004e5edd00b6
:1010a0000c007000c258de0001e0a000cf01780003
:1010b0000300e000daff320060001000e08018005a
:1010c000d7ff3700f0ff2f00aaff3700f0ff2f00f7
:1010d000b9ff37000404be002f010700870678001f
:1010e0000004fd008104fd002b010700078366005a
:1010f0000678a300030032000960a7000800be00c4
:101100002c0037000d78a300020032000800be005a
:10111000280037000778a30026003a0001f0a1005c
:1011200009f0a1000668a30003003200f1ff2700c8
:10113000f0ff2f00baff37000d68a3000300320054
:101140000800be008c807000b5ff37000768a30060
:1011500007003a000648a30003003200f1ff270011
:10116000f0ff2f00aeff37000d48a3000300320050
:101170006000b8008c807000a9ff37000748a3000a
:101180000400320001f82700000020008c8070006d
:10119000a3ff3700760107000004fd008104fd0075
:1011a00002057800720107000802be008a0178007b
:1011b00059ff37000160a00012022000d281880090
:1011c00097ff37000100e000120032000500e00048
:1011d00010003200889fbe008a9fbe008c9fbe0018
:1011e0000006eb0001f8a3000300320060001000cd
:1011f000e08018000cf0a00005f8a3000300320006
:1012000060021200e0821a000cf0a2008005eb00e0
:1012100041ff37006000b80002000500038368004a
:101220000700280007036300470ade000480a100ce
:10123000c71ade000580a100f70f20000720e1009b
:10124000420032000728e10040003200889fbe00c3
:101250008a9fbe008c1f7800f107b200f307b2002e
:101260000400e000640032000170a0000500e0000e
:10127000680032000370a00085054200eb07b10052
:101280000204b8000302b8008484440060854a0068
:10129000020ab800848444000a854a00030ab800a0
:1012a00004054500040033000804d0008984d200fe
:1012b0000a85d2008b05e9006158e1003d00350048
:1012c00002102000090161000308200089816100eb
:1012d000f70720008783640008867300c84cde008f
:1012e000c853dd00878474004855de000300e00029
:1012f0000600320082037600040032008904e80010
:1013000060054d000a88a3000c003a00f70f20008a
:101310000758e10044003d000a70a100c75ddd00f0
:101320000a8575008a007300090078004f0678006e
:101330004f05be004f04be00000006000a05d100a4
:101340008984d3008b05e800f0ff3700881f780000
:101350000604780090000700070278000001fd00f5
:101360008101fd008c000700870278008503720070
:101370000778a300050032000001fd008101fd0097
:101380009f0007004f0478000000060085037200ec
:101390000748a30003003200f0ff2f00f1ff2700f1
:1013a000f8ff37000000200001f827008880700057
:1013b000f4ff3700880178004848dd008081710023
:1013c0004848de00c850dd0001007000c850de0053
:1013d000060478000b017800160007008880700072
:1013e000d2ff37000500e0000500320017002000a2
:1013f0003a0007009dff370081037000f9ff3a00b3
:10140000860078004f0678004f05be004f04be00ee
:101410000000050083037100f9ff3200270020005f
:101420002e00070094ff370001f827008680700027
:10143000f4ff37000100e0002600320061011100d6
:101440007810e10023003c006022b8007010e10039
:101450000400350080027800010078008000eb0075
:10146000700151000200e000090034007003110017
:10147000062add00822ade008603dd0087827200f4
:101480000200de00860bdd00070070008208de002f
:1014900084817100f4ff270004826200848171005e
:1014a00004002800848262006102600005f0a6004a
:1014b0000000060004827100070032000000e8000e
:1014c000e0804800000006000002be006000b80096
:1014d000efff37006000b80000000600889fbe00e4
:1014e0000004eb006138e10016003a000100e00062
:1014f00008003a00c800de004800dd008800200037
:101500000100e00003003a00c800de004800dd00f2
:10151000680444008184cf00e9845400060034004c
:101520008908dd00f08314008703de0087807000e7
:101530000900dd0009044400610214004f04be00ec
:10154000000006000300e00008003a00c811de00b9
:101550004811dd00880020000300e00003003a008d
:10156000c811de004811dd00680444008384cf0008
:10157000e9845400060034008919dd00f08314006a
:101580008713de00878171000911dd000904440022
:10159000e1021400e9ff37002700200001f0a70056
:1015a00017002000470bde00f60fb20004003200e7
:1015b0000643e8000a0032004702b30000000600bc
:1015c00001037800f607b2000603700002003a003b
:1015d0000703b300000006008702b3000000060006
:1015e00001037800f607b200060370000200320023
:1015f0000770a000000006000760a00000000600c1
:101600000478a300040032000578a3000300320030
:101610000168a30001003a000200be000160a000c2
:101620000000060081017000270032008002eb00fc
:1016300001f8a3000300320060001000e0801800f1
:1016400015002000f40720000202420020003400b0
:10165000f7032000870360000604200000036300f6
:1016600002082000000161004700de00c909dd001a
:1016700000807100c708de000600e00008003200ac
:1016800087037100060032001000b0000180b00036
:101690000188a30002003200c108de000402e80055
:1016a000f107b200f30f20000320e10003003d002a
:1016b0004722dd00810072002900370001f8270071
:1016c0000000eb00260037006000b80000000600b4
:1016d000680212007f20e100020034006000b800c0
:1016e0001f0037006011b8007020e10004003500d1
:1016f00080017800010078008000eb007002520049
:101700000400e00009003400f00312000719dd00b6
:101710008419de000703dd00868171000400de000d
:10172000070bdd00060070008408de00f7ff2700cd
:1017300083836300870371000600280003036300ae
:10174000070032000700e00003003a00610160007a
:1017500002817300020032001000b0000180b0006e
:101760000500a6000000060001f0a0000000060031
:101770004f0ade004709de00f107b200f20fb200a7
:101780000b003200f207b1000170a000c708dd00b5
:10179000c901de00838070004700dd000400a60060
:1017a0000000060060001000e08018000000060045
:1017b000810f700001003a00000006008182cf0016
:1017c0000500e00010003e008082cf00ee82420063
:1017d0007028e1000400390007003e008000780016
:1017e0000000eb000e003700708312008600de0060
:1017f0000500dd000a003700708352008600dd001e
:101800000000eb0006003700e28252008508dd0090
:10181000708312000603de00868070000500dd0084
:101820007507b0000501ea000400a60000000600ec
:1018300060001000e080180000000600889fbe00d5
:101840008a9fbe00841f78007c0007004f0078004c
:1018500011003300f0ff2f00838f6c0006003b0067
:10186000040565000a00a7000800370009f0a6007b
:101870001000200008003700820f5400838f5c00a6
:10188000030039001000200001003e00000020008d
:1018900009f0a7000000ea004f05be004f04be009b
:1018a0000000e00000000600881f780003047800b4
:1018b0000300e00007003d0060001000e080180019
:1018c00060011900e081190002003b0001f02d00c9
:1018d000030037000400070008f0a70001f0a00093
:1018e0004f04780000000600889fbe008a9fbe005b
:1018f0000082700004027100048271002600320030
:101900000004be000200be006011b8006b09200098
:10191000950220000182cf000a0039000541b10084
:101920000082cf00070039000541b1000982cf00d5
:10193000040039000541b1000882cf0001003900e0
:101940000541b10005425200120032000a003b007e
:1019500082817100610164008100d1000080d300a8
:101960008984d3000884d3008b05e8000442e80092
:10197000f7ff3a00070037000804440089844c0050
:1019800000004800818048008b05e9000442e9001e
:10199000f9ff3a00030007004f05be004f04be00e8
:1019a0000000060081002000618055000b003d0012
:1019b0000b00200061fe2f000100e1001d0034003b
:1019c00082817100610164008904d1000884d30020
:1019d0000000e800faff3a00710020006100640096
:1019e000030070000200600009003200610444003e
:1019f000e0844c000988a500050032008b05e80052
:101a00006808e10002003a008904d1000884d3008c
:101a1000f20f20000258e10005003d00c75ddd0027
:101a2000f907b20089807500080078000000060000
:101a30000bf827008b007800000005000004be00b2
:101a400014fc07000003be000405be000200be0037
:101a500010fc0700844f7500000006000800fa0023
:101a60000002be008501780003f0a10000017800ab
:101a7000a6fd200097f42300860f5100878f5900a0
:101a800008003e00f4ff2f00f5972300840f51005b
:101a9000858f590055003e000000200001f823000a
:101aa000600037004f0ade0005002000163d2500cb
:101ab000b7072400860f5100878f590019003e0098
:101ac00036be2c0067012400860f5100878f590015
:101ad0000a0036000400e00004003200b2fd2000dd
:101ae0009304240009fc070048003700b2fd2000e1
:101af00093042400fcfb0700440037000400e000ce
:101b000004003200b2fd200093fc2300fffb07001d
:101b1000430037000001be00b0fd200091fc23000f
:101b200019003700561d2300270e2400860f510090
:101b3000878f590016003e00f6dd2e00f70a2400bc
:101b4000860f5100878f59000a0036000400e0001c
:101b500004003200b2fd2000930c2400ebfb0700d0
:101b600022003700b2fd2000930c2400defb0700aa
:101b70001e0037000400e0000100320001f0a20066
:101b800042be2c0063092400d7fb07002400370065
:101b9000f4ff2f00f5f72700840f5100858f5900bf
:101ba000030036000001be00cffb07001d00370018
:101bb00068815700650107006011b800630160008b
:101bc000e10f5100e08f59000a003200e20f51008e
:101bd000e08f59000b003200e00f5100e08f5900f8
:101be0000d003a004fb89700dfb8970029010700b1
:101bf0000c0037004fb89700dfb8970001f0a20043
:101c0000070037004fb89700dfb8970021010700a1
:101c100001f0a200030037004fb89700dfb897002b
:101c2000a60107000080fa00000006000000060080
:101c30000400fa00889fbe008a9fbe008c9fbe00f1
:101c40000004be000205be00020641008386490072
:101c5000e00f5600e08f5e00140032000200be006c
:101c600082bf9f0093bf9f00f0ff070081027800b2
:101c700005f0a100000278000000200001f8270014
:101c80000fb997009fb99700800f5200818f5a00bb
:101c900006003e000802be00474bde0007002000a1
:101ca0000680fb00e14f430005003a000800be003b
:101cb0005afd07000001be0079fc0700090037004b
:101cc0000801440089814c008c0f51008d8f590010
:101cd00006003e0074003a006011b8000800be0023
:101ce0004efd07000004be006f0037000000e0005a
:101cf00013003a004949dd00c741de00830171004d
:101d00004941dd00030037000000e9000201410005
:101d100083814900e00f5100e08f5900faff3d0038
:101d2000e10010000401be008100e900030033005f
:101d30000201410083814900fbff370004003700a6
:101d400085017800f307b200080178000370a00055
:101d5000475bde000700200086007800f10fb2002c
:101d600012003a00495bdd00c753de0087037300b1
:101d70004953dd00030037008100e90006034300fa
:101d800087834b00e00f5300e08f5b00faff3d00bc
:101d9000618310000603e900030033000a054500d3
:101da0008b854d00fbff3700100037008b03780058
:101db000f707b2000a0378000605be000b70a0000a
:101dc0000a003700e00f5300e08f5b00040035008d
:101dd000e00f5300e08f5b00bfff32000601be0042
:101de00002014100838149000000e9000a0351001b
:101df0008b835900810f5000f2ff3c00e00f53002d
:101e0000e08f5b0003003d00090037000601be00c3
:101e100007003700e00f5300e08f5b00fbff3a0044
:101e2000adff370002014100838149000000e90055
:101e3000471bde0007002000e00f5300e08f5b002f
:101e4000f8ff32000000e0000a0034000600200025
:101e500007f82f000201430083814b00cf80de0092
:101e6000c700dd00000020000201700083817000c7
:101e700006003700610010000000e9000300330095
:101e80008301d1000281d300fbff37000000200056
:101e900001002800858360000003780006017100be
:101ea000878171000204be000800be004f06be001c
:101eb0004f05be004f04be000080fa00000006007f
:101ec0000800fa000002be008501780003f0a100be
:101ed00000017800a6fd200097f42300860f510032
:101ee000878f590006003e00f4ff2f00f59723006e
:101ef000840f5100858f5900640036005d00370063
:101f00004f0ade0005002000163d2500b70724001b
:101f1000860f5100878f590019003e0036be2c00f5
:101f200067012400860f5100878f59000a003e0088
:101f30000400e00004003200b2fd200093fc230006
:101f4000f2fa07004f003700b2fd200093fc230097
:101f5000e5fa0700420037000400e0000400320008
:101f6000b2fd200093042400e8fa07004000370087
:101f7000b2fd200093042400dbfa07003c00370088
:101f8000561d2300270e2400860f5100878f59000d
:101f900019003e00f6dd2e00f70a2400860f5100de
:101fa000878f59000a003e000400e0000400320060
:101fb00042be2c0063092400d4fa07002800370031
:101fc00042be2c0063092400c7fa07002d00370029
:101fd0000400e00004003200b2fd2000930c240055
:101fe000cafa070023003700b2fd2000930c24003a
:101ff000bdfa07001f003700f4ff2f00f5f7270098
:10200000840f5100858f5900030036000001be0087
:10201000b5fa07001d003700688157004b00070024
:102020006011b80063016000e10f5100e08f5900ba
:1020300009003200e20f5100e08f59000a0032001f
:10204000e00f5100e08f59000c003a004fb89700a4
:10205000dfb89700070037004fb89700dfb8970048
:102060000c000700090037004fb89700dfb8970051
:1020700001f0a20091000700040037004fb897005c
:10208000dfb897000300070001f0a2000080fa000b
:1020900000000600889fbe008a9fbe008c9fbe0085
:1020a0000001be005dfc07000004be000001be0090
:1020b0005afc07000005be000200200003f02b00c0
:1020c0000800be0055fc07000200200003f82300b2
:1020d0008efa07000006be00f2a92a00a3d2230050
:1020e0000a00be004dfc07000001be000c00be004f
:1020f00086fa07000006be000801be000a00be0006
:1021000046fc07000005be0072a12900c37c230025
:102110000800be0041fc0700f243200063ab23002f
:1021200071fa07000001be000a00be003bfc070078
:102130000001be000c00be0074fa07004f06be008e
:102140004f05be004f04be0000000600ea874700ae
:10215000889fbe008a9fbe008c9fbe008e1f7800a5
:102160000006be00020478000005be008b01780066
:1021700003f0a10000017800a0fd200091dc240004
:10218000800f5100818f59001e003e0032982f00b1
:1021900023f223000c00be0020fc070002002000f8
:1021a00003b4240059fa07000200200003b42400fd
:1021b0004dfa07000005be00f5f90700800478001d
:1021c000a2fd200093fc23000a00be0013fc0700c0
:1021d0000001be000c00be0043fa07000006be006e
:1021e000325a2800832823000a00be000bfc070097
:1021f0000001be000c00be003bfa0700008cbe00d0
:1022000027003700f0ff2f00f1f72700800f510063
:10221000818f5900060036000c01be000c00be0084
:1022200031fa0700008cbe008004eb001c00370070
:102230004718de00010020006009b1000180b100f4
:10224000c702dd000400200004015100858159000f
:1022500076875700029fbe000002eb0013002000ab
:10226000000178008e007800768057004300070058
:1022700080047800e00f5600e08f5e0006003d000d
:102280001e0078009e00900001f0a200008cbe00ad
:102290008904ea00020037003e1c78002e14780002
:1022a000090078004f0778004f06be004f05be00ba
:1022b0004f04be00af00b10000000600889fbe00c2
:1022c0008a9fbe008c9fbe000005be000001be00bc
:1022d000d2fb07000004be000a01be00cffb0700ce
:1022e0000006be004288280083c023000800be000c
:1022f000cafb0700b2aa2a00a3e22300faf90700ea
:102300000001be000c00be00c4fb07000001be00bf
:102310000a00be00fdf907000005be000801be006e
:102320000800be00bdfb07000001be000c00be009f
:10233000bafb07000006be00c2c326006363230089
:102340000800be00b5fb0700f27c200003952300c7
:10235000e5f907000001be000c00be00affb07005e
:102360000001be000a00be00e8f907004f06be00eb
:102370004f05be004f04be0000000600af17b000be
:10238000889fbe008a9fbe008c9fbe008e1f780073
:10239000b0a79f0081af9f0002047800030578007a
:1023a000f4a79f0004004200c123210000804000e8
:1023b000100078006101b900b2af9f00c3af9f0069
:1023c0000a00e9006102b90094af9f00a5af9f0029
:1023d0006300540082012000110009000200d800af
:1023e0006103b900d6a79f00e7a79f00e00f530045
:1023f000e08f5b0003003d006000b800d0a79f00a5
:10240000e1a79f005fa19700efa197000280ea007b
:102410008380ea0082012000030020003e040700c0
:10242000cfc1de0000044400818449005fa2970010
:10243000efa297001fab9700afab970006065200c4
:1024400087865a003fa89700cfa897000002430054
:1024500081824b006eec2f000f074700c265dd0044
:1024600040242100808545006011b8000803be00ab
:102470000a04be000205be00150037006000b80067
:10248000e00f5600e08f5e000b0035001900780069
:1024900099009000d4b79f00e5b79f00f6b79f0062
:1024a00087bf9f0076f907008fbb97007fb3970027
:1024b000efb297005fb2970000afbe006105450024
:1024c000e0854d0061064600e0864e00e48444004d
:1024d000840f5500858f5d00e8ff34000805780003
:1024e00064f62f000f0242006011b800b2b79f00df
:1024f000c3b79f0084067800210037003c007800b5
:10250000bc007800e48555001b0178009b01900019
:10251000d4b79f00e5b79f00f6b79f0087bf9f0025
:102520003efb07000001be000800be0077f907006f
:102530000004be005fb29700efb297006102420054
:10254000e0824a008fbb97007fb397001fa89700d7
:10255000afa89700800f5200818f5a00e7ff340028
:1025600088aebe003fb19700cfb197006101410036
:10257000e0814900b2b79f00c3b79f000a05e80099
:102580003fb29700cfb297003fa89700cfa897001f
:10259000800f5200818f5a0008003c003fa6970030
:1025a000c255dd00a1ec2f008f8040008b854000dc
:1025b0006044b8006022b800e4ff37003fa99700ec
:1025c000cfa99700b2b79f00c3b79f0096b79f00ef
:1025d000a7b79f00bfb297004228dd00a6e72f00f3
:1025e0000f0343000000430000bc900090bc90002b
:1025f0006de72f008f8646003fb09700cfb0970061
:1026000061005000e0805800f0af9f0081b79f004c
:10261000c205dd00a1f62f008f8040008b854000b1
:102620000d0578003fb39700cfb397000d077800f2
:102630001b00370002002000033823000800be0002
:10264000f6b79f0087bf9f00f4fa0700d0f8070095
:102650000bf907000006be000200200003b82400aa
:10266000eefa07000001be000800be001ef90700d8
:10267000c7f8070000adbe009b0090001b0078006b
:10268000e48555000c01be0020f907000004be00df
:102690007fb397008fbb970061035300e0835b001b
:1026a000e00f5300e08f5b00e2ff3c008e067800f5
:1026b0001fb697000c0178000800be005a030700ff
:1026c0000004be000200200003e02300d3fa07004c
:1026d000f60207000200200003102400cffa0700d2
:1026e0000001be000800be00fff807000005be00a4
:1026f000a7f807000004be00e1f807000001be00d3
:102700000a00be00f8f807000005be001fb19700e0
:10271000afb19700e00f5100e08f59002300340063
:10272000ffa997004218dd00a4e72f000f02420026
:10273000000042001002780090029000f80016009d
:102740000401be00010378000603e9000300330022
:102750008381d1000281d300fbff370008044100d0
:10276000898449008100e90003003300020141002f
:1027700083814900fbff37000201520083815a0028
:102780000288be00770016000202be000000e900c9
:10279000030033008582d1000482d300fbff3700a1
:1027a000d4af9f00e5af9f001e0037001fb3970016
:1027b000afb39700e00f5300e08f5b000c003a00ce
:1027c000ffab97004238dd00a1e72f008f8040006b
:1027d0000080400090009000100078004789de00e3
:1027e000d2af9f00cf89de00e3af9f000d0037001e
:1027f0000200200003f0230063f8070024002000fb
:1028000005002000d4af9f00e5af9f000000e0006e
:1028100009003d006033b800d6af9f00e7af9f00ce
:10282000660037005fa89700efa89700e00f500000
:10283000e08f58006100340061044400e0844c00e3
:102840006000b8006022b80014003700e48646003b
:102850001d0178009d019000e00f5200e08f5a00aa
:1028600006003a00e00f5100e08f590009003200e5
:10287000040020000510200002003700f4ff2f00a4
:10288000f50f2000821e520083965a00140020008b
:102890000500200061004000e08048003fb1970043
:1028a000cfb19700820f5000838f5800e7ff3500ab
:1028b0001fb39700afb39700e00f5300e08f5b00aa
:1028c00025003400e10f5300e08f5b00040032006c
:1028d000e20f5300e08f5b001f003a000f0037004b
:1028e000ffab97004238dd00a1e72f008f8040004a
:1028f00000804000100178009001900003037800f0
:10290000f607b200a6a79f008203780097a79f0052
:102910001fa19700afa197000e003700ffa99700f5
:102920004218dd00a6e72f000f034300000043001c
:10293000100178009001900083037800f703b20043
:1029400087a79f0082007800f19f9f007f999700e2
:102950008fa197000288be005fab9700efab970096
:10296000e20f5300e08f5b0014003a000a01be0042
:102970000000200001f82300d4b79f00e5b79f00b6
:1029800059f807000005be005fb29700efb297004c
:10299000e00f5200e08f5a00080032000c0178006e
:1029a0000000200001f823009f0207000001be0084
:1029b0000a00be004cf807000005be006011b80018
:1029c0000a00be00eef707000000e0008a003a00af
:1029d0003fb09700cfb09700ffab9700423add00c1
:1029e000a2e72f000f014100040241006011b8006e
:1029f000050037009403900014037800640252002d
:102a0000060171008781710061005000e08058006c
:102a10003fab9700cfab9700860f5000878f5800d1
:102a2000f4ff3d00e00f5100e08f590080003a00b4
:102a300061005300e0805b004200dd00a7e72f004b
:102a40008f83430000804300120020000300200019
:102a5000f2af9f0083b79f00120020000300200008
:102a60000200370061014100e081490090029000be
:102a70001002780064005000e00f5200e08f5a000e
:102a8000f8ff3200f2af9f0083b79f003fb397007b
:102a9000cfb3970061024300e0824b004226dd0085
:102aa000a7f62f008f8343000c8643005fa1970099
:102ab000efa1970061004100e08049003fb397001b
:102ac000cfb397000000430081804b00c204dd00bb
:102ad00040242100808444001fa99700afa99700db
:102ae00061004100e08049000000430081804b000c
:102af0004201dd00a3ec2f008f8141008281410063
:102b0000c3a79f000004e800090778008806780042
:102b10000404be002c0037003e007800be007800a0
:102b2000d7f707004fa29700009abe00c4a79f00e6
:102b30003fa29700c26add00a6ec2f000f034300fe
:102b4000850243006033b8006055b800d89f9f00ed
:102b5000e99f9f000404be00100037003800780091
:102b6000b8007800e48454001901780099019000bd
:102b7000f6b79f0087bf9f00a8f907000001be00bd
:102b80000a00be00e1f707000005be007fb3970012
:102b90008fbb970061034300e0834b001fa99700a0
:102ba000afa99700820f5300838f5b00ebff3400c7
:102bb0005f9c9700ef9c97000a9ebe006104440052
:102bc000e0844c008d06e8007faa97008fb2970042
:102bd0003fb39700cfb397000400430085804b00bc
:102be000800f5400818f5c00cbff3400b0b79f0092
:102bf000c1b79f0077fe370098af9f00a9af9f0035
:102c00001fb49700afb497000c01ea000a00be00a1
:102c1000050207000005be000200200003b82400e2
:102c200059f707000000e00022003d004500370092
:102c300098af9f00a9af9f001fb49700afb4970053
:102c40003fb09700cfb0970061005000e08058007f
:102c5000b0b79f00c1b79f0078045400e0845c00c7
:102c6000bfb097004208dd00a2e72f000f0141002e
:102c7000000041003fb19700cfb19700040037003a
:102c800061015100e081590078045400e0845c0047
:102c9000900290001002780064005000e00f520093
:102ca000e08f5a00f6ff3200b2b79f00c3b79f0013
:102cb0002c00370002002000033823000a00be0069
:102cc00056f9070032f707006df707000006be004f
:102cd000bfb29700422fdd00a6e72f000f0343008d
:102ce0000e0743000200200003b824004bf9070040
:102cf0000001be000a00be007bf7070024f70700b2
:102d0000008fbe003fb09700cfb097006100400039
:102d1000e0804800b0b79f00c1b79f00780444002e
:102d2000e0844c004205dd00a1e72f008f804000c9
:102d30000a8540000c00be0015f70700008dbe009c
:102d4000080037003fb197004216dd00a3e72f00cf
:102d50008f8141000c8641000a00be000cf707007d
:102d6000008ebe00080178000000200001f823005a
:102d7000ad0107000004be003fb29700f4af9f0012
:102d80008402e80095b79f00c22ddd00a6e72f0062
:102d90000f0343000b054300a7f62f008f8343006a
:102da0008b8543003fb69700cfb697000f003700e2
:102db000640555001a0078009a00900030f707006b
:102dc0000001be000800be0014f9070080a5be0087
:102dd00002002000033823000800be000ff907009e
:102de0000004be0061065600e0865e00e00f56005b
:102df000e08f5e00eeff3d006df12f008f864600f4
:102e00003fb59700cfb59700200037006406460015
:102e10001c0178009c019000640747001e007800a8
:102e20009e009000d4b79f00e5b79f00fbf8070015
:102e30000001be000800be0034f707000004be0019
:102e400061054500e0854d00efb297005fb2970045
:102e50003fa89700cfa89700800f5500818f5d0095
:102e600007003c003fb19700cfb19700040051002c
:102e700085805900800f5500818f5d00e3ff34008d
:102e800088aebe0061055200e0855a00e00f550093
:102e9000e08f5d000b0035008e3421000a06e9004a
:102ea0004266dd00a3f62f008f8141000c864100b1
:102eb0006044b8006000b8000a02be000005be0011
:102ec000e3ff37007fa29700e20f520005003c00ad
:102ed000e10f520010003d000400e0001700320036
:102ee000ea003700ffa29700e38f5200e7003a00a4
:102ef0003fb397004232dd00a7f12f008f834300dc
:102f000004824300040778003fb39700cfb39700d3
:102f1000b4af9f007a0037001fb097004205dd0074
:102f2000a1f12f008f8040000a8540003fb4970038
:102f3000cfb497006000b800210037001fb19700a0
:102f40004214dd00a3f12f008f814100088441006d
:102f50003fb59700cfb597006000b8000600370076
:102f6000640454001801780098019000e7f6070007
:102f700061055500e0855d00e00f5500e08f5d00c4
:102f8000f7ff3d005faa9700efaa9700e00f5200fd
:102f9000e08f5a000100320001f0a2008faa9700d2
:102fa000808abe00b9003700640555001a01780018
:102fb0009a019000d5f6070061045400e0845c009b
:102fc000e00f5400e08f5c00f7ff3d000001be0001
:102fd0005fab9700efab9700e00f5300e08f5b0013
:102fe0000100320001f0a2008fab9700808bbe0081
:102ff0005f089700ef089700bbf60700aaf12f00c3
:103000000f054500180020000900200006003700c9
:10301000640545001a0178009a019000bbf607008c
:1030200061044400e0844c003fb19700cfb19700a9
:10303000820f5400838f5c00f5ff34008fa9970046
:10304000648141005faa9700efaa9700e00f520049
:10305000e08f5a000100320001f0a2000089be009a
:103060008a003700c0ff2f00ffaa970080a8b90090
:10307000000047003fb29700cfb2970061015200b5
:10308000e0815a004211dd0082024000e4824200e9
:1030900015067800950690000e0278006402420042
:1030a00014057800940590000a01be000c00be00d3
:1030b000d4b79f00e5b79f00f6b79f0087bf9f007a
:1030c00092f607000004be000001be000c00be0026
:1030d00085f607000001be000a00be008bf607005f
:1030e0005fb29700008abe00efb29700888abe00e8
:1030f0007fb397008fbb970061035300e0835b00b1
:1031000064075700e00f5300e08f5b00d5ff3c00e1
:103110003faa97003fb39700cfb39700040478000d
:1031200027003700c0ff2f00ffaa970080a8b90032
:10313000000044003fb29700cfb2970061015200f7
:10314000e0815a00c214dd0089044000e484440098
:103150001902780099029000080778006407470078
:103160001e0678009e0690000c01be000400be0002
:10317000d4b79f00e5b79f00f6b79f0087bf9f00b9
:1031800062f607000005be000001be005fb29700b6
:10319000efb297000400be0053f607000001be0026
:1031a0000c00be0059f60700008fbe008a8cbe00de
:1031b0007fb397008fbb970061035300e0835b00f0
:1031c00064045400e10f5300e08f5b00d5ff3c0026
:1031d0009fb29700422cdd00a6f12f000f034300a1
:1031e000080443003fb59700cfb597006000b800d2
:1031f000060037006404540018017800980190001c
:1032000042f6070061055500e0855d00e10f5500bd
:10321000e08f5d00f7ff3c005fa99700efa99700e2
:10322000e00f5100e08f59000b003a000fa9970002
:103230005f0a9700ef0a97000499be007f0b970082
:103240008f1397000689be008fab9700c0039800cc
:10325000d10398000d0037005f0a9700ef0a97002e
:1032600005f0a2000fa997000499be007f0a9700fd
:103270008f12970005f0a2000489be0001f0a200a1
:103280000fa9970040019800510198009fa997004d
:10329000678061004f0778004f06be004f05be00f3
:1032a0004f04be00af17b100000006000c00fa008a
:1032b000889fbe008a9fbe008c1f78000004be005d
:1032c0006000b8006011b800f0b79f0081bf9f0098
:1032d00092bf9f00a3bf9f00f8b79f0089bf9f00c8
:1032e0007fb297008fba97001fbb9700afbb9700c4
:1032f000443ade00f07f20000006620020432000f8
:10330000800f560042003c006011b8000800be006b
:103310009bf507000000e0003d0032007fb0970001
:103320008fb897001fb99700afb99700e00f500012
:10333000e08f5800e00f5900e08f590008003d0071
:103340000200200003b024000800be00e6f50700dc
:103350000200200003b02400ecf50700070037004e
:103360000200200003b024000800be00e7f50700bb
:103370000200200003b02400dbf507000801be00b6
:10338000d9f507000005be00e03f2000800f560081
:103390000f003c00dab79f00ebb79f006044b80015
:1033a0007fb097008fb897001fb99700afb997000b
:1033b000e00f5000e08f5800e00f5900e08f5900f7
:1033c00013003d000800200009f82b001000370012
:1033d0006011b8000a00be006bf507000000e000b5
:1033e000070034000a01be000800be00c7f5070050
:1033f0000200200003f82300bbf50700030037009c
:103400000a01be000800be00c0f507000004be00af
:103410000800be004f0678004f05be004f04be00f6
:103420000080fa0000000600889fbe008a9fbe0050
:1034300002047800f93f2000890f54000d00340089
:103440000200200003f8270074f70700f83fb100de
:10345000890f5400150034000200200003f82700f3
:103460006ef70700f83fb100890f54000e003c00d2
:103470000e00370029c02f00890f54000b003d00bb
:103480006011b80065f70700983cb000890f540040
:1034900006003d006011b80060f70700983cb000de
:1034a000890f540001003d0009047800f83fb00086
:1034b000cfc4de00614db9006044b8000801be0011
:1034c00056f707004f05be004f04be00000006007f
:1034d0008001780002003700b15978000201e9004c
:1034e0000200e000fcff3a000000060081017800c5
:1034f0000002780030417800b14f510002003a00dc
:103500000204e000f9ff3a009480fb001380fb0006
:103510000080500000000600020ab900001bb9003c
:103520000200b80081004200810043000000060054
:020000040000fa
:10353000617300007365000072760000446900004a
:1035400073610000626c00006564000000530000bd
:10355000544f000050000000474f000000000000e2
:020000040000fa
:103560001c00fa00889fbe008a9fbe008c1f780056
:10357000fb0c07007b0c07006a06070082060700a9
:1035800014070700b70807002c0c0700ba0c070047
:103590008f070700970707000000200001002400a4
:1035a000e09b8800f19b8800403c210011c0b300e3
:1035b000014878000000eb00f0a188000000eb005b
:1035c000000f780007003700e60b0700ec0047000b
:1035d000804878006c004700104078001f03070007
:1035e0001e0fe800fc0b07009e0f5000f6ff3c008a
:1035f000f0a180000000e0000a0032000041eb0072
:103600006000b800b308070012c0b3006000b80043
:10361000b008070064cea90064eea900254ea900f9
:10362000e6ff37004b0c0700420c070080007800d3
:103630006e004700010878006e0047001000780017
:1036400068004000100078008000eb000ff50700d4
:103650003233230033052400f0f607000200200077
:10366000035824000ef60700d2cc2c00c30424001b
:10367000eaf60700700147000089be0070004700ad
:1036800010017800900190000000200081202400ab
:1036900003f6070002002000030a240012f50700c9
:1036a000409c8800519c88006e0047001000780004
:1036b00064004000100078008000eb00f3f4070085
:1036c0003233230033052400d4f607000200200023
:1036d00003582400f2f50700d2cc2c00c3042400c8
:1036e000cef60700700147000089be007000470059
:1036f000100178009001900000002000812024003b
:10370000e7f5070002002000030a2400f6f4070092
:10371000209c8800319c88006e00470010007800d3
:103720000080e800100078008000eb00d7f407006c
:103730003233230033052400b8f6070002002000ce
:1037400003582400d6f50700d2cc2c00c304240073
:10375000b2f60700700147000089be007000470004
:1037600010017800900190000000200081202400ca
:10377000cbf5070002002000030a2400daf407005a
:10378000009c8800119c88006e00470010007800a3
:1037900066004000100078008000eb00bbf40700da
:1037a00032332300330524009cf60700020020007a
:1037b00003582400baf50700d2cc2c00c30424001f
:1037c00096f60700700147000089be0070004700b0
:1037d000100178009001900000002000812024005a
:1037e000aff5070002002000030a2400bef4070022
:1037f000809c8800919c88006e0047001000780033
:10380000100078008000eb00a0f4070032332300a2
:103810003305240081f6070002002000035824002d
:103820009ff50700d2cc2c00c30424007bf60700d0
:10383000700147000089be00700047001001780049
:1038400090019000000020008120240094f50700e2
:1038500002002000030a2400a3f40700609c8800f3
:10386000719c8800609c8000719c800069f4070056
:1038700080457800009c8000119c800065f4070062
:1038800000457800209c8000319c800061f4070096
:1038900080447800409c8000519c80005df40700cb
:1038a00000447800809c8000919c800059f40700bf
:1038b00080407800740047000b487800750047008e
:1038c0000a487800760047000948780077004700ea
:1038d000084878007800470001487800808180001f
:1038e0000000e0009f013a00808180000000e000bd
:1038f0000400320064cea80064eea900254ea800a2
:103900000300370064cea90064eea800254ea9008c
:1039100000002000811824000e81e8000089be000c
:103920000000200081182400660147000089be00c5
:10393000110020006a00470001087800609c8000a8
:10394000719c800018c0b3000200200043232400b3
:103950000bf407000000e000010034000044eb001d
:103960000804e0004b0032008000eb006a004700d2
:1039700001087800609c8000719c800018c0b30032
:103980000200200003122400fdf307000000e00005
:10399000010034000044eb000804e0001f00320086
:1039a000609c8000719c8000d2d5260053ee2b00d5
:1039b0001af6070052842d00b311240053f40700b7
:1039c0000e82e8000001be00140078009400900010
:1039d0004ef407000e81e8000089be00609c800064
:1039e000719c8000d2d5260053ee2b000bf6070009
:1039f00052842d00b311240044f4070066024700ee
:103a00000001be00140078009400900036f4070016
:103a1000660147000089be001e003700609c8000e0
:103a2000719c8000e27a240013d62b00fbf507007e
:103a300002002000030a240034f407000e82e8008c
:103a40000001be0014007800940090002ff40700dd
:103a50000e81e8000089be00609c8000719c80009f
:103a6000e27a240013d62b00ecf5070002002000b8
:103a7000030a240025f40700660247000001be0087
:103a8000140078009400900017f4070066014700c6
:103a90000089be00009c8000119c800018c0b3000b
:103aa0000200200043232400b5f307000000e000db
:103ab000010034000044eb000804e0002100320063
:103ac0008000eb006a00470001087800009c80003d
:103ad000119c8000a299290093d92b00cff50700f3
:103ae00002002000030a240008f407000e82e80008
:103af0000001be00140078009400900003f4070059
:103b00000e81e8000089be00009c8000119c8000ae
:103b1000a299290093d92b00c0f5070002002000cc
:103b2000030a2400f9f30700660247000001be0003
:103b30001400780094009000ebf307006601470042
:103b40000089be00209c8000319c800018c0b3001a
:103b5000020020000322240089f307000000e00097
:103b6000010034000044eb000804e0006300320070
:103b70008000eb006a00470001087800209c80006c
:103b8000319c80000200200003fa2b00a3f50700ff
:103b900002002000a3222400dcf307000004be0082
:103ba000649c8000759c8000009c8000119c8000bb
:103bb0000001be000400be00d4f307000005be00f3
:103bc000849c8000959c8000409c8000519c8000db
:103bd0000001be000400be00ccf307001cc0b3000f
:103be0000001be000a00be0067f307000000e0000d
:103bf00001003c000046eb000c04e0000300320032
:103c00000000200001122400020037000000200004
:103c100001122c000001be000800be00bbf307002b
:103c20000e82e8000001be001400780094009000ad
:103c3000adf307000e81e8000089be00209c8000e3
:103c4000319c80000200200003fa2b0073f507006e
:103c500002002000a3222400acf307000004be00f1
:103c6000649c8000759c8000009c8000119c8000fa
:103c70000001be000400be00a4f307000005be0062
:103c8000849c8000959c8000409c8000519c80001a
:103c90000001be000400be009cf307001cc0b3007e
:103ca0000001be000a00be0037f307000000e0007c
:103cb00001003c000046eb000c04e0000300320071
:103cc0000000200001122c0002003700000020003c
:103cd000011224000001be000800be008bf30700a3
:103ce000660247000001be001400780094009000b6
:103cf0007df30700660147000089be00409c8000fc
:103d0000519c800018c0b30002002000432324000f
:103d10001bf307000000e000010034000044eb004a
:103d20000804e000210032008000eb006a00470038
:103d300001087800409c8000519c8000a2992900d5
:103d400093d92b0035f5070002002000030a240058
:103d50006ef307000e82e8000001be001400780038
:103d60009400900060f307000e81e8000089be0017
:103d7000409c8000519c8000a299290093d92b007f
:103d800026f5070002002000030a24005ff3070065
:103d9000660247000001be00140078009400900005
:103da0005af30700660147000089be00809c80002e
:103db000919c800018c0b30002002000432324001f
:103dc000eff207000000e000010034000044eb00c7
:103dd0000804e0004b0032008000eb006a0047005e
:103de00001087800809c8000919c800018c0b3007e
:103df0000200200003122400e1f207000000e000ae
:103e0000010034000044eb000804e0001f00320011
:103e1000809c8000919c8000d2d5260053ee2b0020
:103e2000fef4070052842d00b311240037f307007d
:103e30000e82e8000001be0014007800940090009b
:103e400029f307000e81e8000089be00809c8000f5
:103e5000919c8000d2d5260053ee2b00eff4070092
:103e600052842d00b311240028f307006602470096
:103e70000001be00140078009400900023f30700b6
:103e8000660147000089be001e003700809c80004c
:103e9000919c8000e27a240013d62b00dff4070007
:103ea00002002000030a240018f307000e82e80035
:103eb0000001be0014007800940090000af307008f
:103ec0000e81e8000089be00809c8000919c8000eb
:103ed000e27a240013d62b00d0f407000200200061
:103ee000030a240009f30700660247000001be0030
:103ef000140078009400900004f307006601470066
:103f00000089be006a004700100078000000e00051
:103f1000090032000041eb0000002000011c2400d9
:103f20006c06070012c0b30000002000011c240032
:103f300068060700110037000041eb000e80e80022
:103f400090009000100078006206070012c0b300d5
:103f50006600470090009000100078005d060700a2
:103f6000060037000041eb006000b800590607006a
:103f700012c0b3006000b80056060700609b8000c6
:103f8000719b800082f207000040780000447800b6
:103f9000a09b8000b19b80007df20700004078006c
:103fa0008040780079004700084878007a00470090
:103fb0000148780081fd37000a00fa00e40147005b
:103fc0008009780066004700010878006800470013
:103fd00002087800e0cfb300004f7800640047008b
:103fe000100078004880de00004078001e4f680016
:103ff0006400470010007800004078001e4f680001
:1040000066004700100078004880de00004078001d
:104010001e4f6800660047001000780000407800de
:104020001e4f68008000eb000e80e8000108780059
:104030000c0037000e80e800900078006800470010
:104040001000780001004000104078001e4f68000a
:104050000e80e800100078008000e8000e80e80084
:10406000010878000e80e8009000780066004700a4
:1040700010007800808f5000eeff35001e40780061
:104080000080fa00000006000e00fa00889fbe00c3
:10409000e8014700800978006a00470001087800bd
:1040a0006c004700020878000f0478000f007800c9
:1040b000800478006a004700100078006600400025
:1040c0000001e900e4004700820878000000e800f1
:1040d0000000e8000000d100800040000f007800e0
:1040e000818747000000e8000000d1000000400088
:1040f000e6004700800878000000eb00000f780021
:1041000066004700100078001e004000e1cfb300b9
:10411000014878001e0fe800680047001000780092
:104120004880de008040780066004700100078007c
:104130001e004000014878001e0fe800680047009c
:10414000100078008040780066004700100078007a
:104150001e004000014878001e0fe8006a0047007a
:10416000100078004880de0080407800660047003c
:10417000100078001e004000014878001e0fe80083
:104180006a00470010007800804078006600470011
:10419000100078001e004000014878001e0fe80063
:1041a0008000eb000e80e800010878001000370066
:1041b0000e80e800900078006c0047001000780046
:1041c0000100400090407800660047001000780031
:1041d0001e004000014878001e0fe8000e80e80035
:1041e000100078008000e8000e80e80001087800e8
:1041f0000e80e800900078006a0047001000780008
:10420000808f5000eaff35006c00470010017800f5
:104210006a004700900078006800470010007800ae
:1042200065ff0700e6004700910078009e8040008f
:10423000804878001e0fe8006600470010007800f4
:104240009e007800430807008907780088077800f7
:104250004f04be000080fa00000006000200fa00d1
:10426000004f780030818000e30f500026003200bc
:10427000e30f500007003c00e10f50001500320032
:10428000e10f500019003c000000e000080032007f
:1042900043003700e50f500028003200e50f5000c2
:1042a0001f003500e60f5000310032003c0037009f
:1042b0001e407800e24f400002003a00100020004b
:1042c000308188002230ef002430ef002030ef00f2
:1042d000370037001e80fb004800dd0000818800a9
:1042e0002000200030818800310037001e80fb0054
:1042f0000181800000807000008188003000200073
:10430000308188002a0037001e80fb004800dd0055
:104310001081880040002000308188002400370090
:104320001e80fb00118180000080700010818800d9
:1043300050002000308188001d003700208180005f
:10434000014c2100808040009e4878000000e80079
:10435000208188002181800010818000808f5000a2
:1043600012003a0060002000308188001000370001
:104370001181800000818000024c21000eff0700a7
:104380009e4f500004003a0011818000008180009f
:10439000024c2100080007002630ef00040037001f
:1043a0002630ef0000000000010037000000000090
:1043b0000080fa00000006000600fa00889fbe0098
:1043c0008a9fbe00000f78000e80e8000108780088
:1043d00064004700020878001e00780041072000b2
:1043e000810f50006000320001082000810f500052
:1043f0003900320001022000810f5000f1003a0024
:104400006400470010007800104078000004e000cd
:104410000d003a0064004700100078000000e8003a
:1044200010407800614060000080fb006100600087
:104430004600dd00217380000160a10001007000d2
:1044400020738800df003700640047001000780008
:1044500010407800e14f50000d003a006400470022
:10446000100078000000e800104078006140600013
:104470000080fb00610060004700dd0021738000c8
:104480000170a1000100700020738800cd0037008a
:10449000640047001000780010407800e24f5000a0
:1044a000c1003a0064004700100078000000e800f6
:1044b00010407800614060000080fb0061006000f7
:1044c0004a00dd002171800001a0a1000100700000
:1044d00020718800bb0037000e80e8009000780053
:1044e0006400470010007800010040008040eb00ad
:1044f00001487800640047001000780081a9290075
:10450000fafb07000000e00002003a003030ef0044
:10451000ac003700640047001000780071aa290041
:10452000f2fb07000000e00003003a00100020004a
:10453000f0a18800a3003700640047001000780055
:10454000c1aa2900e9fb07000000e00098003a003a
:104550000000eb00f0a1880064cea80064eea80083
:10456000254ea800970037000e80e8001000780064
:10457000f90f500090003a00100020008081880060
:104580006400470010007800104078000004e0004c
:1045900040003a0064004700100078000000e80086
:1045a0004200200080007800603c2100c8fb07002a
:1045b00064004700100078006500400042002000c1
:1045c00080007800a03c2100c1fb07006400470088
:1045d0001000780069004000420020008000780050
:1045e000e03c2100bafb070064004700100078009f
:1045f0006d0040004200200080007800603e2100f5
:10460000b3fb070064004700100078007100400011
:104610004200200080007800a03e2100acfb070093
:104620006400470010007800750040004200200040
:1046300080007800e03e2100a5fb07007a9f800003
:104640008b9f8000589f8000699f8000369f80006c
:10465000479f8000749e8000859e8000529e80004f
:10466000639e8000309e8000419e80008a9fbe0035
:10467000889fbe00869fbe000403be000202be00eb
:104680000001be00603c210052000700ec8757008b
:104690004c0037006400470010007800104078009c
:1046a000e14f500046003a006400470010007800d7
:1046b0000000e8004200200080007800e03f210078
:1046c00083fb07006400470010007800650040008d
:1046d0004200200080007800204021007cfb070081
:1046e000640047001000780069004000420020008c
:1046f000800078006040210075fb070064004700df
:10470000100078006d00400042002000800078001a
:10471000e04121006efb07006400470010007800b4
:1047200071004000420020008000780020422100fb
:1047300067fb070064004700100078007500400028
:1047400042002000800078006042210060fb0700ea
:104750003aa180004ba1800018a1800029a180000f
:10476000f6a0800007a1800034a0800045a0800052
:1047700012a0800023a08000f09f800001a0800094
:104780008a9fbe00889fbe00869fbe000403be00b5
:104790000202be000001be00e03f21000d00070044
:1047a000ec875700070037000000000005003700c5
:1047b0000000000003003700000000000100370087
:1047c000000000004f05be004f04be000080fa004c
:1047d000000006000e00fa00000f78000e80e800ce
:1047e0000288be00660047000488be006a004700d9
:1047f0000688be009e0078000e80e800b0187800a1
:10480000a01078001e0078000002b000ea005700f7
:1048100031187800211078001e00780064004000f4
:10482000e600470031187800211078001e0078005b
:104830004002b000ee0057003118780021107800d7
:104840001e00780068004000ea0047003118780038
:10485000211078001e0078008002b000f20057009e
:1048600031187800211078000080fa00000006005e
:104870000a00fa00889fbe00e40047008008780024
:10488000660047000288be00640047001000780000
:104890006c004000e60047003118780021107800d5
:1048a00064004700100078000002b0001002780099
:1048b0009002900064004700100078009000900083
:1048c000100078000001be000400be0074f1070073
:1048d0000004be0064004700100078000002b00031
:1048e00090009000100078000002be0005f0a200c9
:1048f00064004700100078009000900010007800dd
:104900000001be000400be0065f107000802be0001
:104910000001be0066004700900090001000780083
:104920002f0507006401470012017800740141005f
:104930000089be0064004700100078001002780073
:10494000900290006400470010007800740040005e
:1049500090009000100078000001be000400be002e
:104960002ef207006401470012017800c202b00075
:104970000089be0064004700100078007800400005
:1049800010047800900490006600470002002000a8
:10499000a3372400900090001000780040f1070039
:1049a0000001be000800be0058f007006401470087
:1049b00012017800780141000089be0064004700c0
:1049c000100078004002b0001002780090029000c1
:1049d00064004700100078006400400090009000e0
:1049e000100078000001be000400be002cf107009a
:1049f0000004be0064004700100078004002b000d0
:104a000090009000100078000002be0005f0a200a7
:104a1000640047001000780064004000900090009f
:104a2000100078000001be000400be001cf1070069
:104a300064014700120178007801410012037800f8
:104a4000920390000802be000001be000600be00f6
:104a5000e304070064014700120178007801410077
:104a60000089be0064004700100078006400400028
:104a70001002780090029000640047001000780057
:104a80007800400090009000100078000001be0007
:104a90000400be00e1f10700640147001201780044
:104aa0000203b0000089be006400470010007800d7
:104ab00070004000900090001000780066024700ef
:104ac0000001be00140078009400900006f007007a
:104ad00002002000a3372400d0f107006401470042
:104ae000120178007c0141000089be00640047008b
:104af000100078008002b000100278009002900050
:104b000064004700100078006800400090009000aa
:104b1000100078000001be000400be00e0f00700b5
:104b20000004be0064004700100078008002b0005e
:104b300090009000100078000002be0005f0a20076
:104b4000640047001000780068004000900090006a
:104b5000100078000001be000400be00d0f0070085
:104b600064014700120178007c01410012037800c3
:104b7000920390000802be000001be000600be00c5
:104b800097040700008fbe00640047001000780003
:104b900070004000e60047003118780021107800ce
:104ba000640047001000780068004000900090000a
:104bb000100078001e0178009e01900097f1070018
:104bc00064014700120178004203b0000089be0072
:104bd0006400470010007800c002b00010027800a6
:104be0009002900064004700100078000003b000bd
:104bf00090009000100078000001be000400be008c
:104c0000c2ef07000002be006400470010007800f9
:104c10004003b00090009000100078000001be003a
:104c20000400be00b9ef07004f04be000080fa0088
:104c3000000006000000fa00e49d8000f59d800061
:104c4000e09c8000f19c80000001be000400be00da
:104c5000a5ef0700909e8800a19e8800049e80001a
:104c6000159e8000009d8000119d80000001be0007
:104c70000400be009cef070050a0880061a08800df
:104c8000909e8000a19e80000001be00603c21003b
:104c9000f7fe0700b0a18800c1a1880050a08000e5
:104ca00061a080000001be00e03f2100f0fe07008f
:104cb000d0a18800e1a18800d0a18000e1a18000fe
:104cc000b4a18000c5a180000001be000400be00a8
:104cd000d00307000080fa00000006002600fa005a
:104ce000220220000e01410000097800400220004d
:104cf0000e00400001487800400220000e004000f5
:104d0000104f7800e09d8000f19d80000001be0002
:104d1000110020000e00780098040700009e80001b
:104d2000119e80000001be00510020000e0078009e
:104d300092040700200220000e00400010007800be
:104d40006c00400090009000100078000001be0050
:104d5000910020000e007800880407002002200047
:104d60000e00400010007800c002b00090009000db
:104d7000100078000001be00d10020000e00780075
:104d80007e040700200220000e0040001000780082
:104d90000003b00090009000100078000001be00f9
:104da000110120000e00780074040700200220008a
:104db0000e004000100078004003b000900090000a
:104dc000100078000001be00510120000e007800a4
:104dd0006a040700b0a18000c1a180000001be00ec
:104de000910120000e00780064040700d0a180002b
:104df000e1a180000001be00d10120000e0078007a
:104e00005e0407000e017800110220000007200058
:104e10009dfc07000080fa00000006001e00fa005a
:104e20007a014700000978007c00470001487800bb
:104e30007c004700104f78007a004700100078008f
:104e400090009000100078000001be0011002000ca
:104e50000e007800490407007a004700100078002f
:104e60006400400090009000100078000001be0037
:104e7000510020000e007800400407007a0047002f
:104e8000100078006800400090009000100078004a
:104e90000001be00910020000e00780037040700da
:104ea0007a004700100078000002b00090009000e7
:104eb000100078000001be00d10020000e00780034
:104ec0002e0407007a004700100078004002b0006e
:104ed00090009000100078000001be001101200039
:104ee0000e007800250407007a00470010007800c3
:104ef0008002b00090009000100078000001be0019
:104f0000510120000e0078001c0407000e017800fb
:104f100091012000200720005bfc07000080fa00c0
:104f2000000006000000fa0013e1a90011e1a90049
:104f30001061a8001021a90081088000f0fc2f005a
:104f400000806000800888000a21ef000621ef0041
:104f5000202620007008880000a025006008880036
:104f60002142800080ff2f00008060000000a00030
:104f7000204288000108a9002108a80011e1a8002a
:104f80000080fa00000006000000fa0005e1a90018
:104f900000002000a13724001a0007000421a90006
:104fa0000068a9002068a80005e1a8000080fa00b8
:104fb000000006000400fa00000f78000e80e800f0
:104fc000010878000e80e8001000780000407800aa
:104fd0001e01780080407800020078003fff070043
:104fe0000e80e80010007800004078001e01780074
:104ff000804078000200780088ff07000080fa00f7
:10500000000006000400fa00881f7800008fbe0030
:1050100021088000f0fc2f0000806000200888003c
:105020001e0178009e0190000068290081c12400c3
:105030009bef070018c0b30002f02f00f3772400a5
:1050400051ee07000000e00001003c000044eb00ce
:105050000804e0005400320021088000f0fc2f001a
:10506000008060000040a000200888001e01780039
:105070009e0190000068290081c1240088ef07008c
:10508000020020000310240085ef070018c0b300c1
:1050900002f02f00f37724003bee07000000e00051
:1050a00001003c000044eb000804e0003200320044
:1050b00021088000f0fc2f00008060000050a0005c
:1050c000200888001e0178009e01900000682900d9
:1050d00081c1240072ef0700020020000328240091
:1050e0006fef070018c0b30002f02f00f377240021
:1050f00025ee07000000e00001003c000044eb004a
:105100000804e000100032002108800000032000a5
:1051100001007000200888001e0178009e019000a8
:105120000068290081c124005def07000200200013
:10513000033824005aef070015ee0700000078003e
:1051400010088800200037001e0178009e019000a2
:105150000068290081c1240051ef070002002000ef
:10516000032824004eef070009ee07000000780036
:1051700010088800140037001e0178009e0190007e
:105180000068290081c1240045ef070002002000cb
:105190000310240042ef0700fded07000000780037
:1051a00010088800080037001e0178009e0190005a
:1051b0000068290081c1240039ef0700f4ed0700e1
:1051c00000007800100888004f0478000080fa0082
:1051d000000006000000fa001fe1a9000000200006
:1051e000a1472400060007001e21a9000368a900aa
:1051f0002368a8001fe1a8000080fa000000060054
:105200000400fa00881f7800008fbe00f1088000bb
:10521000f0fc2f0000806000f00888001e0178007c
:105220009e0190000068290081c124001cef070046
:1052300018c0b30002f02f00f3772400d2ed07006e
:105240000000e00001003c000044eb000804e00026
:1052500054003200f1088000f0fc2f000080600054
:105260000040a000f00888001e0178009e01900018
:105270000068290081c1240009ef07000200200016
:105280000310240006ef070018c0b30002f02f003f
:10529000f3772400bced07000000e00001003c00b3
:1052a0000044eb000804e00032003200f108800006
:1052b000f0fc2f00008060000050a000f008880083
:1052c0001e0178009e0190000068290081c1240021
:1052d000f3ee07000200200003282400f0ee070090
:1052e00018c0b30002f02f00f3772400a6ed0700ea
:1052f0000000e00001003c000044eb000804e00076
:1053000010003200f108800000032000010070004e
:10531000f00888001e0178009e01900000682900b6
:1053200081c12400deee07000200200003382400c3
:10533000dbee070096ed070000007800d00888003b
:10534000200037001e0178009e01900000682900af
:1053500081c12400d2ee07000200200003282400af
:10536000cfee07008aed070000007800d008880023
:10537000140037001e0178009e019000006829008b
:1053800081c12400c6ee07000200200003102400a3
:10539000c3ee07007eed070000007800d00888000b
:1053a000080037001e0178009e0190000068290067
:1053b00081c12400baee070075ed070000007800f7
:1053c000d00888004f0478000080fa000000060032
:1053d0000000fa00c301a8000080eb00e00e880086
:1053e0000080eb00f00e8800c1e1a8000080fa0008
:1053f000000006000000fa00c305a8000080eb00d2
:10540000e02e88000080eb00f02e8800c1e5a800a7
:105410000080fa00000006000800fa00889fbe0025
:105420008a9fbe008c9fbe0020808000318080005b
:10543000008088001180880060808000718080007a
:105440004080880051808800300e80008000eb0092
:10545000008fbe00500e80008000eb00c000dd0019
:10546000000020001e0f40005e974800302e800094
:105470008000eb00640147000089be00502e8000d0
:105480008000eb00c000dd00000020006401470048
:1054900092019000120178000200400083804800d1
:1054a000640147000089be001e0078009e00900045
:1054b00073ed0700d25d2b0043c8230057ef0700b0
:1054c00020808800318088006400470090009000b0
:1054d000100078006aed0700d25d2b0043c82b0056
:1054e0004eef070060808800718088002480800073
:1054f0003580800000808000118080000001be00a7
:105500000400be0078ed0700a0808800b18088000c
:105510006480800075808000408080005180800021
:105520000001be000400be006fed0700808088000f
:1055300091808800a0808000b1808000020020005f
:10554000a337240035ef0700a09c8800b19c880099
:10555000808080009180800002002000a33724001a
:105560002eef0700c09c8800d19c8800a49c80007e
:10557000b59c8000c09c8000d19c80000001be00d2
:105580000400be0061ed07000200200003002400bb
:1055900043ee0700e09c8800f19c8800a49c8000fa
:1055a000b59c8000c09c8000d19c80000001be00a2
:1055b0000400be004ced0700a2992900c338240066
:1055c00037ee0700009d8800119d8800609d8000d7
:1055d000719d8000409d8800519d8800a09d8000a5
:1055e000b19d8000809d8800919d8800209d800055
:1055f000319d8000c09d8800d19d8800489d80001d
:10560000599d8000ea9c8000fb9c80002c9d8000be
:105610003d9d8000009d8000119d800002002000c3
:10562000a33724001eee0700020020000300240020
:105630001bee07000001be000c00be0033ed0700aa
:1056400006f107000001be000a00be00f3ee0700ed
:1056500002002000a337240011ee07000001be0065
:105660000800be0029ed0700609d8800719d88003c
:10567000889d8000999d8000ea9c8000fb9c8000b2
:105680002c9d80003d9d8000009d8000119d80002c
:1056900002002000a337240001ee070002002000d2
