:020000040000fa
:080000000002040000000000f2
:020000040000fa
:04000800e003000011
:020000040000fa
:04000c00e00300000d
:020000040000fa
:04001000e003000009
:020000040000fa
:04001400e003000005
:020000040000fa
:04001800e003000001
:020000040000fa
:04001c00e0030000fd
:020000040000fa
:04002000e0030000f9
:020000040000fa
:04002400e0030000f5
:020000040000fa
:04002800e0030000f1
:020000040000fa
:04002c00e0030000ed
:020000040000fa
:04003000e0030000e9
:020000040000fa
:0400340002030000c3
:020000040000fa
:04003800e0030000e1
:020000040000fa
:04003c00e0030000dd
:020000040000fa
:04004000e0030000d9
:020000040000fa
:04004400e0030000d5
:020000040000fa
:04004800fa020000b8
:020000040000fa
:04004c00e0030000cd
:020000040000fa
:04005000e0030000c9
:020000040000fa
:040054009c03000009
:020000040000fa
:04005800720300002f
:020000040000fa
:04005c003c03000061
:020000040000fa
:04006000e0030000b9
:020000040000fa
:04006400e0030000b5
:020000040000fa
:04006800e0030000b1
:020000040000fa
:04006c00e0030000ad
:020000040000fa
:04007000e0030000a9
:020000040000fa
:04007400e0030000a5
:020000040000fa
:04007800e0030000a1
:020000040000fa
:04007c00e00300009d
:020000040000fa
:04008000e003000099
:020000040000fa
:04008400e003000095
:020000040000fa
:04008800e003000091
:020000040000fa
:04008c00e00300008d
:020000040000fa
:04009000e003000089
:020000040000fa
:040094002403000041
:020000040000fa
:04009800e003000081
:020000040000fa
:04009c00e00300007d
:020000040000fa
:0400a000e003000079
:020000040000fa
:0400a400e003000075
:020000040000fa
:0400a800e003000071
:020000040000fa
:0400ac00e00300006d
:020000040000fa
:0400b000e003000069
:020000040000fa
:0400b400e003000065
:020000040000fa
:0400b800e003000061
:020000040000fa
:0400bc00e00300005d
:020000040000fa
:0400c000e003000059
:020000040000fa
:0400c400e003000055
:020000040000fa
:0400c800e003000051
:020000040000fa
:0400cc00e00300004d
:020000040000fa
:0400d000e003000049
:020000040000fa
:0400d400e003000045
:020000040000fa
:0400d800e003000041
:020000040000fa
:0400dc00e00300003d
:020000040000fa
:0400e000e003000039
:020000040000fa
:0400e400e003000035
:020000040000fa
:0400e800e003000031
:020000040000fa
:0400ec00e00300002d
:020000040000fa
:0400f000e003000029
:020000040000fa
:0400f400e003000025
:020000040000fa
:0400f800e003000021
:020000040000fa
:0400fc00e00300001d
:020000040000fa
:04010000e003000018
:020000040000fa
:04010400e003000014
:020000040000fa
:04010800e003000010
:020000040000fa
:04010c00e00300000c
:020000040000fa
:04011000e003000008
:020000040000fa
:04011400e003000004
:020000040000fa
:04011800e003000000
:020000040000fa
:04011c00e0030000fc
:020000040000fa
:04012000e0030000f8
:020000040000fa
:04012400e0030000f4
:020000040000fa
:04012800e0030000f0
:020000040000fa
:04012c00e0030000ec
:020000040000fa
:04013000e0030000e8
:020000040000fa
:04013400e0030000e4
:020000040000fa
:04013800e0030000e0
:020000040000fa
:04013c00e0030000dc
:020000040000fa
:04014000e0030000d8
:020000040000fa
:04014400e0030000d4
:020000040000fa
:04014800e0030000d0
:020000040000fa
:04014c00e0030000cc
:020000040000fa
:04015000e0030000c8
:020000040000fa
:04015400e0030000c4
:020000040000fa
:04015800e0030000c0
:020000040000fa
:04015c00e0030000bc
:020000040000fa
:04016000e0030000b8
:020000040000fa
:04016400e0030000b4
:020000040000fa
:04016800e0030000b0
:020000040000fa
:04016c00e0030000ac
:020000040000fa
:04017000e0030000a8
:020000040000fa
:04017400e0030000a4
:020000040000fa
:04017800e0030000a0
:020000040000fa
:04017c00e00300009c
:020000040000fa
:04018000e003000098
:020000040000fa
:04018400e003000094
:020000040000fa
:04018800e003000090
:020000040000fa
:04018c00e00300008c
:020000040000fa
:04019000e003000088
:020000040000fa
:04019400e003000084
:020000040000fa
:04019800e003000080
:020000040000fa
:04019c00e00300007c
:020000040000fa
:0401a000e003000078
:020000040000fa
:0401a400e003000074
:020000040000fa
:0401a800e003000070
:020000040000fa
:0401ac00e00300006c
:020000040000fa
:0401b000e003000068
:020000040000fa
:0401b400e003000064
:020000040000fa
:0401b800e003000060
:020000040000fa
:0401bc00e00300005c
:020000040000fa
:0401c000e003000058
:020000040000fa
:0401c400e003000054
:020000040000fa
:0401c800e003000050
:020000040000fa
:0401cc00e00300004c
:020000040000fa
:0401d000e003000048
:020000040000fa
:0401d400e003000044
:020000040000fa
:0401d800e003000040
:020000040000fa
:0401dc00e00300003c
:020000040000fa
:0401e000e003000038
:020000040000fa
:0401e400e003000034
:020000040000fa
:0401e800e003000030
:020000040000fa
:0401ec00e00300002c
:020000040000fa
:0401f000e003000028
:020000040000fa
:0401f400e003000024
:020000040000fa
:0401f800e003000020
:020000040000fa
:0401fc00e00300001c
:020000040000fa
:04020000e003000017
:020000040000fa
:04020400e003000013
:020000040000fa
:04020800e00300000f
:020000040000fa
:04020c00e00300000b
:020000040000fa
:04021000e003000007
:020000040000fa
:04021400e003000003
:020000040000fa
:04021800e0030000ff
:020000040000fa
:04021c00e0030000fb
:020000040000fa
:04022000e0030000f7
:020000040000fa
:04022400e0030000f3
:020000040000fa
:04022800e0030000ef
:020000040000fa
:04022c00e0030000eb
:020000040000fa
:04023000e0030000e7
:020000040000fa
:04023400e0030000e3
:020000040000fa
:04023800e0030000df
:020000040000fa
:04023c00e0030000db
:020000040000fa
:04024000e0030000d7
:020000040000fa
:04024400e0030000d3
:020000040000fa
:04024800e0030000cf
:020000040000fa
:04024c00e0030000cb
:020000040000fa
:04025000e0030000c7
:020000040000fa
:04025400e0030000c3
:020000040000fa
:04025800e0030000bf
:020000040000fa
:04025c00e0030000bb
:020000040000fa
:04026000e0030000b7
:020000040000fa
:04026400e0030000b3
:020000040000fa
:04026800e0030000af
:020000040000fa
:04026c00e0030000ab
:020000040000fa
:04027000e0030000a7
:020000040000fa
:04027400e0030000a3
:020000040000fa
:04027800e00300009f
:020000040000fa
:04027c00e00300009b
:020000040000fa
:04028000e003000097
:020000040000fa
:100400008f1d21000eff27000e0188000000000054
:10041000000020000000e000020032000001200087
:100420002002880014000700e70007000000e00039
:1004300003003a00a0ba21000100200002003700aa
:100440000000200001002000810f70000100320038
:100450000f000700000020000000e0000200320052
:1004600000000200000000003a1602000000000038
:100470000040da000000fe00600120000000e00003
:1004800002003200002020009001880000000600d9
:10049000a1028800800478000000eb001f003700f4
:1004a000e284440054a0b4009905ba00e2844400f8
:1004b00054a0b4009906ba00e284440054a0b400e9
:1004c0000006eb00476fde00fd07b200ae018800ba
:1004d000636ce10003003a000ad801000000eb0061
:1004e0000e003700606ce10008003a00004deb00a0
:1004f0000a05e800020039003420ec000af0a000f0
:100500008b05e900f9ff3e00040037006168e10057
:10051000010032000086eb000b00070019c7ba008b
:100520000e04e0001905ba0003003a000a00e000da
:10053000dbff3a0000000600fe07b200ae028800b2
:100540008a047800f5ff37000cd0a300e20f4d00bd
:100550001c003b0089027800354dba000a05e8000e
:10056000020039003420ec000af0a0008b05e900fd
:100570000f003200254dba000a05e80002003900dc
:100580003420ec000af0a0008b05e90008003200de
:100590000c00e0000600320015cdba000a05e800a4
:1005a000020039003420ec000af0a0008b05e900bd
:1005b0008984e80054a0b4000b00e000e2ff3a0098
:1005c000000006009902ba00055d78008b05e9007d
:1005d000f7ff3200c82ade00055d78008b05e900d0
:1005e000f3ff32000c00e000f1ff320019ddba0029
:1005f000eeff37000000fa000108a9000080fa00b1
:10060000004006003600f800809fbe00829fbe00ba
:10061000849fbe00869fbe000000fa000068a9000b
:10062000940c0700690b07007c0407000080fa00a7
:100630004f03be004f02be004f01be004f00be0080
:100640003600f90000400600809fbe000000fa005e
:100650000368a900b0808000c18080006100400074
:10066000e0804800b0808800c18088000080fa00e7
:100670004f00be0000400600809fbe000000fa0050
:1006800001a8a900011880002000210001087800bd
:1006900011188000200021000080e8000108780087
:1006a000211880002000210064004000010878002b
:1006b00041188000200021006600400001087800f9
:1006c00031188000200021006800400001087800f7
:1006d00010c0b3000af0b7000080fa004f00be005f
:1006e000004006003600f800809fbe00829fbe00da
:1006f000849fbe00869fbe000000fa000188a9000a
:10070000e1808000d0808000808f500002003200a5
:10071000d20a0700010037001e70ef000080fa00c7
:100720004f03be004f02be004f01be004f00be008f
:100730003600f900004006003600f800809fbe0039
:10074000829fbe00849fbe00869fbe000000fa000c
:100750000168a90010118000640060000000e00042
:10076000010032002242a9001011800062006000e6
:100770000000e000060032002222a9000500370038
:100780003011800000407800200b07000100370086
:100790000000000010118000610060000000e00017
:1007a000f7ff3a000080fa004f03be004f02be0080
:1007b0004f01be004f00be003600f90000400600a9
:1007c0000040da000000fe000000050014002000d8
:1007d0008f033700f4ff2f008d0337000001be00a8
:1007e000210007000470a70003f0a1006509b10013
:1007f000160032000d0035006828e10006003500c3
:10080000f0ff2f00f1ff27000300e00013003b0082
:100810000100280000000500000040008180480021
:100820008502e900fcff3a0008003700f88f42001b
:1008300002003c008000eb00000005008100d100b8
:100840000080d3008502e800fcff3a000300e000ce
:1008500002003b0060001000e0801800000006006d
:100860006011b80085033700c70ade00f107b20047
:10087000f50fb20008003200e1cf42000200320062
:100880000170a00024000500810f700001003200fb
:100890000408050044000500810f700002003a00c2
:1008a000140005008502e9000000400081c04800f6
:1008b000fcff3b000170a0002400050007f82700a2
:1008c000078361000638e10004003a00f7072000c2
:1008d000878361008703710001003a0003f0a200e2
:1008e000889fbe008a9fbe008c9fbe00470ade0024
:1008f0000480a100c71ade000580a10007002800bf
:100900000785600087856100f70f20000720e10060
:100910009e0032000728e1009c00320001067800aa
:100920000400e000b4003200f70720008780600078
:100930000170a0000500e000c0003200f7072000b1
:10094000878161000370a000050652000f003a0085
:100950000b50e1000b0032000308e10002003a00f6
:100960000200e1007e00320002045000838458003f
:10097000040031000001fd008101fd008402fd0042
:100980008a05fd006044b800210037000520e10021
:1009900005003d000001fd008101fd008402fd0015
:1009a0008a05fd00050652007a60e1000500350069
:1009b0000170a1004722dd00848070008a807000f1
:1009c000630037006044b800ef02660007ff2f00a5
:1009d000070666000500e00006003400f083120000
:1009e0008714dd000511de00071bdd000601710024
:1009f0008519de007060e10005003500090478000b
:100a000082047800030178008001eb007006560034
:100a10000b50e10003003a000200400083804800d0
:100a20000400370060041400e0841c000200580039
:100a3000838058000188a300060032008100d100a5
:100a40000080d3008984d3000884d3000402e80026
:100a5000270037000178a30025003a000100e000dc
:100a6000030032008186cf00698656000a003700f5
:100a70008c0020000000e00004003a00090078002b
:100a8000880478000004eb00700252008086cf00da
:100a90000d0646000c06e9007060e1000600350016
:100aa0008000780009007800880478000004eb00da
:100ab00070065600700252000c00e0000c0034007a
:100ac0008c08dd00f00316000703de00868070004e
:100ad0000c00dd00074bde00060070008c4cdd00d2
:100ae0000743de00868474000c44dd000c025200d3
:100af0006120e1002000350061016000070028004e
:100b000087816400f7ff2700878364000703740070
:100b10000300e0000600320082037300040032008c
:100b20000000e800e08048000188a3000e003a00c1
:100b3000f70f20000720e1004a003d000170a100ee
:100b40004722dd00810072008a8070000000be0034
:100b50004f06be004f05be004f04be000000060059
:100b60006000b800faff37008100d1000080d30098
:100b70000402e800eeff37000401780089017400e8
:100b8000a10107008a807000f1ff3700f70107001c
:100b9000070278000001fd008101fd00f30107005c
:100ba00087027800850372000778a30004003200f2
:100bb0000001fd008101fd0006020700e4ff37008f
:100bc000850362000768a300080032000b50e100b3
:100bd00003003200f0ff2f00f1ff2700dcff370099
:100be0000001fd008101fd00d9ff37000468a3006a
:100bf000d7ff3200faff3700f8ff27008883600034
:100c00000b003a000000e00009003a008303640092
:100c100082837300020032000200be00ccff370066
:100c20000b50e100ceff3a000200be00c8ff3700c3
:100c300014002000810064003eff3700f8ff270009
:100c40008883610004003a000200e00002003a00dc
:100c50008c007800beff370015002000830164007f
:100c600039ff370001f827000000200081007500df
:100c7000b7ff3700889fbe008a9fbe008c9fbe00d2
:100c80001b0020000202be00058668000600280046
:100c9000060666004709de00f20fb200820032004d
:100ca0000243e80080003200c729de00f30fb200e3
:100cb0007d0032000343e8007b003200f107b20000
:100cc0000170a000f507b2000570a000c708dd00a4
:100cd0004903de00868070004700dd00c72add0082
:100ce0004923de00868272004722dd0003055100a1
:100cf00004035000858358000300310000004000c9
:100d0000818048000a05e9008c1f78008a9fbe0098
:100d100004005000858058000402420085824a0089
:100d200000004000818048000005eb000004be0088
:100d30006033b8000406be000d48e10056003100e3
:100d4000110009004dccd8000c01b8000d02b8000c
:100d50008481410060824a008283530003045c0066
:100d600084845c0060055d000a00e00025003a0014
:100d7000800578000d40e1004900310088007800ce
:100d800007007800110009004d88d8000c01b80058
:100d90000d02b8008481410060824a0060031100a6
:100da00083835b0004045c00e0845c000900e000d5
:100db00021003a004f01be000300e0002b0032008a
:100dc000e3016000070673008c81710001003200ae
:100dd000640070004200de004e5edd000c0070001a
:100de000c258de0001e0a00083010700cf017800b7
:100df000818071004f06be004f05be004f04be004b
:100e0000000006008c8343000d044c00e0844c007d
:100e100060054d000000e9000a00e000d4ff320048
:100e20008c8343000d044c00e0844c0060054d00b1
:100e30000000e900ceff37000c0343008d834b0018
:100e400060044c00e0844c000000e9000900e00070
:100e5000d8ff32000c0343008d834b0060044c002c
:100e6000e0844c000000e900d2ff37004200de00c1
:100e70004e5edd000c007000c258de0001e0a000f4
:100e8000cf0178000300e000daff320060001000bc
:100e9000e0801800d7ff3700f0ff2f00aaff3700cf
:100ea000f0ff2f00b9ff37000404be002f01070038
:100eb000870678000004fd008104fd002b01070077
:100ec000078366000678a300030032000960a700cc
:100ed0000800be002c0037000d78a300020032008d
:100ee0000800be00280037000778a30026003a005b
:100ef00001f0a10009f0a1000668a3000300320080
:100f0000f1ff2700f0ff2f00baff37000d68a300a4
:100f1000030032000800be008c807000b5ff37006f
:100f20000768a30007003a000648a3000300320048
:100f3000f1ff2700f0ff2f00aeff37000d48a300a0
:100f4000030032006000b8008c807000a9ff3700f9
:100f50000748a3000400320001f827000000200029
:100f60008c807000a3ff3700760107000004fd00ad
:100f70008104fd0002057800720107000802be002e
:100f80008a01780059ff37000160a000120220009a
:100f90006281880097ff37000100e00012003200f4
:100fa0000500e00010003200889fbe008a9fbe004e
:100fb0008c9fbe000006eb0001f8a3000300320086
:100fc00060001000e08018000cf0a00005f8a300fd
:100fd0000300320060021200e0821a000cf0a2004e
:100fe0008005eb0041ff37006000b80002000500fb
:100ff000038368000700280007036300470ade0038
:101000000480a100c71ade000580a100f70f2000b0
:101010000720e100420032000728e10040003200d2
:10102000889fbe008a9fbe008c1f7800f107b20027
:10103000f307b2000400e000640032000170a00079
:101040000500e000680032000370a0008505420042
:10105000eb07b1000204b8000302b8008484440026
:1010600060854a00020ab800848444000a854a0068
:10107000030ab80004054500040033000804d0004a
:101080008984d2000a85d2008b05e9006158e1000d
:101090003d00350002102000090161000308200016
:1010a00089816100f7072000878364000886730048
:1010b000c84cde00c853dd00878474004855de004c
:1010c0000300e000060032008203760004003200d4
:1010d0008904e80060054d000a88a3000c003a006e
:1010e000f70f20000758e10044003d000a70a100fe
:1010f000c75ddd000a8575008a007300090078006d
:101100004f0678004f05be004f04be0000000600e9
:101110000a05d1008984d3008b05e800f0ff370071
:10112000881f780006047800900007000702780006
:101130000001fd008101fd008c000700870278009e
:10114000850372000778a300050032000001fd004e
:101150008101fd009f0007004f0478000000060099
:10116000850372000748a30003003200f0ff2f0040
:10117000f1ff2700f8ff37000000200001f82700ea
:1011800088807000f4ff3700880178004848dd004f
:10119000808171004848de00c850dd000100700009
:1011a000c850de00060478000b0178001600070026
:1011b00088807000d2ff37000500e0000500320093
:1011c000170020003a0007009dff370081037000e0
:1011d000f9ff3a00860078004f0678004f05be0000
:1011e0004f04be000000050083037100f9ff3200c8
:1011f000270020002e00070094ff370001f8270089
:1012000086807000f4ff37000100e0002600320005
:10121000610111007810e10023003c006022b80059
:101220007010e100040035008002780001007800b1
:101230008000eb00700151000200e0000900340062
:1012400070031100062add00822ade008603dd001d
:10125000878272000200de00860bdd00070070004e
:101260008208de0084817100f4ff2700048262009e
:1012700084817100040028008482620061026000a1
:1012800005f0a6000000060004827100070032008d
:101290000000e800e0804800000006000002be00f8
:1012a0006000b800efff37006000b80000000600e3
:1012b000889fbe000004eb006138e10016003a0090
:1012c0000100e00008003a00c800de004800dd0030
:1012d000880020000100e00003003a00c800de00a2
:1012e0004800dd00680444008184cf00e984540094
:1012f000060034008908dd00f08314008703de0057
:10130000878070000900dd000904440061021400b8
:101310004f04be00000006000300e00008003a0091
:10132000c811de004811dd00880020000300e00045
:1013300003003a00c811de004811dd0068044400d3
:101340008384cf00e9845400060034008919dd004d
:10135000f08314008713de00878171000911dd001e
:1013600009044400e1021400e9ff370027002000cf
:1013700001f0a70017002000470bde00f60fb200b7
:10138000040032000643e8000a0032004702b300be
:101390000000060001037800f607b20006037000a3
:1013a00002003a000703b300000006008702b30002
:1013b0000000060001037800f607b2000603700083
:1013c000020032000770a000000006000760a000c5
:1013d000000006000478a300040032000578a30092
:1013e000030032000168a30001003a000200be00c1
:1013f0000160a0000000060081017000270032009b
:101400008002eb0001f8a30003003200600010002e
:10141000e080180015002000f407200002024200be
:1014200020003400f703200087036000060420003a
:101430000003630002082000000161004700de0095
:10144000c909dd0000807100c708de000600e00069
:101450000800320087037100060032001000b0005f
:101460000180b0000188a30002003200c108de0044
:101470000402e800f107b200f30f20000320e100ae
:1014800003003d004722dd00810072002900370083
:1014900001f827000000eb00260037006000b800cc
:1014a00000000600680212007f20e1000200340004
:1014b0006000b8001f0037006011b8007020e10024
:1014c0000400350080017800010078008000eb0006
:1014d000700252000400e00009003400f003120022
:1014e0000719dd008419de000703dd008681710025
:1014f0000400de00070bdd00060070008408de003b
:10150000f7ff27008383630087037100060028002c
:1015100003036300070032000700e00003003a0005
:101520006101600002817300020032001000b0000f
:101530000180b0000500a6000000060001f0a00038
:10154000000006004f0ade004709de00f107b20086
:10155000f20fb2000b003200f207b1000170a000e0
:10156000c708dd00c901de00838070004700dd0090
:101570000400a6000000060060001000e0801800d3
:1015800000000600810f700001003a000000060014
:101590008182cf000500e00010003e008082cf0075
:1015a000ee8242007028e1000400390007003e008e
:1015b000800078000000eb000e00370070831200fe
:1015c0008600de000500dd000a003700708352004f
:1015d0008600dd000000eb0006003700e2825200ca
:1015e0008508dd00708312000603de00868070002f
:1015f0000500dd007507b0000501ea000400a60043
:101600000000060060001000e080180000000600e6
:10161000889fbe008a9fbe00841f78006c00070070
:101620004f00780011003300f0ff2f00838f6c0013
:1016300006003b00040565000a00a700080037000b
:1016400009f0a6001000200008003700820f5400a7
:10165000838f5c00030039001000200001003e0071
:101660000000200009f0a7000000ea004f05be00be
:101670004f04be000000e00000000600889fbe008e
:101680008a9fbe0000827000040271000482710013
:10169000260032000004be000200be006011b80047
:1016a0006b092000950220000182cf000a0039005a
:1016b0000541b1000082cf00070039000541b100ab
:1016c0000982cf00040039000541b1000882cf0033
:1016d000010039000541b1000542520012003200fc
:1016e0000a003b0082817100610164008100d10029
:1016f0000080d3008984d3000884d3008b05e800e0
:101700000442e800f7ff3a000700370008044400ed
:1017100089844c0000004800818048008b05e90066
:101720000442e900f9ff3a00030007004f05be003c
:101730004f04be00000006008100200061805500bb
:101740000b003d000b00200061fe2f000100e100b6
:101750001d00340082817100610164008904d100a0
:101760000884d3000000e800faff3a00710020006e
:101770006100640003007000020060000900320094
:1017800061044400e0844c000988a5000500320093
:101790008b05e8006808e10002003a008904d100e6
:1017a0000884d300f20f20000258e10005003d003c
:1017b000c75ddd00f907b200898075000800780078
:1017c000000006000bf827008b00780000000500e1
:1017d0000004be0024fc07000003be000405be0098
:1017e0000200be0020fc0700844f750000000600c8
:020000040000fa
:1017f000426f00006e6a00006f750000720000000a
:10180000420000006f0000006e0000006a0000004f
:0c1810006f000000750000007200000076
:020000040000fa
:10181c000000fa000cd0bf000080fb00cf80de007f
:10182c007201200003002000820f5000838f5800ab
:10183c00a2003e0000060100170037002000370010
:10184c003600370040003700410037004b003700ae
:10185c004c00370056003700570037006100370046
:10186c00620037006c00370094003700930037009b
:10187c00920037009100370069003700750037007f
:10188c007f003700710037007f0037008900370078
:10189c00150037001f0037001630ef001830ef002e
:1018ac0012c0b3006000b800e90707000041eb006c
:1018bc006000b800e607070010c0b3000cf0b700da
:1018cc00b2808000c3808000803e20000100200098
:1018dc00800f5100818f59007b00360020c0b3006f
:1018ec000cf0b7007900370012c0b30000002000e4
:1018fc00011a2400d60707000041eb00000020006d
:10190c00011a2400d207070070c1b3000cf0b70015
:10191c006e0037006f0007006c00370012c0b30078
:10192c0000002000811c2400c90707000041eb00c7
:10193c0000002000811c2400c507070030c0b30044
:10194c000cf0b70061003700620007005f00370041
:10195c0012c0b3000000200001112400bc070700d6
:10196c000041eb000000200001082c00b807070024
:10197c0050c0b3000cf0b7005400370055000700fe
:10198c005200370012c0b3000000200001082c00e8
:10199c00af0707000041eb000000200001112400fc
:1019ac00ab07070070c0b3000cf0b700470037005e
:1019bc00480007004500370012c0b30000002000ab
:1019cc0001172400a20707000041eb0000002000d3
:1019dc0001172c009e07070090c0b3000cf0b70055
:1019ec003a0037003b0007003800370012c0b30044
:1019fc000000200001122c00950707000041eb00ad
:101a0c00000020000112240091070700b0c0b300b1
:101a1c000cf0b7002d0037002e0007002b0037000c
:101a2c0012c0b30000002000010c2c008807070036
:101a3c000041eb0000002000011424008407070083
:101a4c0030c1b3000cf0b7002000370021000700b4
:101a5c001e00370012c0b300000020000114240047
:101a6c007b0707000041eb0000002000010c2c005c
:101a7c007707070020c1b3000cf0b7001300370044
:101a8c00140007001100370012c0b3000000200042
:101a9c0001122c006e0707000041eb000000200033
:101aac0001122c006a07070050c1b3000cf0b700fc
:101abc000600370007000700040037000c70ef0029
:101acc000000000001003700000000000080fa0058
:101adc00000006000200fa00881f78000040eb00ae
:101aec00004f78007180800070bb2000808f500008
:101afc0020003400648e8000758e8000208e800063
:101b0c00318e800018c0b3000001be000400be007e
:101b1c002bfb07000000e000010034000044eb0048
:101b2c000804e0000300320070c0b300004f7800de
:101b3c0020023700648e8000758e8000208e80001d
:101b4c00318e800018c0b3000001be000400be003e
:101b5c001dfb07000000e00001003d000044eb000d
:101b6c000804e0001302320060c0b300004f78009c
:101b7c0010023700208e8000318e800018c0b30018
:101b8c0002002000031f24000ffb07000000e000f0
:101b9c0001003c000044eb000804e000300032007f
:101bac00408e8000518e800018c0b30002002000cf
:101bbc000322240004fb07000000e00001003c00ad
:101bcc000044eb000804e00025003200608e800029
:101bdc00718e800018c0b30002002000031f240087
:101bec00f9fa07000000e00001003c000044eb00a3
:101bfc000804e0001a003200808e8000918e800074
:101c0c0018c0b30002002000031a2400eefa0700eb
:101c1c000000e00001003c000044eb000804e00080
:101c2c000f003200a08e8000b18e800018c0b3006f
:101c3c0002002000031a2400e3fa07000000e00071
:101c4c0001003c000044eb000804e00004003200fa
:101c5c000040eb00004f780064eea800d50137007f
:101c6c00808e8000918e800018c0b300020020008e
:101c7c0003172400d2fa07000000e0000100350031
:101c8c000044eb000804e0001a003200a08e800033
:101c9c00b18e800018c0b30002002000031724008e
:101cac00c7fa07000000e000010035000044eb001b
:101cbc000804e0000f003200408e8000518e80003e
:101ccc0018c0b30002002000031a2400befa07005b
:101cdc000000e00001003c000044eb000804e000c0
:101cec000400320080c0b300004f780064eea800fe
:101cfc00b0013700208e8000318e800018c0b300f8
:101d0c000200200003172400adfa07000000e000d9
:101d1c00010035000044eb000804e0003000320004
:101d2c00408e8000518e800018c0b300020020004d
:101d3c00031a2400a4fa07000000e00001003c0094
:101d4c000044eb000804e00025003200608e8000a7
:101d5c00718e800018c0b30002002000031724000d
:101d6c0097fa07000000e000010035000044eb008a
:101d7c000804e0001a003200808e8000918e8000f2
:101d8c0018c0b30002002000031724008cfa0700cf
:101d9c000000e000010035000044eb000804e00006
:101dac000f003200a08e8000b18e800018c0b300ee
:101dbc00020020000317240081fa07000000e00055
:101dcc00010035000044eb000804e0000400320080
:101ddc0030c0b300004f780064eea80075013700e6
:101dec00208e8000318e800018c0b30002002000cd
:101dfc00831c240072fa07000000e000010035008b
:101e0c000044eb000804e00030003200408e8000fb
:101e1c00518e800018c0b30002002000031a240069
:101e2c0069fa07000000e00001003c000044eb00f0
:101e3c000804e00025003200608e8000718e800066
:101e4c0018c0b30002002000831c24005cfa0700b9
:101e5c000000e000010035000044eb000804e00045
:101e6c001a003200808e8000918e800018c0b30062
:101e7c0002002000031a240051fa07000000e000c1
:101e8c00010035000044eb000804e0000f003200b4
:101e9c00a08e8000b18e800018c0b300020020001c
:101eac00031a240046fa07000000e0000100350088
:101ebc000044eb000804e0000400320080c0b300d2
:101ecc00004f780064eea8003a013700408e800085
:101edc00518e800018c0b30002002000031a2400a9
:101eec0039fa07000000e00001003c000044eb0060
:101efc000804e0001d003200808e8000918e80006e
:101f0c0018c0b30002002000031a24002cfa0700aa
:101f1c000000e000010035000044eb000804e00084
:101f2c0012003200a08e8000b18e800018c0b30069
:101f3c0002002000031a240023fa07000000e0002e
:101f4c0001003c000044eb000804e00007003200f4
:101f5c00708080000000e8007080880050c0b300e2
:101f6c00004f780064eea80012013700408e80000c
:101f7c00518e800018c0b30002002000031a240008
:101f8c0011fa07000000e00001003c000044eb00e7
:101f9c000804e0001d003200808e8000918e8000cd
:101fac0018c0b30002002000031a240006fa070030
:101fbc000000e00001003c000044eb000804e000dd
:101fcc0012003200a08e8000b18e800018c0b300c9
:101fdc0002002000031a2400f9f907000000e000b9
:101fec00010035000044eb000804e000070032005b
:101ffc00708080000000e8007080880040c0b30052
:10200c00004f780064eea800ea003700408e800094
:10201c00518e800018c0b30002002000031a240067
:10202c00e9f907000000e00001003c000044eb006f
:10203c000804e0001d003200208e8000318e8000ec
:10204c0018c0b30002002000031a2400def90700b8
:10205c000000e00001003c000044eb000804e0003c
:10206c0012003200608e8000718e800018c0b300a8
:10207c0002002000031a2400d1f907000000e00040
:10208c00010035000044eb000804e00007003200ba
:10209c00708080000000e8007080880010c0b300e1
:1020ac00004f780064eea800c2003700408e80001c
:1020bc00518e800018c0b30002002000031a2400c7
:1020cc00c1f907000000e00001003c000044eb00f7
:1020dc000804e0001d003200208e8000318e80004c
:1020ec0018c0b30002002000031a2400b4f9070042
:1020fc000000e000010035000044eb000804e000a3
:10210c0012003200608e8000718e800018c0b30007
:10211c0002002000031a2400abf907000000e000c5
:10212c0001003c000044eb000804e0000700320012
:10213c00708080000000e8007080880064eea800c9
:10214c0020c0b300004f78009a003700808e8000ca
:10215c00918e800018c0b30002002000031a2400e6
:10216c0097f907000000e000010035000044eb0087
:10217c000804e0001d003200408e8000518e80006b
:10218c0018c0b30002002000031a24008cf90700c9
:10219c000000e000010035000044eb000804e00002
:1021ac0012003200848e8000958e8000a08e8000fc
:1021bc00b18e800018c0b3000001be000400be0048
:1021cc007ff907000000e000010035000044eb003f
:1021dc000804e0000500320060c0b300004f780036
:1021ec000e30ef0064eea90072003700a08e800064
:1021fc00b18e800018c0b30002002000031a240026
:10220c006ff907000000e000010035000044eb000e
:10221c000804e00010003200408e8000518e8000d7
:10222c0018c0b30002002000031a240064f9070050
:10223c000000e000010035000044eb000804e00061
:10224c000500320070c0b300004f78000e30ef0074
:10225c0064eea90057003700208e8000318e80007c
:10226c0018c0b30002002000831c240054f907009e
:10227c000000e000010035000044eb000804e00021
:10228c001d003200408e8000518e800018c0b300bb
:10229c0002002000031a24004bf907000000e000a4
:1022ac0001003c000044eb000804e0001200320086
:1022bc00648e8000758e8000208e8000318e8000b0
:1022cc0018c0b3000001be000400be003ef90700b8
:1022dc000000e00001003d000044eb000804e000b9
:1022ec000500320020c0b300004f78000e30ef0024
:1022fc0064eea9002f003700608e8000718e800084
:10230c0018c0b30002002000831c24002cf9070025
:10231c000000e000010035000044eb000804e00080
:10232c0010003200408e8000518e800018c0b30027
:10233c0002002000031a240023f907000000e0002b
:10234c0001003c000044eb000804e00005003200f2
:10235c0010c0b300004f78000e30ef0064eea900ff
:10236c0014003700408e8000518e800018c0b300de
:10237c0002002000831c240011f907000000e0007b
:10238c00010035000044eb000804e00005003200b9
:10239c0030c0b300004f78000e30ef0064eea9009f
:1023ac000400370080c0b300004f78000e30ef00ff
:1023bc0064eea9001e4078000004e00003003a001f
:1023cc0020c0b30012f0b700540037001e40780054
:1023dc00e84f500003003a0060c1b30012f0b700a0
:1023ec004e0037001e407800e24f500003003a00c8
:1023fc0040c0b30012f0b700480037001e40780010
:10240c00e14f500003003a0060c0b30012f0b70077
:10241c00420037001e407800e34f50000e003a0097
:10242c000500370040c1b30012f0b7008080800077
:10243c000000e800808088008180800070252000ea
:10244c00808f5000f7ff34001030ef0080c0b300d5
:10245c0012f0b700310037001e407800e44f5000f6
:10246c0003003a0000c1b30012f0b7002b00370094
:10247c001e407800e54f500003003a0010c1b30035
:10248c0012f0b700250037001e407800e74f5000cf
:10249c0010003a007180800080bb2000808f5000bb
:1024ac0009003a0005003700a0c0b30012f0b700d5
:1024bc00708080000000e9007080880070808000cf
:1024cc000000e000f8ff3c00a0c0b30012f0b70021
:1024dc00120037001e407800e64f50000f003a0003
:1024ec007180800080bb2000808f500009003a0072
:1024fc000500370080c0b30012f0b7007080800078
:10250c000000e90070808800708080000000e0000e
:10251c00f8ff3c0080c0b30012f0b70012d0bf002f
:10252c008080fb000cd0bf000080fb000000e900a5
:10253c00808f50000200320012d0bf000cf0b700a8
:10254c004f0478000080fa00000006000000fa003a
:10255c0013e1a90011e1a9001061a8001021a90044
:10256c0081088000f0fc2f0000806000800888004b
:10257c000a21ef000621ef002026200070088800b9
:10258c0000a02500600888002142800080ff2f00f9
:10259c00008060000000a000204288000108a90013
:1025ac002108a80011e1a8000080fa000000060034
:1025bc000000fa0005e1a9000421a9000068a900a7
:1025cc002068a80005e1a80000002800b1532400f1
:1025dc00020007000080fa00000006000400fa0068
:1025ec00881f7800008fbe0021088000f0fc2f00af
:1025fc0000806000200888001e0178009e01900079
:10260c000068290081c1240097f9070018c0b300a5
:10261c0002f02f00f37724006bf807000000e000b5
:10262c0001003c000044eb000804e00054003200c0
:10263c0021088000f0fc2f00008060000040a0000a
:10264c00200888001e0178009e0190000068290077
:10265c0081c1240084f9070002002000031024002b
:10266c0081f9070018c0b30002f02f00f3772400a3
:10267c0055f807000000e00001003c000044eb00ae
:10268c000804e0003200320021088000f0fc2f002a
:10269c00008060000050a000200888001e01780017
:1026ac009e0190000068290081c124006ef907008a
:1026bc0002002000032824006bf9070018c0b300a7
:1026cc0002f02f00f37724003ff807000000e00031
:1026dc0001003c000044eb000804e0001000320054
:1026ec0021088000000320000100700020088800f1
:1026fc001e0178009e0190000068290081c1240011
:10270c0059f90700020020000338240056f907008d
:10271c002ff8070000007800100888002000370010
:10272c001e0178009e0190000068290081c12400e0
:10273c004df9070002002000032824004af9070085
:10274c0023f80700000078001008880014003700f8
:10275c001e0178009e0190000068290081c12400b0
:10276c0041f9070002002000031024003ef9070085
:10277c0017f80700000078001008880008003700e0
:10278c001e0178009e0190000068290081c1240080
:10279c0035f907000ef807000000780010088800d3
:1027ac004f0478000080fa00000006000000fa00d8
:1027bc001fe1a9001e21a9000368a9002368a80035
:1027cc001fe1a80000002000a14724000200070020
:1027dc000080fa00000006000400fa00881f780050
:1027ec00008fbe00f1088000f0fc2f00008060001c
:1027fc00f00888001e0178009e01900000682900f6
:10280c0081c1240018f9070018c0b30002f02f0092
:10281c00f3772400ecf707000000e00001003c0017
:10282c000044eb000804e00054003200f108800082
:10283c00f0fc2f00008060000040a000f008880031
:10284c001e0178009e0190000068290081c12400bf
:10285c0005f90700020020000310240002f907000c
:10286c0018c0b30002f02f00f3772400d6f707004e
:10287c000000e00001003c000044eb000804e00014
:10288c0032003200f1088000f0fc2f000080600064
:10289c000050a000f00888001e0178009e019000f6
:1028ac000068290081c12400eff807000200200015
:1028bc0003282400ecf8070018c0b30002f02f0026
:1028cc00f3772400c0f707000000e00001003c0093
:1028dc000044eb000804e00010003200f108800016
:1028ec000003200001007000f00888001e01780031
:1028fc009e0190000068290081c12400daf80700cd
:10290c000200200003382400d7f80700b0f70700b6
:10291c0000007800d0088800200037001e017800e5
:10292c009e0190000068290081c12400cef80700a8
:10293c000200200003282400cbf80700a4f70700ae
:10294c0000007800d0088800140037001e017800c1
:10295c009e0190000068290081c12400c2f8070084
:10296c000200200003102400bff8070098f70700ae
:10297c0000007800d0088800080037001e0178009d
:10298c009e0190000068290081c12400b6f8070060
:10299c008ff7070000007800d00888004f047800fb
:1029ac000080fa00000006000a00fa00e40147006b
:1029bc00800978006600470001087800680047002d
:1029cc00020878000040eb00004f7800e0cfb30025
:1029dc001e4f680064004700100078004880de003d
:1029ec00004078001e4f680064004700100078001b
:1029fc00004078001e4f6800660047001000780009
:102a0c004880de00004078001e4f680066004700da
:102a1c0010007800004078001e4f68008000eb002a
:102a2c000e80e800010878000c0037000e80e800ea
:102a3c00900078006800470010007800010040000a
:102a4c00104078001e4f68000e80e80010007800df
:102a5c008000e8000e80e800010878000e80e80095
:102a6c00900078006600470010007800808f5000be
:102a7c00eeff35001e4078000080fa0000000600d2
:102a8c000e00fa00889fbe00e8014700800978001c
:102a9c006a004700010878006c00470002087800c3
:102aac000f0478000f007800800478006a0047005b
:102abc0010007800660040000001e900e4004700c7
:102acc00820878000000e8000000e8000000d10057
:102adc00800040000f007800818747000000e8006c
:102aec000000d10000004000e6004700800878009c
:102afc000000eb00000f7800660047001000780023
:102b0c001e004000e1cfb300014878001e0fe80022
:102b1c0068004700100078004880de008040780094
:102b2c0066004700100078001e0040000148780045
:102b3c001e0fe80068004700100078008040780005
:102b4c0066004700100078001e0040000148780025
:102b5c001e0fe8006a004700100078004880de0075
:102b6c008040780066004700100078001e0040008e
:102b7c00014878001e0fe8006a004700100078003a
:102b8c008040780066004700100078001e0040006e
:102b9c00014878001e0fe8008000eb000e80e80072
:102bac0001087800110037000e80e80090007800d2
:102bbc006c004700100078000100400010407800c5
:102bcc008040780066004700100078001e0040002e
:102bdc00014878001e0fe8000e80e8001000780015
:102bec008000e8000e80e800010878000e80e80004
:102bfc00900078006a00470010007800808f500029
:102c0c00e9ff35006c004700100178006a004700ae
:102c1c0090007800680047001000780062ff070001
:102c2c008040780066004700100078001e004000cd
:102c3c00014878006a0047001000780066004000e8
:102c4c00e60047001101780080007800020078004f
:102c5c003c01070089077800880778004f04be0004
:102c6c000080fa00000006001400fa008b02070036
:102c7c005d0207004efe0700ccfe070033fe070086
:102c8c00d7020700940107001d02070064cea800bc
:102c9c0064eea800254ea80012c0b3006000b80076
:102cac00eb0207000041eb006000b800e8020700ef
:102cbc00cb0107000004e00088003200c4010700cb
:102ccc00000f78001e007800100078008000eb00e8
:102cdc00e0f607003233230033052400c1f8070067
:102cec000200200003582400dff70700d2cc2c0090
:102cfc00c3042400bbf807000e81e8000089be0065
:102d0c000e80e80010017800900190000000200077
:102d1c0081202400d4f7070002002000030a2400bd
:102d2c00e3f60700808e8800918e88001e80e800f4
:102d3c00100078008000eb00c6f607003233230049
:102d4c0033052400a7f807000200200003582400d4
:102d5c00c5f70700d2cc2c00c3042400a1f807004f
:102d6c000e81e8000089be000e80e800100178009a
:102d7c00900190000000200081202400baf7070089
:102d8c0002002000030a2400c9f60700208e8800e8
:102d9c00318e88009e00780064804000100078001e
:102dac008000eb00abf60700323323003305240020
:102dbc008cf807000200200003582400aaf7070033
:102dcc00d2cc2c00c304240086f807000e81e80046
:102ddc000089be000e80e800100178009001900080
:102dec0000002000812024009ff707000200200033
:102dfc00030a2400aef60700408e8800518e88002e
:102e0c001e01780066004100100078008000eb0085
:102e1c0090f60700323323003305240071f80700c5
:102e2c0002002000035824008ff70700d2cc2c009e
:102e3c00c30424006bf807000e81e8000089be0073
:102e4c000e80e80010017800900190000000200036
:102e5c008120240084f7070002002000030a2400cc
:102e6c0093f60700608e8800718e88009e007800b3
:102e7c0068804000100078008000eb0075f60700b9
:102e8c00323323003305240056f8070002002000db
:102e9c000358240074f70700d2cc2c00c304240080
:102eac0050f807000e81e8000089be000e80e80093
:102ebc001001780090019000000020008120240077
:102ecc0069f7070002002000030a240078f60700c7
:102edc00a08e8800b18e880045010700660147006e
:102eec0001c02800060009003119780080bf2800b5
:102efc00000178007100200000082000e0fe0700af
:102f0c0000a02500212620005a02070068ff370088
:102f1c000400fa00881f7800008fbe0018c0b300b0
:102f2c006011b8001e0078009e00900026f6070085
:102f3c000000e00001003d000044eb000804e0004c
:102f4c00030032001e0078009e0090000300370042
:102f5c001e0078009e00900001f0a2004f04780043
:102f6c000080fa00000006000800fa00881f7800b4
:102f7c00008fbe00640047000288be0018c0b3007a
:102f8c006400470010017800900190001e0078004a
:102f9c009e0090000cf607000000e00001003c00d1
:102fac000044eb000804e000030032001e0078002f
:102fbc009e009000030037006400470090009000d2
:102fcc00100078004f0478000080fa000000060022
:102fdc000800fa00881f7800008fbe0064004700cc
:102fec000288be0018c0b3006400470010017800ce
:102ffc00900190001e0078009e009000f0f50700f4
:10300c000000e000010035000044eb000804e00083
:10301c00030032001e0078009e0090000300370071
:10302c006400470090009000100078004f04780076
:10303c000080fa00000006000c00fa00881f7800df
:10304c00008fbe00640047000288be006800470085
:10305c000488be0018c0b300680047001001780057
:10306c00900190001e0078009e009000d6f507009d
:10307c000000e00001003c000044eb000804e0000c
:10308c000400320068004700301f780020177800d9
:10309c000f00370018c0b30064004700100178001f
:1030ac00900190001e0078009e009000c4f507006f
:1030bc000000e000010035000044eb000804e000d3
:1030cc000300320064004700301f7800201778009e
:1030dc001e0078009e0090004f0478000080fa00db
:1030ec00000006000400fa00008fbe00b2fd2000b4
:1030fc00930424001e0078009e009000daf607006e
:10310c000200200043332400b6f707000080fa00c9
:10311c00000006000400fa00008fbe00b2fd200083
:10312c00930424001e0078009e009000adf7070069
:10313c000200200043332400cbf607000080fa0085
:10314c00000006000600fa000e81e8000009780075
:10315c0064004700010878000040eb00004f780045
:10316c0057000700e400470091007800810f5000e1
:10317c00130034000040eb00004f780007003700cc
:10318c001e80fb008e80e8009100780000804000db
:10319c00104078000c0007001e4fe8001e80fb005a
:1031ac00e400470091007800810f5000f4ff3500d7
:1031bc00300007000004e00001003a002400070082
:1031cc000080fa00000006000200fa00004f7800b0
:1031dc003b0007000000e0000b003400d0808000b2
:1031ec00e1022100808040009e4878000000e80049
:1031fc00d0808800d1808000f0072000808f5000a4
:10320c00010034001a30ef000080fa0000000600c4
:10321c000200fa00e0808000e10221008080400082
:10322c0091407800014f78000000e800e0808800b1
:10323c00e1808000f0072000808f500001003400f6
:10324c001c30ef001e4078000080fa0000000600e1
:10325c000200fa0010c0b3001ef0b700ecff07002c
:10326c00004f78001e80fb00201188000080fa00bf
:10327c00000006000000fa001ed0bf000080fa001b
:10328c00000006000000fa00d1808000e080800081
:10329c00808f500004003500d1808000e0808000d9
:1032ac000080500004003700d1808000e080800056
:1032bc00008050000008b0000080fa0000000600fa
:1032cc000000fa00efff070001082000008050000a
:1032dc000080fa00000006000000fa0021e3a900bb
:1032ec002143a80001198000f0cf2f00008060005e
:1032fc00001988002043a90001198000000e20004d
:10330c00010070000019880011198000f0ff2100e5
:10331c0000806000101988002343a8001119800058
:10332c00f0cf2f0000806000101988001119800068
:10333c0030f82f00008060000040a00010198800b9
:10334c002203a9002223a90025e3a900f0c0b300a1
:10335c0024e3b70021198000f00f2e00808060005c
:10336c0000f0200001007000201988003303a90030
:10337c002e0ea8002f6ea8006f2ea8001e2ea800df
:10338c004feea80030c3a8003163a8002e03a8009c
:10339c003063a80031e3a8004119800000fc2f0025
:1033ac00008060004019880028e3a90001a8a9004a
:1033bc0021a8a80021e3a8000080fa000000060064
:1033cc000000fa002023a8000080fa00000006008c
:1033dc000000fa00200021000080fa000000060026
:1033ec000000fa000ad0bf000080fa0000000600be
:1033fc000000fa000a70ef000080fa0000000600de
:10340c000200fa00004f7800370007000000e000cf
:10341c000b00340030818000e10a210080804000e4
:10342c009e4878000000e8003081880031818000df
:10343c00f0072000808f5000010034002630ef0090
:10344c000080fa00000006000200fa0040818000b3
:10345c00e10a210080804000114f78000000e80054
:10346c004081880041818000f0072000808f50004f
:10347c00010034002830ef001e4078000080fa0074
:10348c00000006000000fa003181800040818000bd
:10349c00808f50000200320010c0b30001003700d2
:1034ac000040eb000080fa00000006000000fa006b
:1034bc003181800040818000808f500004003500f5
:1034cc003181800040818000008050000400370072
:1034dc003181800040818000008050000008b000e5
:1034ec000080fa00000006000000fa00efff070061
:1034fc0001082000008050000080fa000000060047
:10350c000000fa002002a9000111800090ff2f009a
:10351c00008060000011880020a2a9002062a80091
:10352c00500520004011880023a2a90023e2a90025
:10353c000188a9002188a80011118000f0f32f0048
:10354c0000806000101188000168a9002168a800a3
:10355c0021e2a8002342a8000080fa000000060027
:10356c000600fa000e81e8000009780064004700ac
:10357c00010878000040eb00004f78000040eb00a1
:10358c00004f78001100370000000000111180007e
:10359c0000202000008060000000e000fbff3a00eb
:1035ac000e80e80010007800104078000080fb00ce
:1035bc00201188000e80e800100078008000e800e0
:1035cc000e80e800010878001e4fe8001e80fb000a
:1035dc00e400470091007800810f5000eaff3500ad
:1035ec000080fa00000006000000fa000e2eef002a
:1035fc001e2eef002e2eef003e2eef004e2eef0073
:10360c005e2eef006e2eef00214ea90060cea900b9
:10361c0060eea90011cea90011eea90020cea900e0
:10362c0020eea9002136800000f82f0000806000f9
:10363c008001b300203688001134800000fc2f007c
:10364c00008060000000a00010348800103a800058
:10365c00000178000260a1006004200071052000c8
:10366c0023742000804978008149780082497800d1
:10367c00103a8000000178000260a0006004200075
:10368c00710520002374200080497800814978005e
:10369c00824978000080fa00000006000000fa0061
:1036ac00f0032000303a8800213a8000f0f32f001c
:1036bc0000806000203a8800213a800000fe2f0034
:1036cc00008060000000a000203a8800120020005a
:1036dc0080072000a1092000337420008049780065
:1036ec008149780082497800103a80000001780006
:1036fc000200a0006004200071052000237420004b
:10370c0080497800814978008249780000000000e7
:10371c00113a80000000270080806000000021002a
:10372c00808f5000faff3a0000000000113a800030
:10373c0000022000008060000000e000fbff32006f
:08374c000080fa0000000600f5
:020000040000fa
:10375400141000000600000080000000ae110000fc
:103764002a000000800000002a100000020000006f
:103774008200000001000000001000000c000000a6
:10378400800000000c100000080000008000000011
:103794002e10000080000000800000001a100000bd
:1037a4000600000080000000ae1000008000000051
:1037b40080000000261000000400000080000000cb
:1037c4002e11000080000000800000002010000086
:1037d40006000000800000002c1000000200000021
:0837e40080000000000000005d
:020000040000fa
:1037ec000000fa001160800080ff2f000080600054
:1037fc001060880000fa20002060880023aca8002c
:10380c00238ca80011618000f03f2f000080600025
:10381c0000a0a0001061880030002000206188000a
:10382c00c3aca800c38ca80011668000f03f2f0029
:10383c000080600000a0a00010668800300020000e
:10384c002066880001eca8000080fa000000060049
:10385c000600fa00008fbe006400470002487800a2
:10386c000080fa00000006000000fa000080fa0058
:04387c000000060042
:020000040000fa
:10388000f03fb1000180b10006003500ee030900f1
:1038900000000000403fb1000180b100fbff3d008f
:1038a0001000b000203fb000020035000080090089
:0838b00000000000000006000a
:020000040000fa
:02000004000af0
:04afe000cfff00009f
:020000040000fa
:02000004000af0
:04afe400f7ff000073
:020000040000fa
:02000004000af0
:04afe8007fff0000e7
:020000040000fa
:02000004000af0
:04afec005fff000003
:020000040000fa
:02000004000af0
:04aff00038ff000026
:020000040000fa
:02000004000af0
:04aff400ffffff005c
:00000001FF
